{
	"contracts/Voting.sol": {
		"Voting": {
			"abi": [
				{
					"inputs": [],
					"stateMutability": "nonpayable",
					"type": "constructor"
				},
				{
					"inputs": [
						{
							"internalType": "address",
							"name": "owner",
							"type": "address"
						}
					],
					"name": "OwnableInvalidOwner",
					"type": "error"
				},
				{
					"inputs": [
						{
							"internalType": "address",
							"name": "account",
							"type": "address"
						}
					],
					"name": "OwnableUnauthorizedAccount",
					"type": "error"
				},
				{
					"anonymous": false,
					"inputs": [
						{
							"indexed": true,
							"internalType": "address",
							"name": "previousOwner",
							"type": "address"
						},
						{
							"indexed": true,
							"internalType": "address",
							"name": "newOwner",
							"type": "address"
						}
					],
					"name": "OwnershipTransferred",
					"type": "event"
				},
				{
					"anonymous": false,
					"inputs": [
						{
							"indexed": false,
							"internalType": "uint256",
							"name": "proposalId",
							"type": "uint256"
						}
					],
					"name": "ProposalRegistered",
					"type": "event"
				},
				{
					"anonymous": false,
					"inputs": [
						{
							"indexed": false,
							"internalType": "address",
							"name": "voter",
							"type": "address"
						},
						{
							"indexed": false,
							"internalType": "uint256",
							"name": "proposalId",
							"type": "uint256"
						}
					],
					"name": "Voted",
					"type": "event"
				},
				{
					"anonymous": false,
					"inputs": [
						{
							"indexed": false,
							"internalType": "address",
							"name": "voterAddress",
							"type": "address"
						}
					],
					"name": "VoterRegistered",
					"type": "event"
				},
				{
					"anonymous": false,
					"inputs": [
						{
							"indexed": false,
							"internalType": "enum Voting.WorkflowStatus",
							"name": "previousStatus",
							"type": "uint8"
						},
						{
							"indexed": false,
							"internalType": "enum Voting.WorkflowStatus",
							"name": "newStatus",
							"type": "uint8"
						}
					],
					"name": "WorkflowStatusChange",
					"type": "event"
				},
				{
					"inputs": [
						{
							"internalType": "enum Voting.WorkflowStatus",
							"name": "_status",
							"type": "uint8"
						}
					],
					"name": "changeStatus",
					"outputs": [],
					"stateMutability": "nonpayable",
					"type": "function"
				},
				{
					"inputs": [],
					"name": "getWinner",
					"outputs": [
						{
							"components": [
								{
									"internalType": "string",
									"name": "description",
									"type": "string"
								},
								{
									"internalType": "uint256",
									"name": "voteCount",
									"type": "uint256"
								}
							],
							"internalType": "struct Voting.Proposal",
							"name": "winningProposal",
							"type": "tuple"
						}
					],
					"stateMutability": "view",
					"type": "function"
				},
				{
					"inputs": [],
					"name": "owner",
					"outputs": [
						{
							"internalType": "address",
							"name": "",
							"type": "address"
						}
					],
					"stateMutability": "view",
					"type": "function"
				},
				{
					"inputs": [
						{
							"internalType": "uint256",
							"name": "",
							"type": "uint256"
						}
					],
					"name": "proposals",
					"outputs": [
						{
							"internalType": "string",
							"name": "description",
							"type": "string"
						},
						{
							"internalType": "uint256",
							"name": "voteCount",
							"type": "uint256"
						}
					],
					"stateMutability": "view",
					"type": "function"
				},
				{
					"inputs": [
						{
							"internalType": "string",
							"name": "_description",
							"type": "string"
						}
					],
					"name": "registerProposal",
					"outputs": [],
					"stateMutability": "nonpayable",
					"type": "function"
				},
				{
					"inputs": [
						{
							"internalType": "address",
							"name": "_voterAddress",
							"type": "address"
						}
					],
					"name": "registerVoter",
					"outputs": [],
					"stateMutability": "nonpayable",
					"type": "function"
				},
				{
					"inputs": [],
					"name": "renounceOwnership",
					"outputs": [],
					"stateMutability": "nonpayable",
					"type": "function"
				},
				{
					"inputs": [
						{
							"internalType": "address",
							"name": "newOwner",
							"type": "address"
						}
					],
					"name": "transferOwnership",
					"outputs": [],
					"stateMutability": "nonpayable",
					"type": "function"
				},
				{
					"inputs": [
						{
							"internalType": "uint256",
							"name": "_proposalId",
							"type": "uint256"
						}
					],
					"name": "voteProposal",
					"outputs": [],
					"stateMutability": "nonpayable",
					"type": "function"
				},
				{
					"inputs": [
						{
							"internalType": "address",
							"name": "",
							"type": "address"
						}
					],
					"name": "whitelist",
					"outputs": [
						{
							"internalType": "bool",
							"name": "isRegistered",
							"type": "bool"
						},
						{
							"internalType": "bool",
							"name": "hasVoted",
							"type": "bool"
						},
						{
							"internalType": "uint256",
							"name": "votedProposalId",
							"type": "uint256"
						}
					],
					"stateMutability": "view",
					"type": "function"
				}
			],
			"devdoc": {
				"errors": {
					"OwnableInvalidOwner(address)": [
						{
							"details": "The owner is not a valid owner account. (eg. `address(0)`)"
						}
					],
					"OwnableUnauthorizedAccount(address)": [
						{
							"details": "The caller account is not authorized to perform an operation."
						}
					]
				},
				"kind": "dev",
				"methods": {
					"owner()": {
						"details": "Returns the address of the current owner."
					},
					"renounceOwnership()": {
						"details": "Leaves the contract without owner. It will not be possible to call `onlyOwner` functions. Can only be called by the current owner. NOTE: Renouncing ownership will leave the contract without an owner, thereby disabling any functionality that is only available to the owner."
					},
					"transferOwnership(address)": {
						"details": "Transfers ownership of the contract to a new account (`newOwner`). Can only be called by the current owner."
					}
				},
				"version": 1
			},
			"evm": {
				"assembly": "    /* \"contracts/Voting.sol\":122:3158  contract Voting is Ownable{... */\n  mstore(0x40, 0x80)\n    /* \"contracts/Voting.sol\":155:256  constructor() Ownable(msg.sender) {... */\n  callvalue\n  dup1\n  iszero\n  tag_1\n  jumpi\n  revert(0x00, 0x00)\ntag_1:\n  pop\n    /* \"contracts/Voting.sol\":177:187  msg.sender */\n  caller\n    /* \"@openzeppelin/contracts/access/Ownable.sol\":1297:1298  0 */\n  0x00\n    /* \"@openzeppelin/contracts/access/Ownable.sol\":1273:1299  initialOwner == address(0) */\n  0xffffffffffffffffffffffffffffffffffffffff\n  and\n    /* \"@openzeppelin/contracts/access/Ownable.sol\":1273:1285  initialOwner */\n  dup2\n    /* \"@openzeppelin/contracts/access/Ownable.sol\":1273:1299  initialOwner == address(0) */\n  0xffffffffffffffffffffffffffffffffffffffff\n  and\n  sub\n    /* \"@openzeppelin/contracts/access/Ownable.sol\":1269:1364  if (initialOwner == address(0)) {... */\n  tag_5\n  jumpi\n    /* \"@openzeppelin/contracts/access/Ownable.sol\":1350:1351  0 */\n  0x00\n    /* \"@openzeppelin/contracts/access/Ownable.sol\":1322:1353  OwnableInvalidOwner(address(0)) */\n  mload(0x40)\n  0x1e4fbdf700000000000000000000000000000000000000000000000000000000\n  dup2\n  mstore\n  0x04\n  add\n  tag_6\n  swap2\n  swap1\n  tag_7\n  jump\t// in\ntag_6:\n  mload(0x40)\n  dup1\n  swap2\n  sub\n  swap1\n  revert\n    /* \"@openzeppelin/contracts/access/Ownable.sol\":1269:1364  if (initialOwner == address(0)) {... */\ntag_5:\n    /* \"@openzeppelin/contracts/access/Ownable.sol\":1373:1405  _transferOwnership(initialOwner) */\n  tag_8\n    /* \"@openzeppelin/contracts/access/Ownable.sol\":1392:1404  initialOwner */\n  dup2\n    /* \"@openzeppelin/contracts/access/Ownable.sol\":1373:1391  _transferOwnership */\n  shl(0x20, tag_9)\n    /* \"@openzeppelin/contracts/access/Ownable.sol\":1373:1405  _transferOwnership(initialOwner) */\n  0x20\n  shr\n  jump\t// in\ntag_8:\n    /* \"@openzeppelin/contracts/access/Ownable.sol\":1225:1412  constructor(address initialOwner) {... */\n  pop\n    /* \"contracts/Voting.sol\":216:248  WorkflowStatus.RegisteringVoters */\n  0x00\n    /* \"contracts/Voting.sol\":196:213  currentVoteStatus */\n  0x00\n  0x14\n    /* \"contracts/Voting.sol\":196:248  currentVoteStatus = WorkflowStatus.RegisteringVoters */\n  0x0100\n  exp\n  dup2\n  sload\n  dup2\n  0xff\n  mul\n  not\n  and\n  swap1\n  dup4\n  0x05\n  dup2\n  gt\n  iszero\n  tag_11\n  jumpi\n  tag_12\n  tag_13\n  jump\t// in\ntag_12:\ntag_11:\n  mul\n  or\n  swap1\n  sstore\n  pop\n    /* \"contracts/Voting.sol\":122:3158  contract Voting is Ownable{... */\n  jump(tag_14)\n    /* \"@openzeppelin/contracts/access/Ownable.sol\":2912:3099  function _transferOwnership(address newOwner) internal virtual {... */\ntag_9:\n    /* \"@openzeppelin/contracts/access/Ownable.sol\":2985:3001  address oldOwner */\n  0x00\n    /* \"@openzeppelin/contracts/access/Ownable.sol\":3004:3010  _owner */\n  0x00\n  0x00\n  swap1\n  sload\n  swap1\n  0x0100\n  exp\n  swap1\n  div\n  0xffffffffffffffffffffffffffffffffffffffff\n  and\n    /* \"@openzeppelin/contracts/access/Ownable.sol\":2985:3010  address oldOwner = _owner */\n  swap1\n  pop\n    /* \"@openzeppelin/contracts/access/Ownable.sol\":3029:3037  newOwner */\n  dup2\n    /* \"@openzeppelin/contracts/access/Ownable.sol\":3020:3026  _owner */\n  0x00\n  0x00\n    /* \"@openzeppelin/contracts/access/Ownable.sol\":3020:3037  _owner = newOwner */\n  0x0100\n  exp\n  dup2\n  sload\n  dup2\n  0xffffffffffffffffffffffffffffffffffffffff\n  mul\n  not\n  and\n  swap1\n  dup4\n  0xffffffffffffffffffffffffffffffffffffffff\n  and\n  mul\n  or\n  swap1\n  sstore\n  pop\n    /* \"@openzeppelin/contracts/access/Ownable.sol\":3083:3091  newOwner */\n  dup2\n    /* \"@openzeppelin/contracts/access/Ownable.sol\":3052:3092  OwnershipTransferred(oldOwner, newOwner) */\n  0xffffffffffffffffffffffffffffffffffffffff\n  and\n    /* \"@openzeppelin/contracts/access/Ownable.sol\":3073:3081  oldOwner */\n  dup2\n    /* \"@openzeppelin/contracts/access/Ownable.sol\":3052:3092  OwnershipTransferred(oldOwner, newOwner) */\n  0xffffffffffffffffffffffffffffffffffffffff\n  and\n  0x8be0079c531659141344cd1fd0a4f28419497f9722a3daafe3b4186f6b6457e0\n  mload(0x40)\n  mload(0x40)\n  dup1\n  swap2\n  sub\n  swap1\n  log3\n    /* \"@openzeppelin/contracts/access/Ownable.sol\":2975:3099  {... */\n  pop\n    /* \"@openzeppelin/contracts/access/Ownable.sol\":2912:3099  function _transferOwnership(address newOwner) internal virtual {... */\n  pop\n  jump\t// out\n    /* \"#utility.yul\":7:133   */\ntag_16:\n    /* \"#utility.yul\":44:51   */\n  0x00\n    /* \"#utility.yul\":84:126   */\n  0xffffffffffffffffffffffffffffffffffffffff\n    /* \"#utility.yul\":77:82   */\n  dup3\n    /* \"#utility.yul\":73:127   */\n  and\n    /* \"#utility.yul\":62:127   */\n  swap1\n  pop\n    /* \"#utility.yul\":7:133   */\n  swap2\n  swap1\n  pop\n  jump\t// out\n    /* \"#utility.yul\":139:235   */\ntag_17:\n    /* \"#utility.yul\":176:183   */\n  0x00\n    /* \"#utility.yul\":205:229   */\n  tag_22\n    /* \"#utility.yul\":223:228   */\n  dup3\n    /* \"#utility.yul\":205:229   */\n  tag_16\n  jump\t// in\ntag_22:\n    /* \"#utility.yul\":194:229   */\n  swap1\n  pop\n    /* \"#utility.yul\":139:235   */\n  swap2\n  swap1\n  pop\n  jump\t// out\n    /* \"#utility.yul\":241:359   */\ntag_18:\n    /* \"#utility.yul\":328:352   */\n  tag_24\n    /* \"#utility.yul\":346:351   */\n  dup2\n    /* \"#utility.yul\":328:352   */\n  tag_17\n  jump\t// in\ntag_24:\n    /* \"#utility.yul\":323:326   */\n  dup3\n    /* \"#utility.yul\":316:353   */\n  mstore\n    /* \"#utility.yul\":241:359   */\n  pop\n  pop\n  jump\t// out\n    /* \"#utility.yul\":365:587   */\ntag_7:\n    /* \"#utility.yul\":458:462   */\n  0x00\n    /* \"#utility.yul\":496:498   */\n  0x20\n    /* \"#utility.yul\":485:494   */\n  dup3\n    /* \"#utility.yul\":481:499   */\n  add\n    /* \"#utility.yul\":473:499   */\n  swap1\n  pop\n    /* \"#utility.yul\":509:580   */\n  tag_26\n    /* \"#utility.yul\":577:578   */\n  0x00\n    /* \"#utility.yul\":566:575   */\n  dup4\n    /* \"#utility.yul\":562:579   */\n  add\n    /* \"#utility.yul\":553:559   */\n  dup5\n    /* \"#utility.yul\":509:580   */\n  tag_18\n  jump\t// in\ntag_26:\n    /* \"#utility.yul\":365:587   */\n  swap3\n  swap2\n  pop\n  pop\n  jump\t// out\n    /* \"#utility.yul\":593:773   */\ntag_13:\n    /* \"#utility.yul\":641:718   */\n  0x4e487b7100000000000000000000000000000000000000000000000000000000\n    /* \"#utility.yul\":638:639   */\n  0x00\n    /* \"#utility.yul\":631:719   */\n  mstore\n    /* \"#utility.yul\":738:742   */\n  0x21\n    /* \"#utility.yul\":735:736   */\n  0x04\n    /* \"#utility.yul\":728:743   */\n  mstore\n    /* \"#utility.yul\":762:766   */\n  0x24\n    /* \"#utility.yul\":759:760   */\n  0x00\n    /* \"#utility.yul\":752:767   */\n  revert\n    /* \"contracts/Voting.sol\":122:3158  contract Voting is Ownable{... */\ntag_14:\n  dataSize(sub_0)\n  dup1\n  dataOffset(sub_0)\n  0x00\n  codecopy\n  0x00\n  return\nstop\n\nsub_0: assembly {\n        /* \"contracts/Voting.sol\":122:3158  contract Voting is Ownable{... */\n      mstore(0x40, 0x80)\n      callvalue\n      dup1\n      iszero\n      tag_1\n      jumpi\n      revert(0x00, 0x00)\n    tag_1:\n      pop\n      jumpi(tag_2, lt(calldatasize, 0x04))\n      shr(0xe0, calldataload(0x00))\n      dup1\n      0x8da5cb5b\n      gt\n      tag_13\n      jumpi\n      dup1\n      0x8da5cb5b\n      eq\n      tag_8\n      jumpi\n      dup1\n      0x8e7ea5b2\n      eq\n      tag_9\n      jumpi\n      dup1\n      0x95bc9538\n      eq\n      tag_10\n      jumpi\n      dup1\n      0x9b19251a\n      eq\n      tag_11\n      jumpi\n      dup1\n      0xf2fde38b\n      eq\n      tag_12\n      jumpi\n      jump(tag_2)\n    tag_13:\n      dup1\n      0x013cf08b\n      eq\n      tag_3\n      jumpi\n      dup1\n      0x2f95355b\n      eq\n      tag_4\n      jumpi\n      dup1\n      0x38db6dd3\n      eq\n      tag_5\n      jumpi\n      dup1\n      0x715018a6\n      eq\n      tag_6\n      jumpi\n      dup1\n      0x807896d5\n      eq\n      tag_7\n      jumpi\n    tag_2:\n      revert(0x00, 0x00)\n        /* \"contracts/Voting.sol\":726:753  Proposal[] public proposals */\n    tag_3:\n      tag_14\n      0x04\n      dup1\n      calldatasize\n      sub\n      dup2\n      add\n      swap1\n      tag_15\n      swap2\n      swap1\n      tag_16\n      jump\t// in\n    tag_15:\n      tag_17\n      jump\t// in\n    tag_14:\n      mload(0x40)\n      tag_18\n      swap3\n      swap2\n      swap1\n      tag_19\n      jump\t// in\n    tag_18:\n      mload(0x40)\n      dup1\n      swap2\n      sub\n      swap1\n      return\n        /* \"contracts/Voting.sol\":1712:2103  function registerProposal(string memory _description) public ... */\n    tag_4:\n      tag_20\n      0x04\n      dup1\n      calldatasize\n      sub\n      dup2\n      add\n      swap1\n      tag_21\n      swap2\n      swap1\n      tag_22\n      jump\t// in\n    tag_21:\n      tag_23\n      jump\t// in\n    tag_20:\n      stop\n        /* \"contracts/Voting.sol\":1418:1704  function registerVoter(address _voterAddress) public onlyOwner... */\n    tag_5:\n      tag_24\n      0x04\n      dup1\n      calldatasize\n      sub\n      dup2\n      add\n      swap1\n      tag_25\n      swap2\n      swap1\n      tag_26\n      jump\t// in\n    tag_25:\n      tag_27\n      jump\t// in\n    tag_24:\n      stop\n        /* \"@openzeppelin/contracts/access/Ownable.sol\":2293:2394  function renounceOwnership() public virtual onlyOwner {... */\n    tag_6:\n      tag_28\n      tag_29\n      jump\t// in\n    tag_28:\n      stop\n        /* \"contracts/Voting.sol\":2111:2660  function voteProposal(uint _proposalId) public... */\n    tag_7:\n      tag_30\n      0x04\n      dup1\n      calldatasize\n      sub\n      dup2\n      add\n      swap1\n      tag_31\n      swap2\n      swap1\n      tag_16\n      jump\t// in\n    tag_31:\n      tag_32\n      jump\t// in\n    tag_30:\n      stop\n        /* \"@openzeppelin/contracts/access/Ownable.sol\":1638:1723  function owner() public view virtual returns (address) {... */\n    tag_8:\n      tag_33\n      tag_34\n      jump\t// in\n    tag_33:\n      mload(0x40)\n      tag_35\n      swap2\n      swap1\n      tag_36\n      jump\t// in\n    tag_35:\n      mload(0x40)\n      dup1\n      swap2\n      sub\n      swap1\n      return\n        /* \"contracts/Voting.sol\":3010:3155  function getWinner() public view returns (Proposal memory winningProposal)... */\n    tag_9:\n      tag_37\n      tag_38\n      jump\t// in\n    tag_37:\n      mload(0x40)\n      tag_39\n      swap2\n      swap1\n      tag_40\n      jump\t// in\n    tag_39:\n      mload(0x40)\n      dup1\n      swap2\n      sub\n      swap1\n      return\n        /* \"contracts/Voting.sol\":1034:1410  function changeStatus(WorkflowStatus _status) public onlyOwner... */\n    tag_10:\n      tag_41\n      0x04\n      dup1\n      calldatasize\n      sub\n      dup2\n      add\n      swap1\n      tag_42\n      swap2\n      swap1\n      tag_43\n      jump\t// in\n    tag_42:\n      tag_44\n      jump\t// in\n    tag_41:\n      stop\n        /* \"contracts/Voting.sol\":677:719  mapping(address => Voter) public whitelist */\n    tag_11:\n      tag_45\n      0x04\n      dup1\n      calldatasize\n      sub\n      dup2\n      add\n      swap1\n      tag_46\n      swap2\n      swap1\n      tag_26\n      jump\t// in\n    tag_46:\n      tag_47\n      jump\t// in\n    tag_45:\n      mload(0x40)\n      tag_48\n      swap4\n      swap3\n      swap2\n      swap1\n      tag_49\n      jump\t// in\n    tag_48:\n      mload(0x40)\n      dup1\n      swap2\n      sub\n      swap1\n      return\n        /* \"@openzeppelin/contracts/access/Ownable.sol\":2543:2758  function transferOwnership(address newOwner) public virtual onlyOwner {... */\n    tag_12:\n      tag_50\n      0x04\n      dup1\n      calldatasize\n      sub\n      dup2\n      add\n      swap1\n      tag_51\n      swap2\n      swap1\n      tag_26\n      jump\t// in\n    tag_51:\n      tag_52\n      jump\t// in\n    tag_50:\n      stop\n        /* \"contracts/Voting.sol\":726:753  Proposal[] public proposals */\n    tag_17:\n      0x02\n      dup2\n      dup2\n      sload\n      dup2\n      lt\n      tag_53\n      jumpi\n      0x00\n      dup1\n      revert\n    tag_53:\n      swap1\n      0x00\n      mstore\n      keccak256(0x00, 0x20)\n      swap1\n      0x02\n      mul\n      add\n      0x00\n      swap2\n      pop\n      swap1\n      pop\n      dup1\n      0x00\n      add\n      dup1\n      sload\n      tag_55\n      swap1\n      tag_56\n      jump\t// in\n    tag_55:\n      dup1\n      0x1f\n      add\n      0x20\n      dup1\n      swap2\n      div\n      mul\n      0x20\n      add\n      mload(0x40)\n      swap1\n      dup2\n      add\n      0x40\n      mstore\n      dup1\n      swap3\n      swap2\n      swap1\n      dup2\n      dup2\n      mstore\n      0x20\n      add\n      dup3\n      dup1\n      sload\n      tag_57\n      swap1\n      tag_56\n      jump\t// in\n    tag_57:\n      dup1\n      iszero\n      tag_58\n      jumpi\n      dup1\n      0x1f\n      lt\n      tag_59\n      jumpi\n      0x0100\n      dup1\n      dup4\n      sload\n      div\n      mul\n      dup4\n      mstore\n      swap2\n      0x20\n      add\n      swap2\n      jump(tag_58)\n    tag_59:\n      dup3\n      add\n      swap2\n      swap1\n      0x00\n      mstore\n      keccak256(0x00, 0x20)\n      swap1\n    tag_60:\n      dup2\n      sload\n      dup2\n      mstore\n      swap1\n      0x01\n      add\n      swap1\n      0x20\n      add\n      dup1\n      dup4\n      gt\n      tag_60\n      jumpi\n      dup3\n      swap1\n      sub\n      0x1f\n      and\n      dup3\n      add\n      swap2\n    tag_58:\n      pop\n      pop\n      pop\n      pop\n      pop\n      swap1\n      dup1\n      0x01\n      add\n      sload\n      swap1\n      pop\n      dup3\n      jump\t// out\n        /* \"contracts/Voting.sol\":1712:2103  function registerProposal(string memory _description) public ... */\n    tag_23:\n        /* \"contracts/Voting.sol\":1798:1807  whitelist */\n      0x01\n        /* \"contracts/Voting.sol\":1798:1819  whitelist[msg.sender] */\n      0x00\n        /* \"contracts/Voting.sol\":1808:1818  msg.sender */\n      caller\n        /* \"contracts/Voting.sol\":1798:1819  whitelist[msg.sender] */\n      0xffffffffffffffffffffffffffffffffffffffff\n      and\n      0xffffffffffffffffffffffffffffffffffffffff\n      and\n      dup2\n      mstore\n      0x20\n      add\n      swap1\n      dup2\n      mstore\n      0x20\n      add\n      0x00\n      keccak256\n        /* \"contracts/Voting.sol\":1798:1832  whitelist[msg.sender].isRegistered */\n      0x00\n      add\n      0x00\n      swap1\n      sload\n      swap1\n      0x0100\n      exp\n      swap1\n      div\n      0xff\n      and\n        /* \"contracts/Voting.sol\":1790:1869  require(whitelist[msg.sender].isRegistered,\"You are not registered as a Voter\") */\n      tag_62\n      jumpi\n      mload(0x40)\n      0x08c379a000000000000000000000000000000000000000000000000000000000\n      dup2\n      mstore\n      0x04\n      add\n      tag_63\n      swap1\n      tag_64\n      jump\t// in\n    tag_63:\n      mload(0x40)\n      dup1\n      swap2\n      sub\n      swap1\n      revert\n    tag_62:\n        /* \"contracts/Voting.sol\":1909:1952  WorkflowStatus.ProposalsRegistrationStarted */\n      0x01\n        /* \"contracts/Voting.sol\":1888:1952  currentVoteStatus == WorkflowStatus.ProposalsRegistrationStarted */\n      0x05\n      dup2\n      gt\n      iszero\n      tag_65\n      jumpi\n      tag_66\n      tag_67\n      jump\t// in\n    tag_66:\n    tag_65:\n        /* \"contracts/Voting.sol\":1888:1905  currentVoteStatus */\n      0x00\n      0x14\n      swap1\n      sload\n      swap1\n      0x0100\n      exp\n      swap1\n      div\n      0xff\n      and\n        /* \"contracts/Voting.sol\":1888:1952  currentVoteStatus == WorkflowStatus.ProposalsRegistrationStarted */\n      0x05\n      dup2\n      gt\n      iszero\n      tag_68\n      jumpi\n      tag_69\n      tag_67\n      jump\t// in\n    tag_69:\n    tag_68:\n      eq\n        /* \"contracts/Voting.sol\":1880:1990  require(currentVoteStatus == WorkflowStatus.ProposalsRegistrationStarted, \"Proposal registration is not open\") */\n      tag_70\n      jumpi\n      mload(0x40)\n      0x08c379a000000000000000000000000000000000000000000000000000000000\n      dup2\n      mstore\n      0x04\n      add\n      tag_71\n      swap1\n      tag_72\n      jump\t// in\n    tag_71:\n      mload(0x40)\n      dup1\n      swap2\n      sub\n      swap1\n      revert\n    tag_70:\n        /* \"contracts/Voting.sol\":2001:2010  proposals */\n      0x02\n        /* \"contracts/Voting.sol\":2016:2040  Proposal(_description,0) */\n      mload(0x40)\n      dup1\n      0x40\n      add\n      0x40\n      mstore\n      dup1\n        /* \"contracts/Voting.sol\":2025:2037  _description */\n      dup4\n        /* \"contracts/Voting.sol\":2016:2040  Proposal(_description,0) */\n      dup2\n      mstore\n      0x20\n      add\n        /* \"contracts/Voting.sol\":2038:2039  0 */\n      0x00\n        /* \"contracts/Voting.sol\":2016:2040  Proposal(_description,0) */\n      dup2\n      mstore\n      pop\n        /* \"contracts/Voting.sol\":2001:2041  proposals.push(Proposal(_description,0)) */\n      swap1\n      dup1\n      0x01\n      dup2\n      sload\n      add\n      dup1\n      dup3\n      sstore\n      dup1\n      swap2\n      pop\n      pop\n      0x01\n      swap1\n      sub\n      swap1\n      0x00\n      mstore\n      keccak256(0x00, 0x20)\n      swap1\n      0x02\n      mul\n      add\n      0x00\n      swap1\n      swap2\n      swap1\n      swap2\n      swap1\n      swap2\n      pop\n      0x00\n      dup3\n      add\n      mload\n      dup2\n      0x00\n      add\n      swap1\n      dup2\n      tag_74\n      swap2\n      swap1\n      tag_75\n      jump\t// in\n    tag_74:\n      pop\n      0x20\n      dup3\n      add\n      mload\n      dup2\n      0x01\n      add\n      sstore\n      pop\n      pop\n        /* \"contracts/Voting.sol\":2057:2095  ProposalRegistered(proposals.length-1) */\n      0x92e393e9b54e2f801d3ea4beb0c5e71a21cc34a5d34b77d0fb8a3aa1650dc18f\n        /* \"contracts/Voting.sol\":2093:2094  1 */\n      0x01\n        /* \"contracts/Voting.sol\":2076:2085  proposals */\n      0x02\n        /* \"contracts/Voting.sol\":2076:2092  proposals.length */\n      dup1\n      sload\n      swap1\n      pop\n        /* \"contracts/Voting.sol\":2076:2094  proposals.length-1 */\n      tag_76\n      swap2\n      swap1\n      tag_77\n      jump\t// in\n    tag_76:\n        /* \"contracts/Voting.sol\":2057:2095  ProposalRegistered(proposals.length-1) */\n      mload(0x40)\n      tag_78\n      swap2\n      swap1\n      tag_79\n      jump\t// in\n    tag_78:\n      mload(0x40)\n      dup1\n      swap2\n      sub\n      swap1\n      log1\n        /* \"contracts/Voting.sol\":1712:2103  function registerProposal(string memory _description) public ... */\n      pop\n      jump\t// out\n        /* \"contracts/Voting.sol\":1418:1704  function registerVoter(address _voterAddress) public onlyOwner... */\n    tag_27:\n        /* \"@openzeppelin/contracts/access/Ownable.sol\":1531:1544  _checkOwner() */\n      tag_81\n        /* \"@openzeppelin/contracts/access/Ownable.sol\":1531:1542  _checkOwner */\n      tag_82\n        /* \"@openzeppelin/contracts/access/Ownable.sol\":1531:1544  _checkOwner() */\n      jump\t// in\n    tag_81:\n        /* \"contracts/Voting.sol\":1526:1558  WorkflowStatus.RegisteringVoters */\n      0x00\n        /* \"contracts/Voting.sol\":1505:1558  currentVoteStatus == WorkflowStatus.RegisteringVoters */\n      0x05\n      dup2\n      gt\n      iszero\n      tag_84\n      jumpi\n      tag_85\n      tag_67\n      jump\t// in\n    tag_85:\n    tag_84:\n        /* \"contracts/Voting.sol\":1505:1522  currentVoteStatus */\n      0x00\n      0x14\n      swap1\n      sload\n      swap1\n      0x0100\n      exp\n      swap1\n      div\n      0xff\n      and\n        /* \"contracts/Voting.sol\":1505:1558  currentVoteStatus == WorkflowStatus.RegisteringVoters */\n      0x05\n      dup2\n      gt\n      iszero\n      tag_86\n      jumpi\n      tag_87\n      tag_67\n      jump\t// in\n    tag_87:\n    tag_86:\n      eq\n        /* \"contracts/Voting.sol\":1497:1593  require(currentVoteStatus == WorkflowStatus.RegisteringVoters, \"The registration phase is over\") */\n      tag_88\n      jumpi\n      mload(0x40)\n      0x08c379a000000000000000000000000000000000000000000000000000000000\n      dup2\n      mstore\n      0x04\n      add\n      tag_89\n      swap1\n      tag_90\n      jump\t// in\n    tag_89:\n      mload(0x40)\n      dup1\n      swap2\n      sub\n      swap1\n      revert\n    tag_88:\n        /* \"contracts/Voting.sol\":1631:1650  Voter(true,false,0) */\n      mload(0x40)\n      dup1\n      0x60\n      add\n      0x40\n      mstore\n      dup1\n        /* \"contracts/Voting.sol\":1637:1641  true */\n      0x01\n        /* \"contracts/Voting.sol\":1631:1650  Voter(true,false,0) */\n      iszero\n      iszero\n      dup2\n      mstore\n      0x20\n      add\n        /* \"contracts/Voting.sol\":1642:1647  false */\n      0x00\n        /* \"contracts/Voting.sol\":1631:1650  Voter(true,false,0) */\n      iszero\n      iszero\n      dup2\n      mstore\n      0x20\n      add\n        /* \"contracts/Voting.sol\":1648:1649  0 */\n      0x00\n        /* \"contracts/Voting.sol\":1631:1650  Voter(true,false,0) */\n      dup2\n      mstore\n      pop\n        /* \"contracts/Voting.sol\":1604:1613  whitelist */\n      0x01\n        /* \"contracts/Voting.sol\":1604:1628  whitelist[_voterAddress] */\n      0x00\n        /* \"contracts/Voting.sol\":1614:1627  _voterAddress */\n      dup4\n        /* \"contracts/Voting.sol\":1604:1628  whitelist[_voterAddress] */\n      0xffffffffffffffffffffffffffffffffffffffff\n      and\n      0xffffffffffffffffffffffffffffffffffffffff\n      and\n      dup2\n      mstore\n      0x20\n      add\n      swap1\n      dup2\n      mstore\n      0x20\n      add\n      0x00\n      keccak256\n        /* \"contracts/Voting.sol\":1604:1650  whitelist[_voterAddress] = Voter(true,false,0) */\n      0x00\n      dup3\n      add\n      mload\n      dup2\n      0x00\n      add\n      exp(0x0100, 0x00)\n      dup2\n      sload\n      dup2\n      0xff\n      mul\n      not\n      and\n      swap1\n      dup4\n      iszero\n      iszero\n      mul\n      or\n      swap1\n      sstore\n      pop\n      0x20\n      dup3\n      add\n      mload\n      dup2\n      0x00\n      add\n      exp(0x0100, 0x01)\n      dup2\n      sload\n      dup2\n      0xff\n      mul\n      not\n      and\n      swap1\n      dup4\n      iszero\n      iszero\n      mul\n      or\n      swap1\n      sstore\n      pop\n      0x40\n      dup3\n      add\n      mload\n      dup2\n      0x01\n      add\n      sstore\n      swap1\n      pop\n      pop\n        /* \"contracts/Voting.sol\":1666:1696  VoterRegistered(_voterAddress) */\n      0xb6be2187d059cc2a55fe29e0e503b566e1e0f8c8780096e185429350acffd3dd\n        /* \"contracts/Voting.sol\":1682:1695  _voterAddress */\n      dup2\n        /* \"contracts/Voting.sol\":1666:1696  VoterRegistered(_voterAddress) */\n      mload(0x40)\n      tag_91\n      swap2\n      swap1\n      tag_36\n      jump\t// in\n    tag_91:\n      mload(0x40)\n      dup1\n      swap2\n      sub\n      swap1\n      log1\n        /* \"contracts/Voting.sol\":1418:1704  function registerVoter(address _voterAddress) public onlyOwner... */\n      pop\n      jump\t// out\n        /* \"@openzeppelin/contracts/access/Ownable.sol\":2293:2394  function renounceOwnership() public virtual onlyOwner {... */\n    tag_29:\n        /* \"@openzeppelin/contracts/access/Ownable.sol\":1531:1544  _checkOwner() */\n      tag_93\n        /* \"@openzeppelin/contracts/access/Ownable.sol\":1531:1542  _checkOwner */\n      tag_82\n        /* \"@openzeppelin/contracts/access/Ownable.sol\":1531:1544  _checkOwner() */\n      jump\t// in\n    tag_93:\n        /* \"@openzeppelin/contracts/access/Ownable.sol\":2357:2387  _transferOwnership(address(0)) */\n      tag_95\n        /* \"@openzeppelin/contracts/access/Ownable.sol\":2384:2385  0 */\n      0x00\n        /* \"@openzeppelin/contracts/access/Ownable.sol\":2357:2375  _transferOwnership */\n      tag_96\n        /* \"@openzeppelin/contracts/access/Ownable.sol\":2357:2387  _transferOwnership(address(0)) */\n      jump\t// in\n    tag_95:\n        /* \"@openzeppelin/contracts/access/Ownable.sol\":2293:2394  function renounceOwnership() public virtual onlyOwner {... */\n      jump\t// out\n        /* \"contracts/Voting.sol\":2111:2660  function voteProposal(uint _proposalId) public... */\n    tag_32:\n        /* \"contracts/Voting.sol\":2174:2194  Voter storage sender */\n      0x00\n        /* \"contracts/Voting.sol\":2197:2206  whitelist */\n      0x01\n        /* \"contracts/Voting.sol\":2197:2218  whitelist[msg.sender] */\n      0x00\n        /* \"contracts/Voting.sol\":2207:2217  msg.sender */\n      caller\n        /* \"contracts/Voting.sol\":2197:2218  whitelist[msg.sender] */\n      0xffffffffffffffffffffffffffffffffffffffff\n      and\n      0xffffffffffffffffffffffffffffffffffffffff\n      and\n      dup2\n      mstore\n      0x20\n      add\n      swap1\n      dup2\n      mstore\n      0x20\n      add\n      0x00\n      keccak256\n        /* \"contracts/Voting.sol\":2174:2218  Voter storage sender = whitelist[msg.sender] */\n      swap1\n      pop\n        /* \"contracts/Voting.sol\":2258:2293  WorkflowStatus.VotingSessionStarted */\n      0x03\n        /* \"contracts/Voting.sol\":2237:2293  currentVoteStatus == WorkflowStatus.VotingSessionStarted */\n      0x05\n      dup2\n      gt\n      iszero\n      tag_98\n      jumpi\n      tag_99\n      tag_67\n      jump\t// in\n    tag_99:\n    tag_98:\n        /* \"contracts/Voting.sol\":2237:2254  currentVoteStatus */\n      0x00\n      0x14\n      swap1\n      sload\n      swap1\n      0x0100\n      exp\n      swap1\n      div\n      0xff\n      and\n        /* \"contracts/Voting.sol\":2237:2293  currentVoteStatus == WorkflowStatus.VotingSessionStarted */\n      0x05\n      dup2\n      gt\n      iszero\n      tag_100\n      jumpi\n      tag_101\n      tag_67\n      jump\t// in\n    tag_101:\n    tag_100:\n      eq\n        /* \"contracts/Voting.sol\":2229:2325  require(currentVoteStatus == WorkflowStatus.VotingSessionStarted, \"Vote session is not started\") */\n      tag_102\n      jumpi\n      mload(0x40)\n      0x08c379a000000000000000000000000000000000000000000000000000000000\n      dup2\n      mstore\n      0x04\n      add\n      tag_103\n      swap1\n      tag_104\n      jump\t// in\n    tag_103:\n      mload(0x40)\n      dup1\n      swap2\n      sub\n      swap1\n      revert\n    tag_102:\n        /* \"contracts/Voting.sol\":2345:2354  whitelist */\n      0x01\n        /* \"contracts/Voting.sol\":2345:2366  whitelist[msg.sender] */\n      0x00\n        /* \"contracts/Voting.sol\":2355:2365  msg.sender */\n      caller\n        /* \"contracts/Voting.sol\":2345:2366  whitelist[msg.sender] */\n      0xffffffffffffffffffffffffffffffffffffffff\n      and\n      0xffffffffffffffffffffffffffffffffffffffff\n      and\n      dup2\n      mstore\n      0x20\n      add\n      swap1\n      dup2\n      mstore\n      0x20\n      add\n      0x00\n      keccak256\n        /* \"contracts/Voting.sol\":2345:2375  whitelist[msg.sender].hasVoted */\n      0x00\n      add\n      0x01\n      swap1\n      sload\n      swap1\n      0x0100\n      exp\n      swap1\n      div\n      0xff\n      and\n        /* \"contracts/Voting.sol\":2344:2375  !whitelist[msg.sender].hasVoted */\n      iszero\n        /* \"contracts/Voting.sol\":2336:2401  require(!whitelist[msg.sender].hasVoted,\"User has already voted\") */\n      tag_105\n      jumpi\n      mload(0x40)\n      0x08c379a000000000000000000000000000000000000000000000000000000000\n      dup2\n      mstore\n      0x04\n      add\n      tag_106\n      swap1\n      tag_107\n      jump\t// in\n    tag_106:\n      mload(0x40)\n      dup1\n      swap2\n      sub\n      swap1\n      revert\n    tag_105:\n        /* \"contracts/Voting.sol\":2432:2441  proposals */\n      0x02\n        /* \"contracts/Voting.sol\":2432:2448  proposals.length */\n      dup1\n      sload\n      swap1\n      pop\n        /* \"contracts/Voting.sol\":2420:2431  _proposalId */\n      dup3\n        /* \"contracts/Voting.sol\":2420:2448  _proposalId<proposals.length */\n      lt\n        /* \"contracts/Voting.sol\":2412:2482  require(_proposalId<proposals.length,\"This proposal Id doesn't exist\") */\n      tag_108\n      jumpi\n      mload(0x40)\n      0x08c379a000000000000000000000000000000000000000000000000000000000\n      dup2\n      mstore\n      0x04\n      add\n      tag_109\n      swap1\n      tag_110\n      jump\t// in\n    tag_109:\n      mload(0x40)\n      dup1\n      swap2\n      sub\n      swap1\n      revert\n    tag_108:\n        /* \"contracts/Voting.sol\":2498:2527  Voted(msg.sender,_proposalId) */\n      0x4d99b957a2bc29a30ebd96a7be8e68fe50a3c701db28a91436490b7d53870ca4\n        /* \"contracts/Voting.sol\":2504:2514  msg.sender */\n      caller\n        /* \"contracts/Voting.sol\":2515:2526  _proposalId */\n      dup4\n        /* \"contracts/Voting.sol\":2498:2527  Voted(msg.sender,_proposalId) */\n      mload(0x40)\n      tag_111\n      swap3\n      swap2\n      swap1\n      tag_112\n      jump\t// in\n    tag_111:\n      mload(0x40)\n      dup1\n      swap2\n      sub\n      swap1\n      log1\n        /* \"contracts/Voting.sol\":2556:2560  true */\n      0x01\n        /* \"contracts/Voting.sol\":2538:2544  sender */\n      dup2\n        /* \"contracts/Voting.sol\":2538:2553  sender.hasVoted */\n      0x00\n      add\n      0x01\n        /* \"contracts/Voting.sol\":2538:2560  sender.hasVoted = true */\n      0x0100\n      exp\n      dup2\n      sload\n      dup2\n      0xff\n      mul\n      not\n      and\n      swap1\n      dup4\n      iszero\n      iszero\n      mul\n      or\n      swap1\n      sstore\n      pop\n        /* \"contracts/Voting.sol\":2596:2607  _proposalId */\n      dup2\n        /* \"contracts/Voting.sol\":2571:2577  sender */\n      dup2\n        /* \"contracts/Voting.sol\":2571:2593  sender.votedProposalId */\n      0x01\n      add\n        /* \"contracts/Voting.sol\":2571:2607  sender.votedProposalId = _proposalId */\n      dup2\n      swap1\n      sstore\n      pop\n        /* \"contracts/Voting.sol\":2618:2627  proposals */\n      0x02\n        /* \"contracts/Voting.sol\":2628:2639  _proposalId */\n      dup3\n        /* \"contracts/Voting.sol\":2618:2640  proposals[_proposalId] */\n      dup2\n      sload\n      dup2\n      lt\n      tag_113\n      jumpi\n      tag_114\n      tag_115\n      jump\t// in\n    tag_114:\n    tag_113:\n      swap1\n      0x00\n      mstore\n      keccak256(0x00, 0x20)\n      swap1\n      0x02\n      mul\n      add\n        /* \"contracts/Voting.sol\":2618:2650  proposals[_proposalId].voteCount */\n      0x01\n      add\n      0x00\n        /* \"contracts/Voting.sol\":2618:2652  proposals[_proposalId].voteCount++ */\n      dup2\n      sload\n      dup1\n      swap3\n      swap2\n      swap1\n      tag_117\n      swap1\n      tag_118\n      jump\t// in\n    tag_117:\n      swap2\n      swap1\n      pop\n      sstore\n      pop\n        /* \"contracts/Voting.sol\":2163:2660  {... */\n      pop\n        /* \"contracts/Voting.sol\":2111:2660  function voteProposal(uint _proposalId) public... */\n      pop\n      jump\t// out\n        /* \"@openzeppelin/contracts/access/Ownable.sol\":1638:1723  function owner() public view virtual returns (address) {... */\n    tag_34:\n        /* \"@openzeppelin/contracts/access/Ownable.sol\":1684:1691  address */\n      0x00\n        /* \"@openzeppelin/contracts/access/Ownable.sol\":1710:1716  _owner */\n      0x00\n      0x00\n      swap1\n      sload\n      swap1\n      0x0100\n      exp\n      swap1\n      div\n      0xffffffffffffffffffffffffffffffffffffffff\n      and\n        /* \"@openzeppelin/contracts/access/Ownable.sol\":1703:1716  return _owner */\n      swap1\n      pop\n        /* \"@openzeppelin/contracts/access/Ownable.sol\":1638:1723  function owner() public view virtual returns (address) {... */\n      swap1\n      jump\t// out\n        /* \"contracts/Voting.sol\":3010:3155  function getWinner() public view returns (Proposal memory winningProposal)... */\n    tag_38:\n        /* \"contracts/Voting.sol\":3052:3083  Proposal memory winningProposal */\n      tag_120\n      tag_121\n      jump\t// in\n    tag_120:\n        /* \"contracts/Voting.sol\":3119:3128  proposals */\n      0x02\n        /* \"contracts/Voting.sol\":3129:3146  winningProposalId */\n      sload(0x03)\n        /* \"contracts/Voting.sol\":3119:3147  proposals[winningProposalId] */\n      dup2\n      sload\n      dup2\n      lt\n      tag_123\n      jumpi\n      tag_124\n      tag_115\n      jump\t// in\n    tag_124:\n    tag_123:\n      swap1\n      0x00\n      mstore\n      keccak256(0x00, 0x20)\n      swap1\n      0x02\n      mul\n      add\n        /* \"contracts/Voting.sol\":3101:3147  winningProposal = proposals[winningProposalId] */\n      mload(0x40)\n      dup1\n      0x40\n      add\n      0x40\n      mstore\n      swap1\n      dup2\n      0x00\n      dup3\n      add\n      dup1\n      sload\n      tag_126\n      swap1\n      tag_56\n      jump\t// in\n    tag_126:\n      dup1\n      0x1f\n      add\n      0x20\n      dup1\n      swap2\n      div\n      mul\n      0x20\n      add\n      mload(0x40)\n      swap1\n      dup2\n      add\n      0x40\n      mstore\n      dup1\n      swap3\n      swap2\n      swap1\n      dup2\n      dup2\n      mstore\n      0x20\n      add\n      dup3\n      dup1\n      sload\n      tag_127\n      swap1\n      tag_56\n      jump\t// in\n    tag_127:\n      dup1\n      iszero\n      tag_128\n      jumpi\n      dup1\n      0x1f\n      lt\n      tag_129\n      jumpi\n      0x0100\n      dup1\n      dup4\n      sload\n      div\n      mul\n      dup4\n      mstore\n      swap2\n      0x20\n      add\n      swap2\n      jump(tag_128)\n    tag_129:\n      dup3\n      add\n      swap2\n      swap1\n      0x00\n      mstore\n      keccak256(0x00, 0x20)\n      swap1\n    tag_130:\n      dup2\n      sload\n      dup2\n      mstore\n      swap1\n      0x01\n      add\n      swap1\n      0x20\n      add\n      dup1\n      dup4\n      gt\n      tag_130\n      jumpi\n      dup3\n      swap1\n      sub\n      0x1f\n      and\n      dup3\n      add\n      swap2\n    tag_128:\n      pop\n      pop\n      pop\n      pop\n      pop\n      dup2\n      mstore\n      0x20\n      add\n      0x01\n      dup3\n      add\n      sload\n      dup2\n      mstore\n      pop\n      pop\n      swap1\n      pop\n        /* \"contracts/Voting.sol\":3010:3155  function getWinner() public view returns (Proposal memory winningProposal)... */\n      swap1\n      jump\t// out\n        /* \"contracts/Voting.sol\":1034:1410  function changeStatus(WorkflowStatus _status) public onlyOwner... */\n    tag_44:\n        /* \"@openzeppelin/contracts/access/Ownable.sol\":1531:1544  _checkOwner() */\n      tag_132\n        /* \"@openzeppelin/contracts/access/Ownable.sol\":1531:1542  _checkOwner */\n      tag_82\n        /* \"@openzeppelin/contracts/access/Ownable.sol\":1531:1544  _checkOwner() */\n      jump\t// in\n    tag_132:\n        /* \"contracts/Voting.sol\":1140:1147  _status */\n      dup1\n        /* \"contracts/Voting.sol\":1121:1147  currentVoteStatus!=_status */\n      0x05\n      dup2\n      gt\n      iszero\n      tag_134\n      jumpi\n      tag_135\n      tag_67\n      jump\t// in\n    tag_135:\n    tag_134:\n        /* \"contracts/Voting.sol\":1121:1138  currentVoteStatus */\n      0x00\n      0x14\n      swap1\n      sload\n      swap1\n      0x0100\n      exp\n      swap1\n      div\n      0xff\n      and\n        /* \"contracts/Voting.sol\":1121:1147  currentVoteStatus!=_status */\n      0x05\n      dup2\n      gt\n      iszero\n      tag_136\n      jumpi\n      tag_137\n      tag_67\n      jump\t// in\n    tag_137:\n    tag_136:\n      sub\n        /* \"contracts/Voting.sol\":1113:1202  require(currentVoteStatus!=_status, \"The status is already the one you're trying to set\") */\n      tag_138\n      jumpi\n      mload(0x40)\n      0x08c379a000000000000000000000000000000000000000000000000000000000\n      dup2\n      mstore\n      0x04\n      add\n      tag_139\n      swap1\n      tag_140\n      jump\t// in\n    tag_139:\n      mload(0x40)\n      dup1\n      swap2\n      sub\n      swap1\n      revert\n    tag_138:\n        /* \"contracts/Voting.sol\":1218:1266  WorkflowStatusChange(currentVoteStatus, _status) */\n      0x0a97a4ee45751e2abf3e4fc8946939630b11b371ea8ae39ccdc3056e98f5cc3f\n        /* \"contracts/Voting.sol\":1239:1256  currentVoteStatus */\n      0x00\n      0x14\n      swap1\n      sload\n      swap1\n      0x0100\n      exp\n      swap1\n      div\n      0xff\n      and\n        /* \"contracts/Voting.sol\":1258:1265  _status */\n      dup3\n        /* \"contracts/Voting.sol\":1218:1266  WorkflowStatusChange(currentVoteStatus, _status) */\n      mload(0x40)\n      tag_141\n      swap3\n      swap2\n      swap1\n      tag_142\n      jump\t// in\n    tag_141:\n      mload(0x40)\n      dup1\n      swap2\n      sub\n      swap1\n      log1\n        /* \"contracts/Voting.sol\":1297:1304  _status */\n      dup1\n        /* \"contracts/Voting.sol\":1277:1294  currentVoteStatus */\n      0x00\n      0x14\n        /* \"contracts/Voting.sol\":1277:1304  currentVoteStatus = _status */\n      0x0100\n      exp\n      dup2\n      sload\n      dup2\n      0xff\n      mul\n      not\n      and\n      swap1\n      dup4\n      0x05\n      dup2\n      gt\n      iszero\n      tag_143\n      jumpi\n      tag_144\n      tag_67\n      jump\t// in\n    tag_144:\n    tag_143:\n      mul\n      or\n      swap1\n      sstore\n      pop\n        /* \"contracts/Voting.sol\":1343:1370  WorkflowStatus.VotesTallied */\n      0x05\n        /* \"contracts/Voting.sol\":1322:1370  currentVoteStatus == WorkflowStatus.VotesTallied */\n      dup1\n      dup2\n      gt\n      iszero\n      tag_145\n      jumpi\n      tag_146\n      tag_67\n      jump\t// in\n    tag_146:\n    tag_145:\n        /* \"contracts/Voting.sol\":1322:1339  currentVoteStatus */\n      0x00\n      0x14\n      swap1\n      sload\n      swap1\n      0x0100\n      exp\n      swap1\n      div\n      0xff\n      and\n        /* \"contracts/Voting.sol\":1322:1370  currentVoteStatus == WorkflowStatus.VotesTallied */\n      0x05\n      dup2\n      gt\n      iszero\n      tag_147\n      jumpi\n      tag_148\n      tag_67\n      jump\t// in\n    tag_148:\n    tag_147:\n      sub\n        /* \"contracts/Voting.sol\":1319:1402  if(currentVoteStatus == WorkflowStatus.VotesTallied)... */\n      tag_149\n      jumpi\n        /* \"contracts/Voting.sol\":1385:1402  calculateResult() */\n      tag_150\n        /* \"contracts/Voting.sol\":1385:1400  calculateResult */\n      tag_151\n        /* \"contracts/Voting.sol\":1385:1402  calculateResult() */\n      jump\t// in\n    tag_150:\n        /* \"contracts/Voting.sol\":1319:1402  if(currentVoteStatus == WorkflowStatus.VotesTallied)... */\n    tag_149:\n        /* \"contracts/Voting.sol\":1034:1410  function changeStatus(WorkflowStatus _status) public onlyOwner... */\n      pop\n      jump\t// out\n        /* \"contracts/Voting.sol\":677:719  mapping(address => Voter) public whitelist */\n    tag_47:\n      mstore(0x20, 0x01)\n      dup1\n      0x00\n      mstore\n      keccak256(0x00, 0x40)\n      0x00\n      swap2\n      pop\n      swap1\n      pop\n      dup1\n      0x00\n      add\n      0x00\n      swap1\n      sload\n      swap1\n      0x0100\n      exp\n      swap1\n      div\n      0xff\n      and\n      swap1\n      dup1\n      0x00\n      add\n      0x01\n      swap1\n      sload\n      swap1\n      0x0100\n      exp\n      swap1\n      div\n      0xff\n      and\n      swap1\n      dup1\n      0x01\n      add\n      sload\n      swap1\n      pop\n      dup4\n      jump\t// out\n        /* \"@openzeppelin/contracts/access/Ownable.sol\":2543:2758  function transferOwnership(address newOwner) public virtual onlyOwner {... */\n    tag_52:\n        /* \"@openzeppelin/contracts/access/Ownable.sol\":1531:1544  _checkOwner() */\n      tag_153\n        /* \"@openzeppelin/contracts/access/Ownable.sol\":1531:1542  _checkOwner */\n      tag_82\n        /* \"@openzeppelin/contracts/access/Ownable.sol\":1531:1544  _checkOwner() */\n      jump\t// in\n    tag_153:\n        /* \"@openzeppelin/contracts/access/Ownable.sol\":2647:2648  0 */\n      0x00\n        /* \"@openzeppelin/contracts/access/Ownable.sol\":2627:2649  newOwner == address(0) */\n      0xffffffffffffffffffffffffffffffffffffffff\n      and\n        /* \"@openzeppelin/contracts/access/Ownable.sol\":2627:2635  newOwner */\n      dup2\n        /* \"@openzeppelin/contracts/access/Ownable.sol\":2627:2649  newOwner == address(0) */\n      0xffffffffffffffffffffffffffffffffffffffff\n      and\n      sub\n        /* \"@openzeppelin/contracts/access/Ownable.sol\":2623:2714  if (newOwner == address(0)) {... */\n      tag_155\n      jumpi\n        /* \"@openzeppelin/contracts/access/Ownable.sol\":2700:2701  0 */\n      0x00\n        /* \"@openzeppelin/contracts/access/Ownable.sol\":2672:2703  OwnableInvalidOwner(address(0)) */\n      mload(0x40)\n      0x1e4fbdf700000000000000000000000000000000000000000000000000000000\n      dup2\n      mstore\n      0x04\n      add\n      tag_156\n      swap2\n      swap1\n      tag_36\n      jump\t// in\n    tag_156:\n      mload(0x40)\n      dup1\n      swap2\n      sub\n      swap1\n      revert\n        /* \"@openzeppelin/contracts/access/Ownable.sol\":2623:2714  if (newOwner == address(0)) {... */\n    tag_155:\n        /* \"@openzeppelin/contracts/access/Ownable.sol\":2723:2751  _transferOwnership(newOwner) */\n      tag_157\n        /* \"@openzeppelin/contracts/access/Ownable.sol\":2742:2750  newOwner */\n      dup2\n        /* \"@openzeppelin/contracts/access/Ownable.sol\":2723:2741  _transferOwnership */\n      tag_96\n        /* \"@openzeppelin/contracts/access/Ownable.sol\":2723:2751  _transferOwnership(newOwner) */\n      jump\t// in\n    tag_157:\n        /* \"@openzeppelin/contracts/access/Ownable.sol\":2543:2758  function transferOwnership(address newOwner) public virtual onlyOwner {... */\n      pop\n      jump\t// out\n        /* \"@openzeppelin/contracts/access/Ownable.sol\":1796:1958  function _checkOwner() internal view virtual {... */\n    tag_82:\n        /* \"@openzeppelin/contracts/access/Ownable.sol\":1866:1878  _msgSender() */\n      tag_159\n        /* \"@openzeppelin/contracts/access/Ownable.sol\":1866:1876  _msgSender */\n      tag_160\n        /* \"@openzeppelin/contracts/access/Ownable.sol\":1866:1878  _msgSender() */\n      jump\t// in\n    tag_159:\n        /* \"@openzeppelin/contracts/access/Ownable.sol\":1855:1878  owner() != _msgSender() */\n      0xffffffffffffffffffffffffffffffffffffffff\n      and\n        /* \"@openzeppelin/contracts/access/Ownable.sol\":1855:1862  owner() */\n      tag_161\n        /* \"@openzeppelin/contracts/access/Ownable.sol\":1855:1860  owner */\n      tag_34\n        /* \"@openzeppelin/contracts/access/Ownable.sol\":1855:1862  owner() */\n      jump\t// in\n    tag_161:\n        /* \"@openzeppelin/contracts/access/Ownable.sol\":1855:1878  owner() != _msgSender() */\n      0xffffffffffffffffffffffffffffffffffffffff\n      and\n      eq\n        /* \"@openzeppelin/contracts/access/Ownable.sol\":1851:1952  if (owner() != _msgSender()) {... */\n      tag_162\n      jumpi\n        /* \"@openzeppelin/contracts/access/Ownable.sol\":1928:1940  _msgSender() */\n      tag_163\n        /* \"@openzeppelin/contracts/access/Ownable.sol\":1928:1938  _msgSender */\n      tag_160\n        /* \"@openzeppelin/contracts/access/Ownable.sol\":1928:1940  _msgSender() */\n      jump\t// in\n    tag_163:\n        /* \"@openzeppelin/contracts/access/Ownable.sol\":1901:1941  OwnableUnauthorizedAccount(_msgSender()) */\n      mload(0x40)\n      0x118cdaa700000000000000000000000000000000000000000000000000000000\n      dup2\n      mstore\n      0x04\n      add\n      tag_164\n      swap2\n      swap1\n      tag_36\n      jump\t// in\n    tag_164:\n      mload(0x40)\n      dup1\n      swap2\n      sub\n      swap1\n      revert\n        /* \"@openzeppelin/contracts/access/Ownable.sol\":1851:1952  if (owner() != _msgSender()) {... */\n    tag_162:\n        /* \"@openzeppelin/contracts/access/Ownable.sol\":1796:1958  function _checkOwner() internal view virtual {... */\n      jump\t// out\n        /* \"@openzeppelin/contracts/access/Ownable.sol\":2912:3099  function _transferOwnership(address newOwner) internal virtual {... */\n    tag_96:\n        /* \"@openzeppelin/contracts/access/Ownable.sol\":2985:3001  address oldOwner */\n      0x00\n        /* \"@openzeppelin/contracts/access/Ownable.sol\":3004:3010  _owner */\n      0x00\n      0x00\n      swap1\n      sload\n      swap1\n      0x0100\n      exp\n      swap1\n      div\n      0xffffffffffffffffffffffffffffffffffffffff\n      and\n        /* \"@openzeppelin/contracts/access/Ownable.sol\":2985:3010  address oldOwner = _owner */\n      swap1\n      pop\n        /* \"@openzeppelin/contracts/access/Ownable.sol\":3029:3037  newOwner */\n      dup2\n        /* \"@openzeppelin/contracts/access/Ownable.sol\":3020:3026  _owner */\n      0x00\n      0x00\n        /* \"@openzeppelin/contracts/access/Ownable.sol\":3020:3037  _owner = newOwner */\n      0x0100\n      exp\n      dup2\n      sload\n      dup2\n      0xffffffffffffffffffffffffffffffffffffffff\n      mul\n      not\n      and\n      swap1\n      dup4\n      0xffffffffffffffffffffffffffffffffffffffff\n      and\n      mul\n      or\n      swap1\n      sstore\n      pop\n        /* \"@openzeppelin/contracts/access/Ownable.sol\":3083:3091  newOwner */\n      dup2\n        /* \"@openzeppelin/contracts/access/Ownable.sol\":3052:3092  OwnershipTransferred(oldOwner, newOwner) */\n      0xffffffffffffffffffffffffffffffffffffffff\n      and\n        /* \"@openzeppelin/contracts/access/Ownable.sol\":3073:3081  oldOwner */\n      dup2\n        /* \"@openzeppelin/contracts/access/Ownable.sol\":3052:3092  OwnershipTransferred(oldOwner, newOwner) */\n      0xffffffffffffffffffffffffffffffffffffffff\n      and\n      0x8be0079c531659141344cd1fd0a4f28419497f9722a3daafe3b4186f6b6457e0\n      mload(0x40)\n      mload(0x40)\n      dup1\n      swap2\n      sub\n      swap1\n      log3\n        /* \"@openzeppelin/contracts/access/Ownable.sol\":2975:3099  {... */\n      pop\n        /* \"@openzeppelin/contracts/access/Ownable.sol\":2912:3099  function _transferOwnership(address newOwner) internal virtual {... */\n      pop\n      jump\t// out\n        /* \"contracts/Voting.sol\":2668:3002  function calculateResult() internal... */\n    tag_151:\n        /* \"contracts/Voting.sol\":2726:2747  uint winningVoteCount */\n      0x00\n        /* \"contracts/Voting.sol\":2750:2751  0 */\n      0x00\n        /* \"contracts/Voting.sol\":2726:2751  uint winningVoteCount = 0 */\n      swap1\n      pop\n        /* \"contracts/Voting.sol\":2767:2773  uint p */\n      0x00\n        /* \"contracts/Voting.sol\":2776:2777  0 */\n      0x00\n        /* \"contracts/Voting.sol\":2767:2777  uint p = 0 */\n      swap1\n      pop\n        /* \"contracts/Voting.sol\":2762:2995  for (uint p = 0; p < proposals.length; p++) {... */\n    tag_167:\n        /* \"contracts/Voting.sol\":2783:2792  proposals */\n      0x02\n        /* \"contracts/Voting.sol\":2783:2799  proposals.length */\n      dup1\n      sload\n      swap1\n      pop\n        /* \"contracts/Voting.sol\":2779:2780  p */\n      dup2\n        /* \"contracts/Voting.sol\":2779:2799  p < proposals.length */\n      lt\n        /* \"contracts/Voting.sol\":2762:2995  for (uint p = 0; p < proposals.length; p++) {... */\n      iszero\n      tag_168\n      jumpi\n        /* \"contracts/Voting.sol\":2850:2866  winningVoteCount */\n      dup2\n        /* \"contracts/Voting.sol\":2825:2834  proposals */\n      0x02\n        /* \"contracts/Voting.sol\":2835:2836  p */\n      dup3\n        /* \"contracts/Voting.sol\":2825:2837  proposals[p] */\n      dup2\n      sload\n      dup2\n      lt\n      tag_170\n      jumpi\n      tag_171\n      tag_115\n      jump\t// in\n    tag_171:\n    tag_170:\n      swap1\n      0x00\n      mstore\n      keccak256(0x00, 0x20)\n      swap1\n      0x02\n      mul\n      add\n        /* \"contracts/Voting.sol\":2825:2847  proposals[p].voteCount */\n      0x01\n      add\n      sload\n        /* \"contracts/Voting.sol\":2825:2866  proposals[p].voteCount > winningVoteCount */\n      gt\n        /* \"contracts/Voting.sol\":2821:2984  if (proposals[p].voteCount > winningVoteCount) {... */\n      iszero\n      tag_173\n      jumpi\n        /* \"contracts/Voting.sol\":2906:2915  proposals */\n      0x02\n        /* \"contracts/Voting.sol\":2916:2917  p */\n      dup2\n        /* \"contracts/Voting.sol\":2906:2918  proposals[p] */\n      dup2\n      sload\n      dup2\n      lt\n      tag_174\n      jumpi\n      tag_175\n      tag_115\n      jump\t// in\n    tag_175:\n    tag_174:\n      swap1\n      0x00\n      mstore\n      keccak256(0x00, 0x20)\n      swap1\n      0x02\n      mul\n      add\n        /* \"contracts/Voting.sol\":2906:2928  proposals[p].voteCount */\n      0x01\n      add\n      sload\n        /* \"contracts/Voting.sol\":2887:2928  winningVoteCount = proposals[p].voteCount */\n      swap2\n      pop\n        /* \"contracts/Voting.sol\":2967:2968  p */\n      dup1\n        /* \"contracts/Voting.sol\":2947:2964  winningProposalId */\n      0x03\n        /* \"contracts/Voting.sol\":2947:2968  winningProposalId = p */\n      dup2\n      swap1\n      sstore\n      pop\n        /* \"contracts/Voting.sol\":2821:2984  if (proposals[p].voteCount > winningVoteCount) {... */\n    tag_173:\n        /* \"contracts/Voting.sol\":2801:2804  p++ */\n      dup1\n      dup1\n      0x01\n      add\n      swap2\n      pop\n      pop\n        /* \"contracts/Voting.sol\":2762:2995  for (uint p = 0; p < proposals.length; p++) {... */\n      jump(tag_167)\n    tag_168:\n      pop\n        /* \"contracts/Voting.sol\":2709:3002  {      ... */\n      pop\n        /* \"contracts/Voting.sol\":2668:3002  function calculateResult() internal... */\n      jump\t// out\n        /* \"@openzeppelin/contracts/utils/Context.sol\":656:752  function _msgSender() internal view virtual returns (address) {... */\n    tag_160:\n        /* \"@openzeppelin/contracts/utils/Context.sol\":709:716  address */\n      0x00\n        /* \"@openzeppelin/contracts/utils/Context.sol\":735:745  msg.sender */\n      caller\n        /* \"@openzeppelin/contracts/utils/Context.sol\":728:745  return msg.sender */\n      swap1\n      pop\n        /* \"@openzeppelin/contracts/utils/Context.sol\":656:752  function _msgSender() internal view virtual returns (address) {... */\n      swap1\n      jump\t// out\n    tag_121:\n      mload(0x40)\n      dup1\n      0x40\n      add\n      0x40\n      mstore\n      dup1\n      0x60\n      dup2\n      mstore\n      0x20\n      add\n      0x00\n      dup2\n      mstore\n      pop\n      swap1\n      jump\t// out\n        /* \"#utility.yul\":7:82   */\n    tag_178:\n        /* \"#utility.yul\":40:46   */\n      0x00\n        /* \"#utility.yul\":73:75   */\n      0x40\n        /* \"#utility.yul\":67:76   */\n      mload\n        /* \"#utility.yul\":57:76   */\n      swap1\n      pop\n        /* \"#utility.yul\":7:82   */\n      swap1\n      jump\t// out\n        /* \"#utility.yul\":88:205   */\n    tag_179:\n        /* \"#utility.yul\":197:198   */\n      0x00\n        /* \"#utility.yul\":194:195   */\n      0x00\n        /* \"#utility.yul\":187:199   */\n      revert\n        /* \"#utility.yul\":211:328   */\n    tag_180:\n        /* \"#utility.yul\":320:321   */\n      0x00\n        /* \"#utility.yul\":317:318   */\n      0x00\n        /* \"#utility.yul\":310:322   */\n      revert\n        /* \"#utility.yul\":334:411   */\n    tag_181:\n        /* \"#utility.yul\":371:378   */\n      0x00\n        /* \"#utility.yul\":400:405   */\n      dup2\n        /* \"#utility.yul\":389:405   */\n      swap1\n      pop\n        /* \"#utility.yul\":334:411   */\n      swap2\n      swap1\n      pop\n      jump\t// out\n        /* \"#utility.yul\":417:539   */\n    tag_182:\n        /* \"#utility.yul\":490:514   */\n      tag_253\n        /* \"#utility.yul\":508:513   */\n      dup2\n        /* \"#utility.yul\":490:514   */\n      tag_181\n      jump\t// in\n    tag_253:\n        /* \"#utility.yul\":483:488   */\n      dup2\n        /* \"#utility.yul\":480:515   */\n      eq\n        /* \"#utility.yul\":470:533   */\n      tag_254\n      jumpi\n        /* \"#utility.yul\":529:530   */\n      0x00\n        /* \"#utility.yul\":526:527   */\n      0x00\n        /* \"#utility.yul\":519:531   */\n      revert\n        /* \"#utility.yul\":470:533   */\n    tag_254:\n        /* \"#utility.yul\":417:539   */\n      pop\n      jump\t// out\n        /* \"#utility.yul\":545:684   */\n    tag_183:\n        /* \"#utility.yul\":591:596   */\n      0x00\n        /* \"#utility.yul\":629:635   */\n      dup2\n        /* \"#utility.yul\":616:636   */\n      calldataload\n        /* \"#utility.yul\":607:636   */\n      swap1\n      pop\n        /* \"#utility.yul\":645:678   */\n      tag_256\n        /* \"#utility.yul\":672:677   */\n      dup2\n        /* \"#utility.yul\":645:678   */\n      tag_182\n      jump\t// in\n    tag_256:\n        /* \"#utility.yul\":545:684   */\n      swap3\n      swap2\n      pop\n      pop\n      jump\t// out\n        /* \"#utility.yul\":690:1019   */\n    tag_16:\n        /* \"#utility.yul\":749:755   */\n      0x00\n        /* \"#utility.yul\":798:800   */\n      0x20\n        /* \"#utility.yul\":786:795   */\n      dup3\n        /* \"#utility.yul\":777:784   */\n      dup5\n        /* \"#utility.yul\":773:796   */\n      sub\n        /* \"#utility.yul\":769:801   */\n      slt\n        /* \"#utility.yul\":766:885   */\n      iszero\n      tag_258\n      jumpi\n        /* \"#utility.yul\":804:883   */\n      tag_259\n      tag_179\n      jump\t// in\n    tag_259:\n        /* \"#utility.yul\":766:885   */\n    tag_258:\n        /* \"#utility.yul\":924:925   */\n      0x00\n        /* \"#utility.yul\":949:1002   */\n      tag_260\n        /* \"#utility.yul\":994:1001   */\n      dup5\n        /* \"#utility.yul\":985:991   */\n      dup3\n        /* \"#utility.yul\":974:983   */\n      dup6\n        /* \"#utility.yul\":970:992   */\n      add\n        /* \"#utility.yul\":949:1002   */\n      tag_183\n      jump\t// in\n    tag_260:\n        /* \"#utility.yul\":939:1002   */\n      swap2\n      pop\n        /* \"#utility.yul\":895:1012   */\n      pop\n        /* \"#utility.yul\":690:1019   */\n      swap3\n      swap2\n      pop\n      pop\n      jump\t// out\n        /* \"#utility.yul\":1025:1124   */\n    tag_184:\n        /* \"#utility.yul\":1077:1083   */\n      0x00\n        /* \"#utility.yul\":1111:1116   */\n      dup2\n        /* \"#utility.yul\":1105:1117   */\n      mload\n        /* \"#utility.yul\":1095:1117   */\n      swap1\n      pop\n        /* \"#utility.yul\":1025:1124   */\n      swap2\n      swap1\n      pop\n      jump\t// out\n        /* \"#utility.yul\":1130:1299   */\n    tag_185:\n        /* \"#utility.yul\":1214:1225   */\n      0x00\n        /* \"#utility.yul\":1248:1254   */\n      dup3\n        /* \"#utility.yul\":1243:1246   */\n      dup3\n        /* \"#utility.yul\":1236:1255   */\n      mstore\n        /* \"#utility.yul\":1288:1292   */\n      0x20\n        /* \"#utility.yul\":1283:1286   */\n      dup3\n        /* \"#utility.yul\":1279:1293   */\n      add\n        /* \"#utility.yul\":1264:1293   */\n      swap1\n      pop\n        /* \"#utility.yul\":1130:1299   */\n      swap3\n      swap2\n      pop\n      pop\n      jump\t// out\n        /* \"#utility.yul\":1305:1444   */\n    tag_186:\n        /* \"#utility.yul\":1394:1400   */\n      dup3\n        /* \"#utility.yul\":1389:1392   */\n      dup2\n        /* \"#utility.yul\":1384:1387   */\n      dup4\n        /* \"#utility.yul\":1378:1401   */\n      mcopy\n        /* \"#utility.yul\":1435:1436   */\n      0x00\n        /* \"#utility.yul\":1426:1432   */\n      dup4\n        /* \"#utility.yul\":1421:1424   */\n      dup4\n        /* \"#utility.yul\":1417:1433   */\n      add\n        /* \"#utility.yul\":1410:1437   */\n      mstore\n        /* \"#utility.yul\":1305:1444   */\n      pop\n      pop\n      pop\n      jump\t// out\n        /* \"#utility.yul\":1450:1552   */\n    tag_187:\n        /* \"#utility.yul\":1491:1497   */\n      0x00\n        /* \"#utility.yul\":1542:1544   */\n      0x1f\n        /* \"#utility.yul\":1538:1545   */\n      not\n        /* \"#utility.yul\":1533:1535   */\n      0x1f\n        /* \"#utility.yul\":1526:1531   */\n      dup4\n        /* \"#utility.yul\":1522:1536   */\n      add\n        /* \"#utility.yul\":1518:1546   */\n      and\n        /* \"#utility.yul\":1508:1546   */\n      swap1\n      pop\n        /* \"#utility.yul\":1450:1552   */\n      swap2\n      swap1\n      pop\n      jump\t// out\n        /* \"#utility.yul\":1558:1935   */\n    tag_188:\n        /* \"#utility.yul\":1646:1649   */\n      0x00\n        /* \"#utility.yul\":1674:1713   */\n      tag_266\n        /* \"#utility.yul\":1707:1712   */\n      dup3\n        /* \"#utility.yul\":1674:1713   */\n      tag_184\n      jump\t// in\n    tag_266:\n        /* \"#utility.yul\":1729:1800   */\n      tag_267\n        /* \"#utility.yul\":1793:1799   */\n      dup2\n        /* \"#utility.yul\":1788:1791   */\n      dup6\n        /* \"#utility.yul\":1729:1800   */\n      tag_185\n      jump\t// in\n    tag_267:\n        /* \"#utility.yul\":1722:1800   */\n      swap4\n      pop\n        /* \"#utility.yul\":1809:1874   */\n      tag_268\n        /* \"#utility.yul\":1867:1873   */\n      dup2\n        /* \"#utility.yul\":1862:1865   */\n      dup6\n        /* \"#utility.yul\":1855:1859   */\n      0x20\n        /* \"#utility.yul\":1848:1853   */\n      dup7\n        /* \"#utility.yul\":1844:1860   */\n      add\n        /* \"#utility.yul\":1809:1874   */\n      tag_186\n      jump\t// in\n    tag_268:\n        /* \"#utility.yul\":1899:1928   */\n      tag_269\n        /* \"#utility.yul\":1921:1927   */\n      dup2\n        /* \"#utility.yul\":1899:1928   */\n      tag_187\n      jump\t// in\n    tag_269:\n        /* \"#utility.yul\":1894:1897   */\n      dup5\n        /* \"#utility.yul\":1890:1929   */\n      add\n        /* \"#utility.yul\":1883:1929   */\n      swap2\n      pop\n        /* \"#utility.yul\":1650:1935   */\n      pop\n        /* \"#utility.yul\":1558:1935   */\n      swap3\n      swap2\n      pop\n      pop\n      jump\t// out\n        /* \"#utility.yul\":1941:2059   */\n    tag_189:\n        /* \"#utility.yul\":2028:2052   */\n      tag_271\n        /* \"#utility.yul\":2046:2051   */\n      dup2\n        /* \"#utility.yul\":2028:2052   */\n      tag_181\n      jump\t// in\n    tag_271:\n        /* \"#utility.yul\":2023:2026   */\n      dup3\n        /* \"#utility.yul\":2016:2053   */\n      mstore\n        /* \"#utility.yul\":1941:2059   */\n      pop\n      pop\n      jump\t// out\n        /* \"#utility.yul\":2065:2488   */\n    tag_19:\n        /* \"#utility.yul\":2206:2210   */\n      0x00\n        /* \"#utility.yul\":2244:2246   */\n      0x40\n        /* \"#utility.yul\":2233:2242   */\n      dup3\n        /* \"#utility.yul\":2229:2247   */\n      add\n        /* \"#utility.yul\":2221:2247   */\n      swap1\n      pop\n        /* \"#utility.yul\":2293:2302   */\n      dup2\n        /* \"#utility.yul\":2287:2291   */\n      dup2\n        /* \"#utility.yul\":2283:2303   */\n      sub\n        /* \"#utility.yul\":2279:2280   */\n      0x00\n        /* \"#utility.yul\":2268:2277   */\n      dup4\n        /* \"#utility.yul\":2264:2281   */\n      add\n        /* \"#utility.yul\":2257:2304   */\n      mstore\n        /* \"#utility.yul\":2321:2399   */\n      tag_273\n        /* \"#utility.yul\":2394:2398   */\n      dup2\n        /* \"#utility.yul\":2385:2391   */\n      dup6\n        /* \"#utility.yul\":2321:2399   */\n      tag_188\n      jump\t// in\n    tag_273:\n        /* \"#utility.yul\":2313:2399   */\n      swap1\n      pop\n        /* \"#utility.yul\":2409:2481   */\n      tag_274\n        /* \"#utility.yul\":2477:2479   */\n      0x20\n        /* \"#utility.yul\":2466:2475   */\n      dup4\n        /* \"#utility.yul\":2462:2480   */\n      add\n        /* \"#utility.yul\":2453:2459   */\n      dup5\n        /* \"#utility.yul\":2409:2481   */\n      tag_189\n      jump\t// in\n    tag_274:\n        /* \"#utility.yul\":2065:2488   */\n      swap4\n      swap3\n      pop\n      pop\n      pop\n      jump\t// out\n        /* \"#utility.yul\":2494:2611   */\n    tag_190:\n        /* \"#utility.yul\":2603:2604   */\n      0x00\n        /* \"#utility.yul\":2600:2601   */\n      0x00\n        /* \"#utility.yul\":2593:2605   */\n      revert\n        /* \"#utility.yul\":2617:2734   */\n    tag_191:\n        /* \"#utility.yul\":2726:2727   */\n      0x00\n        /* \"#utility.yul\":2723:2724   */\n      0x00\n        /* \"#utility.yul\":2716:2728   */\n      revert\n        /* \"#utility.yul\":2740:2920   */\n    tag_192:\n        /* \"#utility.yul\":2788:2865   */\n      0x4e487b7100000000000000000000000000000000000000000000000000000000\n        /* \"#utility.yul\":2785:2786   */\n      0x00\n        /* \"#utility.yul\":2778:2866   */\n      mstore\n        /* \"#utility.yul\":2885:2889   */\n      0x41\n        /* \"#utility.yul\":2882:2883   */\n      0x04\n        /* \"#utility.yul\":2875:2890   */\n      mstore\n        /* \"#utility.yul\":2909:2913   */\n      0x24\n        /* \"#utility.yul\":2906:2907   */\n      0x00\n        /* \"#utility.yul\":2899:2914   */\n      revert\n        /* \"#utility.yul\":2926:3207   */\n    tag_193:\n        /* \"#utility.yul\":3009:3036   */\n      tag_279\n        /* \"#utility.yul\":3031:3035   */\n      dup3\n        /* \"#utility.yul\":3009:3036   */\n      tag_187\n      jump\t// in\n    tag_279:\n        /* \"#utility.yul\":3001:3007   */\n      dup2\n        /* \"#utility.yul\":2997:3037   */\n      add\n        /* \"#utility.yul\":3139:3145   */\n      dup2\n        /* \"#utility.yul\":3127:3137   */\n      dup2\n        /* \"#utility.yul\":3124:3146   */\n      lt\n        /* \"#utility.yul\":3103:3121   */\n      0xffffffffffffffff\n        /* \"#utility.yul\":3091:3101   */\n      dup3\n        /* \"#utility.yul\":3088:3122   */\n      gt\n        /* \"#utility.yul\":3085:3147   */\n      or\n        /* \"#utility.yul\":3082:3170   */\n      iszero\n      tag_280\n      jumpi\n        /* \"#utility.yul\":3150:3168   */\n      tag_281\n      tag_192\n      jump\t// in\n    tag_281:\n        /* \"#utility.yul\":3082:3170   */\n    tag_280:\n        /* \"#utility.yul\":3190:3200   */\n      dup1\n        /* \"#utility.yul\":3186:3188   */\n      0x40\n        /* \"#utility.yul\":3179:3201   */\n      mstore\n        /* \"#utility.yul\":2969:3207   */\n      pop\n        /* \"#utility.yul\":2926:3207   */\n      pop\n      pop\n      jump\t// out\n        /* \"#utility.yul\":3213:3342   */\n    tag_194:\n        /* \"#utility.yul\":3247:3253   */\n      0x00\n        /* \"#utility.yul\":3274:3294   */\n      tag_283\n      tag_178\n      jump\t// in\n    tag_283:\n        /* \"#utility.yul\":3264:3294   */\n      swap1\n      pop\n        /* \"#utility.yul\":3303:3336   */\n      tag_284\n        /* \"#utility.yul\":3331:3335   */\n      dup3\n        /* \"#utility.yul\":3323:3329   */\n      dup3\n        /* \"#utility.yul\":3303:3336   */\n      tag_193\n      jump\t// in\n    tag_284:\n        /* \"#utility.yul\":3213:3342   */\n      swap2\n      swap1\n      pop\n      jump\t// out\n        /* \"#utility.yul\":3348:3656   */\n    tag_195:\n        /* \"#utility.yul\":3410:3414   */\n      0x00\n        /* \"#utility.yul\":3500:3518   */\n      0xffffffffffffffff\n        /* \"#utility.yul\":3492:3498   */\n      dup3\n        /* \"#utility.yul\":3489:3519   */\n      gt\n        /* \"#utility.yul\":3486:3542   */\n      iszero\n      tag_286\n      jumpi\n        /* \"#utility.yul\":3522:3540   */\n      tag_287\n      tag_192\n      jump\t// in\n    tag_287:\n        /* \"#utility.yul\":3486:3542   */\n    tag_286:\n        /* \"#utility.yul\":3560:3589   */\n      tag_288\n        /* \"#utility.yul\":3582:3588   */\n      dup3\n        /* \"#utility.yul\":3560:3589   */\n      tag_187\n      jump\t// in\n    tag_288:\n        /* \"#utility.yul\":3552:3589   */\n      swap1\n      pop\n        /* \"#utility.yul\":3644:3648   */\n      0x20\n        /* \"#utility.yul\":3638:3642   */\n      dup2\n        /* \"#utility.yul\":3634:3649   */\n      add\n        /* \"#utility.yul\":3626:3649   */\n      swap1\n      pop\n        /* \"#utility.yul\":3348:3656   */\n      swap2\n      swap1\n      pop\n      jump\t// out\n        /* \"#utility.yul\":3662:3810   */\n    tag_196:\n        /* \"#utility.yul\":3760:3766   */\n      dup3\n        /* \"#utility.yul\":3755:3758   */\n      dup2\n        /* \"#utility.yul\":3750:3753   */\n      dup4\n        /* \"#utility.yul\":3737:3767   */\n      calldatacopy\n        /* \"#utility.yul\":3801:3802   */\n      0x00\n        /* \"#utility.yul\":3792:3798   */\n      dup4\n        /* \"#utility.yul\":3787:3790   */\n      dup4\n        /* \"#utility.yul\":3783:3799   */\n      add\n        /* \"#utility.yul\":3776:3803   */\n      mstore\n        /* \"#utility.yul\":3662:3810   */\n      pop\n      pop\n      pop\n      jump\t// out\n        /* \"#utility.yul\":3816:4241   */\n    tag_197:\n        /* \"#utility.yul\":3894:3899   */\n      0x00\n        /* \"#utility.yul\":3919:3985   */\n      tag_291\n        /* \"#utility.yul\":3935:3984   */\n      tag_292\n        /* \"#utility.yul\":3977:3983   */\n      dup5\n        /* \"#utility.yul\":3935:3984   */\n      tag_195\n      jump\t// in\n    tag_292:\n        /* \"#utility.yul\":3919:3985   */\n      tag_194\n      jump\t// in\n    tag_291:\n        /* \"#utility.yul\":3910:3985   */\n      swap1\n      pop\n        /* \"#utility.yul\":4008:4014   */\n      dup3\n        /* \"#utility.yul\":4001:4006   */\n      dup2\n        /* \"#utility.yul\":3994:4015   */\n      mstore\n        /* \"#utility.yul\":4046:4050   */\n      0x20\n        /* \"#utility.yul\":4039:4044   */\n      dup2\n        /* \"#utility.yul\":4035:4051   */\n      add\n        /* \"#utility.yul\":4084:4087   */\n      dup5\n        /* \"#utility.yul\":4075:4081   */\n      dup5\n        /* \"#utility.yul\":4070:4073   */\n      dup5\n        /* \"#utility.yul\":4066:4082   */\n      add\n        /* \"#utility.yul\":4063:4088   */\n      gt\n        /* \"#utility.yul\":4060:4172   */\n      iszero\n      tag_293\n      jumpi\n        /* \"#utility.yul\":4091:4170   */\n      tag_294\n      tag_191\n      jump\t// in\n    tag_294:\n        /* \"#utility.yul\":4060:4172   */\n    tag_293:\n        /* \"#utility.yul\":4181:4235   */\n      tag_295\n        /* \"#utility.yul\":4228:4234   */\n      dup5\n        /* \"#utility.yul\":4223:4226   */\n      dup3\n        /* \"#utility.yul\":4218:4221   */\n      dup6\n        /* \"#utility.yul\":4181:4235   */\n      tag_196\n      jump\t// in\n    tag_295:\n        /* \"#utility.yul\":3900:4241   */\n      pop\n        /* \"#utility.yul\":3816:4241   */\n      swap4\n      swap3\n      pop\n      pop\n      pop\n      jump\t// out\n        /* \"#utility.yul\":4261:4601   */\n    tag_198:\n        /* \"#utility.yul\":4317:4322   */\n      0x00\n        /* \"#utility.yul\":4366:4369   */\n      dup3\n        /* \"#utility.yul\":4359:4363   */\n      0x1f\n        /* \"#utility.yul\":4351:4357   */\n      dup4\n        /* \"#utility.yul\":4347:4364   */\n      add\n        /* \"#utility.yul\":4343:4370   */\n      slt\n        /* \"#utility.yul\":4333:4455   */\n      tag_297\n      jumpi\n        /* \"#utility.yul\":4374:4453   */\n      tag_298\n      tag_190\n      jump\t// in\n    tag_298:\n        /* \"#utility.yul\":4333:4455   */\n    tag_297:\n        /* \"#utility.yul\":4491:4497   */\n      dup2\n        /* \"#utility.yul\":4478:4498   */\n      calldataload\n        /* \"#utility.yul\":4516:4595   */\n      tag_299\n        /* \"#utility.yul\":4591:4594   */\n      dup5\n        /* \"#utility.yul\":4583:4589   */\n      dup3\n        /* \"#utility.yul\":4576:4580   */\n      0x20\n        /* \"#utility.yul\":4568:4574   */\n      dup7\n        /* \"#utility.yul\":4564:4581   */\n      add\n        /* \"#utility.yul\":4516:4595   */\n      tag_197\n      jump\t// in\n    tag_299:\n        /* \"#utility.yul\":4507:4595   */\n      swap2\n      pop\n        /* \"#utility.yul\":4323:4601   */\n      pop\n        /* \"#utility.yul\":4261:4601   */\n      swap3\n      swap2\n      pop\n      pop\n      jump\t// out\n        /* \"#utility.yul\":4607:5116   */\n    tag_22:\n        /* \"#utility.yul\":4676:4682   */\n      0x00\n        /* \"#utility.yul\":4725:4727   */\n      0x20\n        /* \"#utility.yul\":4713:4722   */\n      dup3\n        /* \"#utility.yul\":4704:4711   */\n      dup5\n        /* \"#utility.yul\":4700:4723   */\n      sub\n        /* \"#utility.yul\":4696:4728   */\n      slt\n        /* \"#utility.yul\":4693:4812   */\n      iszero\n      tag_301\n      jumpi\n        /* \"#utility.yul\":4731:4810   */\n      tag_302\n      tag_179\n      jump\t// in\n    tag_302:\n        /* \"#utility.yul\":4693:4812   */\n    tag_301:\n        /* \"#utility.yul\":4879:4880   */\n      0x00\n        /* \"#utility.yul\":4868:4877   */\n      dup3\n        /* \"#utility.yul\":4864:4881   */\n      add\n        /* \"#utility.yul\":4851:4882   */\n      calldataload\n        /* \"#utility.yul\":4909:4927   */\n      0xffffffffffffffff\n        /* \"#utility.yul\":4901:4907   */\n      dup2\n        /* \"#utility.yul\":4898:4928   */\n      gt\n        /* \"#utility.yul\":4895:5012   */\n      iszero\n      tag_303\n      jumpi\n        /* \"#utility.yul\":4931:5010   */\n      tag_304\n      tag_180\n      jump\t// in\n    tag_304:\n        /* \"#utility.yul\":4895:5012   */\n    tag_303:\n        /* \"#utility.yul\":5036:5099   */\n      tag_305\n        /* \"#utility.yul\":5091:5098   */\n      dup5\n        /* \"#utility.yul\":5082:5088   */\n      dup3\n        /* \"#utility.yul\":5071:5080   */\n      dup6\n        /* \"#utility.yul\":5067:5089   */\n      add\n        /* \"#utility.yul\":5036:5099   */\n      tag_198\n      jump\t// in\n    tag_305:\n        /* \"#utility.yul\":5026:5099   */\n      swap2\n      pop\n        /* \"#utility.yul\":4822:5109   */\n      pop\n        /* \"#utility.yul\":4607:5116   */\n      swap3\n      swap2\n      pop\n      pop\n      jump\t// out\n        /* \"#utility.yul\":5122:5248   */\n    tag_199:\n        /* \"#utility.yul\":5159:5166   */\n      0x00\n        /* \"#utility.yul\":5199:5241   */\n      0xffffffffffffffffffffffffffffffffffffffff\n        /* \"#utility.yul\":5192:5197   */\n      dup3\n        /* \"#utility.yul\":5188:5242   */\n      and\n        /* \"#utility.yul\":5177:5242   */\n      swap1\n      pop\n        /* \"#utility.yul\":5122:5248   */\n      swap2\n      swap1\n      pop\n      jump\t// out\n        /* \"#utility.yul\":5254:5350   */\n    tag_200:\n        /* \"#utility.yul\":5291:5298   */\n      0x00\n        /* \"#utility.yul\":5320:5344   */\n      tag_308\n        /* \"#utility.yul\":5338:5343   */\n      dup3\n        /* \"#utility.yul\":5320:5344   */\n      tag_199\n      jump\t// in\n    tag_308:\n        /* \"#utility.yul\":5309:5344   */\n      swap1\n      pop\n        /* \"#utility.yul\":5254:5350   */\n      swap2\n      swap1\n      pop\n      jump\t// out\n        /* \"#utility.yul\":5356:5478   */\n    tag_201:\n        /* \"#utility.yul\":5429:5453   */\n      tag_310\n        /* \"#utility.yul\":5447:5452   */\n      dup2\n        /* \"#utility.yul\":5429:5453   */\n      tag_200\n      jump\t// in\n    tag_310:\n        /* \"#utility.yul\":5422:5427   */\n      dup2\n        /* \"#utility.yul\":5419:5454   */\n      eq\n        /* \"#utility.yul\":5409:5472   */\n      tag_311\n      jumpi\n        /* \"#utility.yul\":5468:5469   */\n      0x00\n        /* \"#utility.yul\":5465:5466   */\n      0x00\n        /* \"#utility.yul\":5458:5470   */\n      revert\n        /* \"#utility.yul\":5409:5472   */\n    tag_311:\n        /* \"#utility.yul\":5356:5478   */\n      pop\n      jump\t// out\n        /* \"#utility.yul\":5484:5623   */\n    tag_202:\n        /* \"#utility.yul\":5530:5535   */\n      0x00\n        /* \"#utility.yul\":5568:5574   */\n      dup2\n        /* \"#utility.yul\":5555:5575   */\n      calldataload\n        /* \"#utility.yul\":5546:5575   */\n      swap1\n      pop\n        /* \"#utility.yul\":5584:5617   */\n      tag_313\n        /* \"#utility.yul\":5611:5616   */\n      dup2\n        /* \"#utility.yul\":5584:5617   */\n      tag_201\n      jump\t// in\n    tag_313:\n        /* \"#utility.yul\":5484:5623   */\n      swap3\n      swap2\n      pop\n      pop\n      jump\t// out\n        /* \"#utility.yul\":5629:5958   */\n    tag_26:\n        /* \"#utility.yul\":5688:5694   */\n      0x00\n        /* \"#utility.yul\":5737:5739   */\n      0x20\n        /* \"#utility.yul\":5725:5734   */\n      dup3\n        /* \"#utility.yul\":5716:5723   */\n      dup5\n        /* \"#utility.yul\":5712:5735   */\n      sub\n        /* \"#utility.yul\":5708:5740   */\n      slt\n        /* \"#utility.yul\":5705:5824   */\n      iszero\n      tag_315\n      jumpi\n        /* \"#utility.yul\":5743:5822   */\n      tag_316\n      tag_179\n      jump\t// in\n    tag_316:\n        /* \"#utility.yul\":5705:5824   */\n    tag_315:\n        /* \"#utility.yul\":5863:5864   */\n      0x00\n        /* \"#utility.yul\":5888:5941   */\n      tag_317\n        /* \"#utility.yul\":5933:5940   */\n      dup5\n        /* \"#utility.yul\":5924:5930   */\n      dup3\n        /* \"#utility.yul\":5913:5922   */\n      dup6\n        /* \"#utility.yul\":5909:5931   */\n      add\n        /* \"#utility.yul\":5888:5941   */\n      tag_202\n      jump\t// in\n    tag_317:\n        /* \"#utility.yul\":5878:5941   */\n      swap2\n      pop\n        /* \"#utility.yul\":5834:5951   */\n      pop\n        /* \"#utility.yul\":5629:5958   */\n      swap3\n      swap2\n      pop\n      pop\n      jump\t// out\n        /* \"#utility.yul\":5964:6082   */\n    tag_203:\n        /* \"#utility.yul\":6051:6075   */\n      tag_319\n        /* \"#utility.yul\":6069:6074   */\n      dup2\n        /* \"#utility.yul\":6051:6075   */\n      tag_200\n      jump\t// in\n    tag_319:\n        /* \"#utility.yul\":6046:6049   */\n      dup3\n        /* \"#utility.yul\":6039:6076   */\n      mstore\n        /* \"#utility.yul\":5964:6082   */\n      pop\n      pop\n      jump\t// out\n        /* \"#utility.yul\":6088:6310   */\n    tag_36:\n        /* \"#utility.yul\":6181:6185   */\n      0x00\n        /* \"#utility.yul\":6219:6221   */\n      0x20\n        /* \"#utility.yul\":6208:6217   */\n      dup3\n        /* \"#utility.yul\":6204:6222   */\n      add\n        /* \"#utility.yul\":6196:6222   */\n      swap1\n      pop\n        /* \"#utility.yul\":6232:6303   */\n      tag_321\n        /* \"#utility.yul\":6300:6301   */\n      0x00\n        /* \"#utility.yul\":6289:6298   */\n      dup4\n        /* \"#utility.yul\":6285:6302   */\n      add\n        /* \"#utility.yul\":6276:6282   */\n      dup5\n        /* \"#utility.yul\":6232:6303   */\n      tag_203\n      jump\t// in\n    tag_321:\n        /* \"#utility.yul\":6088:6310   */\n      swap3\n      swap2\n      pop\n      pop\n      jump\t// out\n        /* \"#utility.yul\":6316:6475   */\n    tag_204:\n        /* \"#utility.yul\":6390:6401   */\n      0x00\n        /* \"#utility.yul\":6424:6430   */\n      dup3\n        /* \"#utility.yul\":6419:6422   */\n      dup3\n        /* \"#utility.yul\":6412:6431   */\n      mstore\n        /* \"#utility.yul\":6464:6468   */\n      0x20\n        /* \"#utility.yul\":6459:6462   */\n      dup3\n        /* \"#utility.yul\":6455:6469   */\n      add\n        /* \"#utility.yul\":6440:6469   */\n      swap1\n      pop\n        /* \"#utility.yul\":6316:6475   */\n      swap3\n      swap2\n      pop\n      pop\n      jump\t// out\n        /* \"#utility.yul\":6481:6838   */\n    tag_205:\n        /* \"#utility.yul\":6559:6562   */\n      0x00\n        /* \"#utility.yul\":6587:6626   */\n      tag_324\n        /* \"#utility.yul\":6620:6625   */\n      dup3\n        /* \"#utility.yul\":6587:6626   */\n      tag_184\n      jump\t// in\n    tag_324:\n        /* \"#utility.yul\":6642:6703   */\n      tag_325\n        /* \"#utility.yul\":6696:6702   */\n      dup2\n        /* \"#utility.yul\":6691:6694   */\n      dup6\n        /* \"#utility.yul\":6642:6703   */\n      tag_204\n      jump\t// in\n    tag_325:\n        /* \"#utility.yul\":6635:6703   */\n      swap4\n      pop\n        /* \"#utility.yul\":6712:6777   */\n      tag_326\n        /* \"#utility.yul\":6770:6776   */\n      dup2\n        /* \"#utility.yul\":6765:6768   */\n      dup6\n        /* \"#utility.yul\":6758:6762   */\n      0x20\n        /* \"#utility.yul\":6751:6756   */\n      dup7\n        /* \"#utility.yul\":6747:6763   */\n      add\n        /* \"#utility.yul\":6712:6777   */\n      tag_186\n      jump\t// in\n    tag_326:\n        /* \"#utility.yul\":6802:6831   */\n      tag_327\n        /* \"#utility.yul\":6824:6830   */\n      dup2\n        /* \"#utility.yul\":6802:6831   */\n      tag_187\n      jump\t// in\n    tag_327:\n        /* \"#utility.yul\":6797:6800   */\n      dup5\n        /* \"#utility.yul\":6793:6832   */\n      add\n        /* \"#utility.yul\":6786:6832   */\n      swap2\n      pop\n        /* \"#utility.yul\":6563:6838   */\n      pop\n        /* \"#utility.yul\":6481:6838   */\n      swap3\n      swap2\n      pop\n      pop\n      jump\t// out\n        /* \"#utility.yul\":6844:6952   */\n    tag_206:\n        /* \"#utility.yul\":6921:6945   */\n      tag_329\n        /* \"#utility.yul\":6939:6944   */\n      dup2\n        /* \"#utility.yul\":6921:6945   */\n      tag_181\n      jump\t// in\n    tag_329:\n        /* \"#utility.yul\":6916:6919   */\n      dup3\n        /* \"#utility.yul\":6909:6946   */\n      mstore\n        /* \"#utility.yul\":6844:6952   */\n      pop\n      pop\n      jump\t// out\n        /* \"#utility.yul\":7014:7632   */\n    tag_207:\n        /* \"#utility.yul\":7133:7136   */\n      0x00\n        /* \"#utility.yul\":7169:7173   */\n      0x40\n        /* \"#utility.yul\":7164:7167   */\n      dup4\n        /* \"#utility.yul\":7160:7174   */\n      add\n        /* \"#utility.yul\":7263:7267   */\n      0x00\n        /* \"#utility.yul\":7256:7261   */\n      dup4\n        /* \"#utility.yul\":7252:7268   */\n      add\n        /* \"#utility.yul\":7246:7269   */\n      mload\n        /* \"#utility.yul\":7316:7319   */\n      dup5\n        /* \"#utility.yul\":7310:7314   */\n      dup3\n        /* \"#utility.yul\":7306:7320   */\n      sub\n        /* \"#utility.yul\":7299:7303   */\n      0x00\n        /* \"#utility.yul\":7294:7297   */\n      dup7\n        /* \"#utility.yul\":7290:7304   */\n      add\n        /* \"#utility.yul\":7283:7321   */\n      mstore\n        /* \"#utility.yul\":7342:7415   */\n      tag_331\n        /* \"#utility.yul\":7410:7414   */\n      dup3\n        /* \"#utility.yul\":7396:7408   */\n      dup3\n        /* \"#utility.yul\":7342:7415   */\n      tag_205\n      jump\t// in\n    tag_331:\n        /* \"#utility.yul\":7334:7415   */\n      swap2\n      pop\n        /* \"#utility.yul\":7184:7426   */\n      pop\n        /* \"#utility.yul\":7513:7517   */\n      0x20\n        /* \"#utility.yul\":7506:7511   */\n      dup4\n        /* \"#utility.yul\":7502:7518   */\n      add\n        /* \"#utility.yul\":7496:7519   */\n      mload\n        /* \"#utility.yul\":7532:7595   */\n      tag_332\n        /* \"#utility.yul\":7589:7593   */\n      0x20\n        /* \"#utility.yul\":7584:7587   */\n      dup7\n        /* \"#utility.yul\":7580:7594   */\n      add\n        /* \"#utility.yul\":7566:7578   */\n      dup3\n        /* \"#utility.yul\":7532:7595   */\n      tag_206\n      jump\t// in\n    tag_332:\n        /* \"#utility.yul\":7436:7605   */\n      pop\n        /* \"#utility.yul\":7622:7626   */\n      dup1\n        /* \"#utility.yul\":7615:7626   */\n      swap2\n      pop\n        /* \"#utility.yul\":7138:7632   */\n      pop\n        /* \"#utility.yul\":7014:7632   */\n      swap3\n      swap2\n      pop\n      pop\n      jump\t// out\n        /* \"#utility.yul\":7638:8011   */\n    tag_40:\n        /* \"#utility.yul\":7781:7785   */\n      0x00\n        /* \"#utility.yul\":7819:7821   */\n      0x20\n        /* \"#utility.yul\":7808:7817   */\n      dup3\n        /* \"#utility.yul\":7804:7822   */\n      add\n        /* \"#utility.yul\":7796:7822   */\n      swap1\n      pop\n        /* \"#utility.yul\":7868:7877   */\n      dup2\n        /* \"#utility.yul\":7862:7866   */\n      dup2\n        /* \"#utility.yul\":7858:7878   */\n      sub\n        /* \"#utility.yul\":7854:7855   */\n      0x00\n        /* \"#utility.yul\":7843:7852   */\n      dup4\n        /* \"#utility.yul\":7839:7856   */\n      add\n        /* \"#utility.yul\":7832:7879   */\n      mstore\n        /* \"#utility.yul\":7896:8004   */\n      tag_334\n        /* \"#utility.yul\":7999:8003   */\n      dup2\n        /* \"#utility.yul\":7990:7996   */\n      dup5\n        /* \"#utility.yul\":7896:8004   */\n      tag_207\n      jump\t// in\n    tag_334:\n        /* \"#utility.yul\":7888:8004   */\n      swap1\n      pop\n        /* \"#utility.yul\":7638:8011   */\n      swap3\n      swap2\n      pop\n      pop\n      jump\t// out\n        /* \"#utility.yul\":8017:8134   */\n    tag_208:\n        /* \"#utility.yul\":8108:8109   */\n      0x06\n        /* \"#utility.yul\":8101:8106   */\n      dup2\n        /* \"#utility.yul\":8098:8110   */\n      lt\n        /* \"#utility.yul\":8088:8128   */\n      tag_336\n      jumpi\n        /* \"#utility.yul\":8124:8125   */\n      0x00\n        /* \"#utility.yul\":8121:8122   */\n      0x00\n        /* \"#utility.yul\":8114:8126   */\n      revert\n        /* \"#utility.yul\":8088:8128   */\n    tag_336:\n        /* \"#utility.yul\":8017:8134   */\n      pop\n      jump\t// out\n        /* \"#utility.yul\":8140:8315   */\n    tag_209:\n        /* \"#utility.yul\":8204:8209   */\n      0x00\n        /* \"#utility.yul\":8242:8248   */\n      dup2\n        /* \"#utility.yul\":8229:8249   */\n      calldataload\n        /* \"#utility.yul\":8220:8249   */\n      swap1\n      pop\n        /* \"#utility.yul\":8258:8309   */\n      tag_338\n        /* \"#utility.yul\":8303:8308   */\n      dup2\n        /* \"#utility.yul\":8258:8309   */\n      tag_208\n      jump\t// in\n    tag_338:\n        /* \"#utility.yul\":8140:8315   */\n      swap3\n      swap2\n      pop\n      pop\n      jump\t// out\n        /* \"#utility.yul\":8321:8686   */\n    tag_43:\n        /* \"#utility.yul\":8398:8404   */\n      0x00\n        /* \"#utility.yul\":8447:8449   */\n      0x20\n        /* \"#utility.yul\":8435:8444   */\n      dup3\n        /* \"#utility.yul\":8426:8433   */\n      dup5\n        /* \"#utility.yul\":8422:8445   */\n      sub\n        /* \"#utility.yul\":8418:8450   */\n      slt\n        /* \"#utility.yul\":8415:8534   */\n      iszero\n      tag_340\n      jumpi\n        /* \"#utility.yul\":8453:8532   */\n      tag_341\n      tag_179\n      jump\t// in\n    tag_341:\n        /* \"#utility.yul\":8415:8534   */\n    tag_340:\n        /* \"#utility.yul\":8573:8574   */\n      0x00\n        /* \"#utility.yul\":8598:8669   */\n      tag_342\n        /* \"#utility.yul\":8661:8668   */\n      dup5\n        /* \"#utility.yul\":8652:8658   */\n      dup3\n        /* \"#utility.yul\":8641:8650   */\n      dup6\n        /* \"#utility.yul\":8637:8659   */\n      add\n        /* \"#utility.yul\":8598:8669   */\n      tag_209\n      jump\t// in\n    tag_342:\n        /* \"#utility.yul\":8588:8669   */\n      swap2\n      pop\n        /* \"#utility.yul\":8544:8679   */\n      pop\n        /* \"#utility.yul\":8321:8686   */\n      swap3\n      swap2\n      pop\n      pop\n      jump\t// out\n        /* \"#utility.yul\":8692:8782   */\n    tag_210:\n        /* \"#utility.yul\":8726:8733   */\n      0x00\n        /* \"#utility.yul\":8769:8774   */\n      dup2\n        /* \"#utility.yul\":8762:8775   */\n      iszero\n        /* \"#utility.yul\":8755:8776   */\n      iszero\n        /* \"#utility.yul\":8744:8776   */\n      swap1\n      pop\n        /* \"#utility.yul\":8692:8782   */\n      swap2\n      swap1\n      pop\n      jump\t// out\n        /* \"#utility.yul\":8788:8897   */\n    tag_211:\n        /* \"#utility.yul\":8869:8890   */\n      tag_345\n        /* \"#utility.yul\":8884:8889   */\n      dup2\n        /* \"#utility.yul\":8869:8890   */\n      tag_210\n      jump\t// in\n    tag_345:\n        /* \"#utility.yul\":8864:8867   */\n      dup3\n        /* \"#utility.yul\":8857:8891   */\n      mstore\n        /* \"#utility.yul\":8788:8897   */\n      pop\n      pop\n      jump\t// out\n        /* \"#utility.yul\":8903:9321   */\n    tag_49:\n        /* \"#utility.yul\":9040:9044   */\n      0x00\n        /* \"#utility.yul\":9078:9080   */\n      0x60\n        /* \"#utility.yul\":9067:9076   */\n      dup3\n        /* \"#utility.yul\":9063:9081   */\n      add\n        /* \"#utility.yul\":9055:9081   */\n      swap1\n      pop\n        /* \"#utility.yul\":9091:9156   */\n      tag_347\n        /* \"#utility.yul\":9153:9154   */\n      0x00\n        /* \"#utility.yul\":9142:9151   */\n      dup4\n        /* \"#utility.yul\":9138:9155   */\n      add\n        /* \"#utility.yul\":9129:9135   */\n      dup7\n        /* \"#utility.yul\":9091:9156   */\n      tag_211\n      jump\t// in\n    tag_347:\n        /* \"#utility.yul\":9166:9232   */\n      tag_348\n        /* \"#utility.yul\":9228:9230   */\n      0x20\n        /* \"#utility.yul\":9217:9226   */\n      dup4\n        /* \"#utility.yul\":9213:9231   */\n      add\n        /* \"#utility.yul\":9204:9210   */\n      dup6\n        /* \"#utility.yul\":9166:9232   */\n      tag_211\n      jump\t// in\n    tag_348:\n        /* \"#utility.yul\":9242:9314   */\n      tag_349\n        /* \"#utility.yul\":9310:9312   */\n      0x40\n        /* \"#utility.yul\":9299:9308   */\n      dup4\n        /* \"#utility.yul\":9295:9313   */\n      add\n        /* \"#utility.yul\":9286:9292   */\n      dup5\n        /* \"#utility.yul\":9242:9314   */\n      tag_189\n      jump\t// in\n    tag_349:\n        /* \"#utility.yul\":8903:9321   */\n      swap5\n      swap4\n      pop\n      pop\n      pop\n      pop\n      jump\t// out\n        /* \"#utility.yul\":9327:9507   */\n    tag_212:\n        /* \"#utility.yul\":9375:9452   */\n      0x4e487b7100000000000000000000000000000000000000000000000000000000\n        /* \"#utility.yul\":9372:9373   */\n      0x00\n        /* \"#utility.yul\":9365:9453   */\n      mstore\n        /* \"#utility.yul\":9472:9476   */\n      0x22\n        /* \"#utility.yul\":9469:9470   */\n      0x04\n        /* \"#utility.yul\":9462:9477   */\n      mstore\n        /* \"#utility.yul\":9496:9500   */\n      0x24\n        /* \"#utility.yul\":9493:9494   */\n      0x00\n        /* \"#utility.yul\":9486:9501   */\n      revert\n        /* \"#utility.yul\":9513:9833   */\n    tag_56:\n        /* \"#utility.yul\":9557:9563   */\n      0x00\n        /* \"#utility.yul\":9594:9595   */\n      0x02\n        /* \"#utility.yul\":9588:9592   */\n      dup3\n        /* \"#utility.yul\":9584:9596   */\n      div\n        /* \"#utility.yul\":9574:9596   */\n      swap1\n      pop\n        /* \"#utility.yul\":9641:9642   */\n      0x01\n        /* \"#utility.yul\":9635:9639   */\n      dup3\n        /* \"#utility.yul\":9631:9643   */\n      and\n        /* \"#utility.yul\":9662:9680   */\n      dup1\n        /* \"#utility.yul\":9652:9733   */\n      tag_352\n      jumpi\n        /* \"#utility.yul\":9718:9722   */\n      0x7f\n        /* \"#utility.yul\":9710:9716   */\n      dup3\n        /* \"#utility.yul\":9706:9723   */\n      and\n        /* \"#utility.yul\":9696:9723   */\n      swap2\n      pop\n        /* \"#utility.yul\":9652:9733   */\n    tag_352:\n        /* \"#utility.yul\":9780:9782   */\n      0x20\n        /* \"#utility.yul\":9772:9778   */\n      dup3\n        /* \"#utility.yul\":9769:9783   */\n      lt\n        /* \"#utility.yul\":9749:9767   */\n      dup2\n        /* \"#utility.yul\":9746:9784   */\n      sub\n        /* \"#utility.yul\":9743:9827   */\n      tag_353\n      jumpi\n        /* \"#utility.yul\":9799:9817   */\n      tag_354\n      tag_212\n      jump\t// in\n    tag_354:\n        /* \"#utility.yul\":9743:9827   */\n    tag_353:\n        /* \"#utility.yul\":9564:9833   */\n      pop\n        /* \"#utility.yul\":9513:9833   */\n      swap2\n      swap1\n      pop\n      jump\t// out\n        /* \"#utility.yul\":9839:10059   */\n    tag_213:\n        /* \"#utility.yul\":9979:10013   */\n      0x596f7520617265206e6f742072656769737465726564206173206120566f7465\n        /* \"#utility.yul\":9975:9976   */\n      0x00\n        /* \"#utility.yul\":9967:9973   */\n      dup3\n        /* \"#utility.yul\":9963:9977   */\n      add\n        /* \"#utility.yul\":9956:10014   */\n      mstore\n        /* \"#utility.yul\":10048:10051   */\n      0x7200000000000000000000000000000000000000000000000000000000000000\n        /* \"#utility.yul\":10043:10045   */\n      0x20\n        /* \"#utility.yul\":10035:10041   */\n      dup3\n        /* \"#utility.yul\":10031:10046   */\n      add\n        /* \"#utility.yul\":10024:10052   */\n      mstore\n        /* \"#utility.yul\":9839:10059   */\n      pop\n      jump\t// out\n        /* \"#utility.yul\":10065:10431   */\n    tag_214:\n        /* \"#utility.yul\":10207:10210   */\n      0x00\n        /* \"#utility.yul\":10228:10295   */\n      tag_357\n        /* \"#utility.yul\":10292:10294   */\n      0x21\n        /* \"#utility.yul\":10287:10290   */\n      dup4\n        /* \"#utility.yul\":10228:10295   */\n      tag_185\n      jump\t// in\n    tag_357:\n        /* \"#utility.yul\":10221:10295   */\n      swap2\n      pop\n        /* \"#utility.yul\":10304:10397   */\n      tag_358\n        /* \"#utility.yul\":10393:10396   */\n      dup3\n        /* \"#utility.yul\":10304:10397   */\n      tag_213\n      jump\t// in\n    tag_358:\n        /* \"#utility.yul\":10422:10424   */\n      0x40\n        /* \"#utility.yul\":10417:10420   */\n      dup3\n        /* \"#utility.yul\":10413:10425   */\n      add\n        /* \"#utility.yul\":10406:10425   */\n      swap1\n      pop\n        /* \"#utility.yul\":10065:10431   */\n      swap2\n      swap1\n      pop\n      jump\t// out\n        /* \"#utility.yul\":10437:10856   */\n    tag_64:\n        /* \"#utility.yul\":10603:10607   */\n      0x00\n        /* \"#utility.yul\":10641:10643   */\n      0x20\n        /* \"#utility.yul\":10630:10639   */\n      dup3\n        /* \"#utility.yul\":10626:10644   */\n      add\n        /* \"#utility.yul\":10618:10644   */\n      swap1\n      pop\n        /* \"#utility.yul\":10690:10699   */\n      dup2\n        /* \"#utility.yul\":10684:10688   */\n      dup2\n        /* \"#utility.yul\":10680:10700   */\n      sub\n        /* \"#utility.yul\":10676:10677   */\n      0x00\n        /* \"#utility.yul\":10665:10674   */\n      dup4\n        /* \"#utility.yul\":10661:10678   */\n      add\n        /* \"#utility.yul\":10654:10701   */\n      mstore\n        /* \"#utility.yul\":10718:10849   */\n      tag_360\n        /* \"#utility.yul\":10844:10848   */\n      dup2\n        /* \"#utility.yul\":10718:10849   */\n      tag_214\n      jump\t// in\n    tag_360:\n        /* \"#utility.yul\":10710:10849   */\n      swap1\n      pop\n        /* \"#utility.yul\":10437:10856   */\n      swap2\n      swap1\n      pop\n      jump\t// out\n        /* \"#utility.yul\":10862:11042   */\n    tag_67:\n        /* \"#utility.yul\":10910:10987   */\n      0x4e487b7100000000000000000000000000000000000000000000000000000000\n        /* \"#utility.yul\":10907:10908   */\n      0x00\n        /* \"#utility.yul\":10900:10988   */\n      mstore\n        /* \"#utility.yul\":11007:11011   */\n      0x21\n        /* \"#utility.yul\":11004:11005   */\n      0x04\n        /* \"#utility.yul\":10997:11012   */\n      mstore\n        /* \"#utility.yul\":11031:11035   */\n      0x24\n        /* \"#utility.yul\":11028:11029   */\n      0x00\n        /* \"#utility.yul\":11021:11036   */\n      revert\n        /* \"#utility.yul\":11048:11268   */\n    tag_215:\n        /* \"#utility.yul\":11188:11222   */\n      0x50726f706f73616c20726567697374726174696f6e206973206e6f74206f7065\n        /* \"#utility.yul\":11184:11185   */\n      0x00\n        /* \"#utility.yul\":11176:11182   */\n      dup3\n        /* \"#utility.yul\":11172:11186   */\n      add\n        /* \"#utility.yul\":11165:11223   */\n      mstore\n        /* \"#utility.yul\":11257:11260   */\n      0x6e00000000000000000000000000000000000000000000000000000000000000\n        /* \"#utility.yul\":11252:11254   */\n      0x20\n        /* \"#utility.yul\":11244:11250   */\n      dup3\n        /* \"#utility.yul\":11240:11255   */\n      add\n        /* \"#utility.yul\":11233:11261   */\n      mstore\n        /* \"#utility.yul\":11048:11268   */\n      pop\n      jump\t// out\n        /* \"#utility.yul\":11274:11640   */\n    tag_216:\n        /* \"#utility.yul\":11416:11419   */\n      0x00\n        /* \"#utility.yul\":11437:11504   */\n      tag_364\n        /* \"#utility.yul\":11501:11503   */\n      0x21\n        /* \"#utility.yul\":11496:11499   */\n      dup4\n        /* \"#utility.yul\":11437:11504   */\n      tag_185\n      jump\t// in\n    tag_364:\n        /* \"#utility.yul\":11430:11504   */\n      swap2\n      pop\n        /* \"#utility.yul\":11513:11606   */\n      tag_365\n        /* \"#utility.yul\":11602:11605   */\n      dup3\n        /* \"#utility.yul\":11513:11606   */\n      tag_215\n      jump\t// in\n    tag_365:\n        /* \"#utility.yul\":11631:11633   */\n      0x40\n        /* \"#utility.yul\":11626:11629   */\n      dup3\n        /* \"#utility.yul\":11622:11634   */\n      add\n        /* \"#utility.yul\":11615:11634   */\n      swap1\n      pop\n        /* \"#utility.yul\":11274:11640   */\n      swap2\n      swap1\n      pop\n      jump\t// out\n        /* \"#utility.yul\":11646:12065   */\n    tag_72:\n        /* \"#utility.yul\":11812:11816   */\n      0x00\n        /* \"#utility.yul\":11850:11852   */\n      0x20\n        /* \"#utility.yul\":11839:11848   */\n      dup3\n        /* \"#utility.yul\":11835:11853   */\n      add\n        /* \"#utility.yul\":11827:11853   */\n      swap1\n      pop\n        /* \"#utility.yul\":11899:11908   */\n      dup2\n        /* \"#utility.yul\":11893:11897   */\n      dup2\n        /* \"#utility.yul\":11889:11909   */\n      sub\n        /* \"#utility.yul\":11885:11886   */\n      0x00\n        /* \"#utility.yul\":11874:11883   */\n      dup4\n        /* \"#utility.yul\":11870:11887   */\n      add\n        /* \"#utility.yul\":11863:11910   */\n      mstore\n        /* \"#utility.yul\":11927:12058   */\n      tag_367\n        /* \"#utility.yul\":12053:12057   */\n      dup2\n        /* \"#utility.yul\":11927:12058   */\n      tag_216\n      jump\t// in\n    tag_367:\n        /* \"#utility.yul\":11919:12058   */\n      swap1\n      pop\n        /* \"#utility.yul\":11646:12065   */\n      swap2\n      swap1\n      pop\n      jump\t// out\n        /* \"#utility.yul\":12071:12212   */\n    tag_217:\n        /* \"#utility.yul\":12120:12124   */\n      0x00\n        /* \"#utility.yul\":12143:12146   */\n      dup2\n        /* \"#utility.yul\":12135:12146   */\n      swap1\n      pop\n        /* \"#utility.yul\":12166:12169   */\n      dup2\n        /* \"#utility.yul\":12163:12164   */\n      0x00\n        /* \"#utility.yul\":12156:12170   */\n      mstore\n        /* \"#utility.yul\":12200:12204   */\n      0x20\n        /* \"#utility.yul\":12197:12198   */\n      0x00\n        /* \"#utility.yul\":12187:12205   */\n      keccak256\n        /* \"#utility.yul\":12179:12205   */\n      swap1\n      pop\n        /* \"#utility.yul\":12071:12212   */\n      swap2\n      swap1\n      pop\n      jump\t// out\n        /* \"#utility.yul\":12218:12311   */\n    tag_218:\n        /* \"#utility.yul\":12255:12261   */\n      0x00\n        /* \"#utility.yul\":12302:12304   */\n      0x20\n        /* \"#utility.yul\":12297:12299   */\n      0x1f\n        /* \"#utility.yul\":12290:12295   */\n      dup4\n        /* \"#utility.yul\":12286:12300   */\n      add\n        /* \"#utility.yul\":12282:12305   */\n      div\n        /* \"#utility.yul\":12272:12305   */\n      swap1\n      pop\n        /* \"#utility.yul\":12218:12311   */\n      swap2\n      swap1\n      pop\n      jump\t// out\n        /* \"#utility.yul\":12317:12424   */\n    tag_219:\n        /* \"#utility.yul\":12361:12369   */\n      0x00\n        /* \"#utility.yul\":12411:12416   */\n      dup3\n        /* \"#utility.yul\":12405:12409   */\n      dup3\n        /* \"#utility.yul\":12401:12417   */\n      shl\n        /* \"#utility.yul\":12380:12417   */\n      swap1\n      pop\n        /* \"#utility.yul\":12317:12424   */\n      swap3\n      swap2\n      pop\n      pop\n      jump\t// out\n        /* \"#utility.yul\":12430:12823   */\n    tag_220:\n        /* \"#utility.yul\":12499:12505   */\n      0x00\n        /* \"#utility.yul\":12549:12550   */\n      0x08\n        /* \"#utility.yul\":12537:12547   */\n      dup4\n        /* \"#utility.yul\":12533:12551   */\n      mul\n        /* \"#utility.yul\":12572:12669   */\n      tag_372\n        /* \"#utility.yul\":12602:12668   */\n      0xffffffffffffffffffffffffffffffffffffffffffffffffffffffffffffffff\n        /* \"#utility.yul\":12591:12600   */\n      dup3\n        /* \"#utility.yul\":12572:12669   */\n      tag_219\n      jump\t// in\n    tag_372:\n        /* \"#utility.yul\":12690:12729   */\n      tag_373\n        /* \"#utility.yul\":12720:12728   */\n      dup7\n        /* \"#utility.yul\":12709:12718   */\n      dup4\n        /* \"#utility.yul\":12690:12729   */\n      tag_219\n      jump\t// in\n    tag_373:\n        /* \"#utility.yul\":12678:12729   */\n      swap6\n      pop\n        /* \"#utility.yul\":12762:12766   */\n      dup1\n        /* \"#utility.yul\":12758:12767   */\n      not\n        /* \"#utility.yul\":12751:12756   */\n      dup5\n        /* \"#utility.yul\":12747:12768   */\n      and\n        /* \"#utility.yul\":12738:12768   */\n      swap4\n      pop\n        /* \"#utility.yul\":12811:12815   */\n      dup1\n        /* \"#utility.yul\":12801:12809   */\n      dup7\n        /* \"#utility.yul\":12797:12816   */\n      and\n        /* \"#utility.yul\":12790:12795   */\n      dup5\n        /* \"#utility.yul\":12787:12817   */\n      or\n        /* \"#utility.yul\":12777:12817   */\n      swap3\n      pop\n        /* \"#utility.yul\":12506:12823   */\n      pop\n      pop\n        /* \"#utility.yul\":12430:12823   */\n      swap4\n      swap3\n      pop\n      pop\n      pop\n      jump\t// out\n        /* \"#utility.yul\":12829:12889   */\n    tag_221:\n        /* \"#utility.yul\":12857:12860   */\n      0x00\n        /* \"#utility.yul\":12878:12883   */\n      dup2\n        /* \"#utility.yul\":12871:12883   */\n      swap1\n      pop\n        /* \"#utility.yul\":12829:12889   */\n      swap2\n      swap1\n      pop\n      jump\t// out\n        /* \"#utility.yul\":12895:13037   */\n    tag_222:\n        /* \"#utility.yul\":12945:12954   */\n      0x00\n        /* \"#utility.yul\":12978:13031   */\n      tag_376\n        /* \"#utility.yul\":12996:13030   */\n      tag_377\n        /* \"#utility.yul\":13005:13029   */\n      tag_378\n        /* \"#utility.yul\":13023:13028   */\n      dup5\n        /* \"#utility.yul\":13005:13029   */\n      tag_181\n      jump\t// in\n    tag_378:\n        /* \"#utility.yul\":12996:13030   */\n      tag_221\n      jump\t// in\n    tag_377:\n        /* \"#utility.yul\":12978:13031   */\n      tag_181\n      jump\t// in\n    tag_376:\n        /* \"#utility.yul\":12965:13031   */\n      swap1\n      pop\n        /* \"#utility.yul\":12895:13037   */\n      swap2\n      swap1\n      pop\n      jump\t// out\n        /* \"#utility.yul\":13043:13118   */\n    tag_223:\n        /* \"#utility.yul\":13086:13089   */\n      0x00\n        /* \"#utility.yul\":13107:13112   */\n      dup2\n        /* \"#utility.yul\":13100:13112   */\n      swap1\n      pop\n        /* \"#utility.yul\":13043:13118   */\n      swap2\n      swap1\n      pop\n      jump\t// out\n        /* \"#utility.yul\":13124:13393   */\n    tag_224:\n        /* \"#utility.yul\":13234:13273   */\n      tag_381\n        /* \"#utility.yul\":13265:13272   */\n      dup4\n        /* \"#utility.yul\":13234:13273   */\n      tag_222\n      jump\t// in\n    tag_381:\n        /* \"#utility.yul\":13295:13386   */\n      tag_382\n        /* \"#utility.yul\":13344:13385   */\n      tag_383\n        /* \"#utility.yul\":13368:13384   */\n      dup3\n        /* \"#utility.yul\":13344:13385   */\n      tag_223\n      jump\t// in\n    tag_383:\n        /* \"#utility.yul\":13336:13342   */\n      dup5\n        /* \"#utility.yul\":13329:13333   */\n      dup5\n        /* \"#utility.yul\":13323:13334   */\n      sload\n        /* \"#utility.yul\":13295:13386   */\n      tag_220\n      jump\t// in\n    tag_382:\n        /* \"#utility.yul\":13289:13293   */\n      dup3\n        /* \"#utility.yul\":13282:13387   */\n      sstore\n        /* \"#utility.yul\":13200:13393   */\n      pop\n        /* \"#utility.yul\":13124:13393   */\n      pop\n      pop\n      pop\n      jump\t// out\n        /* \"#utility.yul\":13399:13472   */\n    tag_225:\n        /* \"#utility.yul\":13444:13447   */\n      0x00\n        /* \"#utility.yul\":13465:13466   */\n      0x00\n        /* \"#utility.yul\":13458:13466   */\n      swap1\n      pop\n        /* \"#utility.yul\":13399:13472   */\n      swap1\n      jump\t// out\n        /* \"#utility.yul\":13478:13667   */\n    tag_226:\n        /* \"#utility.yul\":13555:13587   */\n      tag_386\n      tag_225\n      jump\t// in\n    tag_386:\n        /* \"#utility.yul\":13596:13661   */\n      tag_387\n        /* \"#utility.yul\":13654:13660   */\n      dup2\n        /* \"#utility.yul\":13646:13652   */\n      dup5\n        /* \"#utility.yul\":13640:13644   */\n      dup5\n        /* \"#utility.yul\":13596:13661   */\n      tag_224\n      jump\t// in\n    tag_387:\n        /* \"#utility.yul\":13531:13667   */\n      pop\n        /* \"#utility.yul\":13478:13667   */\n      pop\n      pop\n      jump\t// out\n        /* \"#utility.yul\":13673:13859   */\n    tag_227:\n        /* \"#utility.yul\":13733:13853   */\n    tag_389:\n        /* \"#utility.yul\":13750:13753   */\n      dup2\n        /* \"#utility.yul\":13743:13748   */\n      dup2\n        /* \"#utility.yul\":13740:13754   */\n      lt\n        /* \"#utility.yul\":13733:13853   */\n      iszero\n      tag_391\n      jumpi\n        /* \"#utility.yul\":13804:13843   */\n      tag_392\n        /* \"#utility.yul\":13841:13842   */\n      0x00\n        /* \"#utility.yul\":13834:13839   */\n      dup3\n        /* \"#utility.yul\":13804:13843   */\n      tag_226\n      jump\t// in\n    tag_392:\n        /* \"#utility.yul\":13777:13778   */\n      0x01\n        /* \"#utility.yul\":13770:13775   */\n      dup2\n        /* \"#utility.yul\":13766:13779   */\n      add\n        /* \"#utility.yul\":13757:13779   */\n      swap1\n      pop\n        /* \"#utility.yul\":13733:13853   */\n      jump(tag_389)\n    tag_391:\n        /* \"#utility.yul\":13673:13859   */\n      pop\n      pop\n      jump\t// out\n        /* \"#utility.yul\":13865:14408   */\n    tag_228:\n        /* \"#utility.yul\":13966:13968   */\n      0x1f\n        /* \"#utility.yul\":13961:13964   */\n      dup3\n        /* \"#utility.yul\":13958:13969   */\n      gt\n        /* \"#utility.yul\":13955:14401   */\n      iszero\n      tag_394\n      jumpi\n        /* \"#utility.yul\":14000:14038   */\n      tag_395\n        /* \"#utility.yul\":14032:14037   */\n      dup2\n        /* \"#utility.yul\":14000:14038   */\n      tag_217\n      jump\t// in\n    tag_395:\n        /* \"#utility.yul\":14084:14113   */\n      tag_396\n        /* \"#utility.yul\":14102:14112   */\n      dup5\n        /* \"#utility.yul\":14084:14113   */\n      tag_218\n      jump\t// in\n    tag_396:\n        /* \"#utility.yul\":14074:14082   */\n      dup2\n        /* \"#utility.yul\":14070:14114   */\n      add\n        /* \"#utility.yul\":14267:14269   */\n      0x20\n        /* \"#utility.yul\":14255:14265   */\n      dup6\n        /* \"#utility.yul\":14252:14270   */\n      lt\n        /* \"#utility.yul\":14249:14298   */\n      iszero\n      tag_397\n      jumpi\n        /* \"#utility.yul\":14288:14296   */\n      dup2\n        /* \"#utility.yul\":14273:14296   */\n      swap1\n      pop\n        /* \"#utility.yul\":14249:14298   */\n    tag_397:\n        /* \"#utility.yul\":14311:14391   */\n      tag_398\n        /* \"#utility.yul\":14367:14389   */\n      tag_399\n        /* \"#utility.yul\":14385:14388   */\n      dup6\n        /* \"#utility.yul\":14367:14389   */\n      tag_218\n      jump\t// in\n    tag_399:\n        /* \"#utility.yul\":14357:14365   */\n      dup4\n        /* \"#utility.yul\":14353:14390   */\n      add\n        /* \"#utility.yul\":14340:14351   */\n      dup3\n        /* \"#utility.yul\":14311:14391   */\n      tag_227\n      jump\t// in\n    tag_398:\n        /* \"#utility.yul\":13970:14401   */\n      pop\n      pop\n        /* \"#utility.yul\":13955:14401   */\n    tag_394:\n        /* \"#utility.yul\":13865:14408   */\n      pop\n      pop\n      pop\n      jump\t// out\n        /* \"#utility.yul\":14414:14531   */\n    tag_229:\n        /* \"#utility.yul\":14468:14476   */\n      0x00\n        /* \"#utility.yul\":14518:14523   */\n      dup3\n        /* \"#utility.yul\":14512:14516   */\n      dup3\n        /* \"#utility.yul\":14508:14524   */\n      shr\n        /* \"#utility.yul\":14487:14524   */\n      swap1\n      pop\n        /* \"#utility.yul\":14414:14531   */\n      swap3\n      swap2\n      pop\n      pop\n      jump\t// out\n        /* \"#utility.yul\":14537:14706   */\n    tag_230:\n        /* \"#utility.yul\":14581:14587   */\n      0x00\n        /* \"#utility.yul\":14614:14665   */\n      tag_402\n        /* \"#utility.yul\":14662:14663   */\n      0x00\n        /* \"#utility.yul\":14658:14664   */\n      not\n        /* \"#utility.yul\":14650:14655   */\n      dup5\n        /* \"#utility.yul\":14647:14648   */\n      0x08\n        /* \"#utility.yul\":14643:14656   */\n      mul\n        /* \"#utility.yul\":14614:14665   */\n      tag_229\n      jump\t// in\n    tag_402:\n        /* \"#utility.yul\":14610:14666   */\n      not\n        /* \"#utility.yul\":14695:14699   */\n      dup1\n        /* \"#utility.yul\":14689:14693   */\n      dup4\n        /* \"#utility.yul\":14685:14700   */\n      and\n        /* \"#utility.yul\":14675:14700   */\n      swap2\n      pop\n        /* \"#utility.yul\":14588:14706   */\n      pop\n        /* \"#utility.yul\":14537:14706   */\n      swap3\n      swap2\n      pop\n      pop\n      jump\t// out\n        /* \"#utility.yul\":14711:15006   */\n    tag_231:\n        /* \"#utility.yul\":14787:14791   */\n      0x00\n        /* \"#utility.yul\":14933:14962   */\n      tag_404\n        /* \"#utility.yul\":14958:14961   */\n      dup4\n        /* \"#utility.yul\":14952:14956   */\n      dup4\n        /* \"#utility.yul\":14933:14962   */\n      tag_230\n      jump\t// in\n    tag_404:\n        /* \"#utility.yul\":14925:14962   */\n      swap2\n      pop\n        /* \"#utility.yul\":14995:14998   */\n      dup3\n        /* \"#utility.yul\":14992:14993   */\n      0x02\n        /* \"#utility.yul\":14988:14999   */\n      mul\n        /* \"#utility.yul\":14982:14986   */\n      dup3\n        /* \"#utility.yul\":14979:15000   */\n      or\n        /* \"#utility.yul\":14971:15000   */\n      swap1\n      pop\n        /* \"#utility.yul\":14711:15006   */\n      swap3\n      swap2\n      pop\n      pop\n      jump\t// out\n        /* \"#utility.yul\":15011:16406   */\n    tag_75:\n        /* \"#utility.yul\":15128:15165   */\n      tag_406\n        /* \"#utility.yul\":15161:15164   */\n      dup3\n        /* \"#utility.yul\":15128:15165   */\n      tag_184\n      jump\t// in\n    tag_406:\n        /* \"#utility.yul\":15230:15248   */\n      0xffffffffffffffff\n        /* \"#utility.yul\":15222:15228   */\n      dup2\n        /* \"#utility.yul\":15219:15249   */\n      gt\n        /* \"#utility.yul\":15216:15272   */\n      iszero\n      tag_407\n      jumpi\n        /* \"#utility.yul\":15252:15270   */\n      tag_408\n      tag_192\n      jump\t// in\n    tag_408:\n        /* \"#utility.yul\":15216:15272   */\n    tag_407:\n        /* \"#utility.yul\":15296:15334   */\n      tag_409\n        /* \"#utility.yul\":15328:15332   */\n      dup3\n        /* \"#utility.yul\":15322:15333   */\n      sload\n        /* \"#utility.yul\":15296:15334   */\n      tag_56\n      jump\t// in\n    tag_409:\n        /* \"#utility.yul\":15381:15448   */\n      tag_410\n        /* \"#utility.yul\":15441:15447   */\n      dup3\n        /* \"#utility.yul\":15433:15439   */\n      dup3\n        /* \"#utility.yul\":15427:15431   */\n      dup6\n        /* \"#utility.yul\":15381:15448   */\n      tag_228\n      jump\t// in\n    tag_410:\n        /* \"#utility.yul\":15475:15476   */\n      0x00\n        /* \"#utility.yul\":15499:15503   */\n      0x20\n        /* \"#utility.yul\":15486:15503   */\n      swap1\n      pop\n        /* \"#utility.yul\":15531:15533   */\n      0x1f\n        /* \"#utility.yul\":15523:15529   */\n      dup4\n        /* \"#utility.yul\":15520:15534   */\n      gt\n        /* \"#utility.yul\":15548:15549   */\n      0x01\n        /* \"#utility.yul\":15543:16161   */\n      dup2\n      eq\n      tag_412\n      jumpi\n        /* \"#utility.yul\":16205:16206   */\n      0x00\n        /* \"#utility.yul\":16222:16228   */\n      dup5\n        /* \"#utility.yul\":16219:16296   */\n      iszero\n      tag_413\n      jumpi\n        /* \"#utility.yul\":16271:16280   */\n      dup3\n        /* \"#utility.yul\":16266:16269   */\n      dup8\n        /* \"#utility.yul\":16262:16281   */\n      add\n        /* \"#utility.yul\":16256:16282   */\n      mload\n        /* \"#utility.yul\":16247:16282   */\n      swap1\n      pop\n        /* \"#utility.yul\":16219:16296   */\n    tag_413:\n        /* \"#utility.yul\":16322:16389   */\n      tag_414\n        /* \"#utility.yul\":16382:16388   */\n      dup6\n        /* \"#utility.yul\":16375:16380   */\n      dup3\n        /* \"#utility.yul\":16322:16389   */\n      tag_231\n      jump\t// in\n    tag_414:\n        /* \"#utility.yul\":16316:16320   */\n      dup7\n        /* \"#utility.yul\":16309:16390   */\n      sstore\n        /* \"#utility.yul\":16178:16400   */\n      pop\n        /* \"#utility.yul\":15513:16400   */\n      jump(tag_411)\n        /* \"#utility.yul\":15543:16161   */\n    tag_412:\n        /* \"#utility.yul\":15595:15599   */\n      0x1f\n        /* \"#utility.yul\":15591:15600   */\n      not\n        /* \"#utility.yul\":15583:15589   */\n      dup5\n        /* \"#utility.yul\":15579:15601   */\n      and\n        /* \"#utility.yul\":15629:15666   */\n      tag_415\n        /* \"#utility.yul\":15661:15665   */\n      dup7\n        /* \"#utility.yul\":15629:15666   */\n      tag_217\n      jump\t// in\n    tag_415:\n        /* \"#utility.yul\":15688:15689   */\n      0x00\n        /* \"#utility.yul\":15702:15910   */\n    tag_416:\n        /* \"#utility.yul\":15716:15723   */\n      dup3\n        /* \"#utility.yul\":15713:15714   */\n      dup2\n        /* \"#utility.yul\":15710:15724   */\n      lt\n        /* \"#utility.yul\":15702:15910   */\n      iszero\n      tag_418\n      jumpi\n        /* \"#utility.yul\":15795:15804   */\n      dup5\n        /* \"#utility.yul\":15790:15793   */\n      dup10\n        /* \"#utility.yul\":15786:15805   */\n      add\n        /* \"#utility.yul\":15780:15806   */\n      mload\n        /* \"#utility.yul\":15772:15778   */\n      dup3\n        /* \"#utility.yul\":15765:15807   */\n      sstore\n        /* \"#utility.yul\":15846:15847   */\n      0x01\n        /* \"#utility.yul\":15838:15844   */\n      dup3\n        /* \"#utility.yul\":15834:15848   */\n      add\n        /* \"#utility.yul\":15824:15848   */\n      swap2\n      pop\n        /* \"#utility.yul\":15893:15895   */\n      0x20\n        /* \"#utility.yul\":15882:15891   */\n      dup6\n        /* \"#utility.yul\":15878:15896   */\n      add\n        /* \"#utility.yul\":15865:15896   */\n      swap5\n      pop\n        /* \"#utility.yul\":15739:15743   */\n      0x20\n        /* \"#utility.yul\":15736:15737   */\n      dup2\n        /* \"#utility.yul\":15732:15744   */\n      add\n        /* \"#utility.yul\":15727:15744   */\n      swap1\n      pop\n        /* \"#utility.yul\":15702:15910   */\n      jump(tag_416)\n    tag_418:\n        /* \"#utility.yul\":15938:15944   */\n      dup7\n        /* \"#utility.yul\":15929:15936   */\n      dup4\n        /* \"#utility.yul\":15926:15945   */\n      lt\n        /* \"#utility.yul\":15923:16102   */\n      iszero\n      tag_419\n      jumpi\n        /* \"#utility.yul\":15996:16005   */\n      dup5\n        /* \"#utility.yul\":15991:15994   */\n      dup10\n        /* \"#utility.yul\":15987:16006   */\n      add\n        /* \"#utility.yul\":15981:16007   */\n      mload\n        /* \"#utility.yul\":16039:16087   */\n      tag_420\n        /* \"#utility.yul\":16081:16085   */\n      0x1f\n        /* \"#utility.yul\":16073:16079   */\n      dup10\n        /* \"#utility.yul\":16069:16086   */\n      and\n        /* \"#utility.yul\":16058:16067   */\n      dup3\n        /* \"#utility.yul\":16039:16087   */\n      tag_230\n      jump\t// in\n    tag_420:\n        /* \"#utility.yul\":16031:16037   */\n      dup4\n        /* \"#utility.yul\":16024:16088   */\n      sstore\n        /* \"#utility.yul\":15946:16102   */\n      pop\n        /* \"#utility.yul\":15923:16102   */\n    tag_419:\n        /* \"#utility.yul\":16148:16149   */\n      0x01\n        /* \"#utility.yul\":16144:16145   */\n      0x02\n        /* \"#utility.yul\":16136:16142   */\n      dup9\n        /* \"#utility.yul\":16132:16146   */\n      mul\n        /* \"#utility.yul\":16128:16150   */\n      add\n        /* \"#utility.yul\":16122:16126   */\n      dup9\n        /* \"#utility.yul\":16115:16151   */\n      sstore\n        /* \"#utility.yul\":15550:16161   */\n      pop\n      pop\n      pop\n        /* \"#utility.yul\":15513:16400   */\n    tag_411:\n      pop\n        /* \"#utility.yul\":15103:16406   */\n      pop\n      pop\n      pop\n        /* \"#utility.yul\":15011:16406   */\n      pop\n      pop\n      jump\t// out\n        /* \"#utility.yul\":16412:16592   */\n    tag_232:\n        /* \"#utility.yul\":16460:16537   */\n      0x4e487b7100000000000000000000000000000000000000000000000000000000\n        /* \"#utility.yul\":16457:16458   */\n      0x00\n        /* \"#utility.yul\":16450:16538   */\n      mstore\n        /* \"#utility.yul\":16557:16561   */\n      0x11\n        /* \"#utility.yul\":16554:16555   */\n      0x04\n        /* \"#utility.yul\":16547:16562   */\n      mstore\n        /* \"#utility.yul\":16581:16585   */\n      0x24\n        /* \"#utility.yul\":16578:16579   */\n      0x00\n        /* \"#utility.yul\":16571:16586   */\n      revert\n        /* \"#utility.yul\":16598:16792   */\n    tag_77:\n        /* \"#utility.yul\":16638:16642   */\n      0x00\n        /* \"#utility.yul\":16658:16678   */\n      tag_423\n        /* \"#utility.yul\":16676:16677   */\n      dup3\n        /* \"#utility.yul\":16658:16678   */\n      tag_181\n      jump\t// in\n    tag_423:\n        /* \"#utility.yul\":16653:16678   */\n      swap2\n      pop\n        /* \"#utility.yul\":16692:16712   */\n      tag_424\n        /* \"#utility.yul\":16710:16711   */\n      dup4\n        /* \"#utility.yul\":16692:16712   */\n      tag_181\n      jump\t// in\n    tag_424:\n        /* \"#utility.yul\":16687:16712   */\n      swap3\n      pop\n        /* \"#utility.yul\":16736:16737   */\n      dup3\n        /* \"#utility.yul\":16733:16734   */\n      dup3\n        /* \"#utility.yul\":16729:16738   */\n      sub\n        /* \"#utility.yul\":16721:16738   */\n      swap1\n      pop\n        /* \"#utility.yul\":16760:16761   */\n      dup2\n        /* \"#utility.yul\":16754:16758   */\n      dup2\n        /* \"#utility.yul\":16751:16762   */\n      gt\n        /* \"#utility.yul\":16748:16785   */\n      iszero\n      tag_425\n      jumpi\n        /* \"#utility.yul\":16765:16783   */\n      tag_426\n      tag_232\n      jump\t// in\n    tag_426:\n        /* \"#utility.yul\":16748:16785   */\n    tag_425:\n        /* \"#utility.yul\":16598:16792   */\n      swap3\n      swap2\n      pop\n      pop\n      jump\t// out\n        /* \"#utility.yul\":16798:17020   */\n    tag_79:\n        /* \"#utility.yul\":16891:16895   */\n      0x00\n        /* \"#utility.yul\":16929:16931   */\n      0x20\n        /* \"#utility.yul\":16918:16927   */\n      dup3\n        /* \"#utility.yul\":16914:16932   */\n      add\n        /* \"#utility.yul\":16906:16932   */\n      swap1\n      pop\n        /* \"#utility.yul\":16942:17013   */\n      tag_428\n        /* \"#utility.yul\":17010:17011   */\n      0x00\n        /* \"#utility.yul\":16999:17008   */\n      dup4\n        /* \"#utility.yul\":16995:17012   */\n      add\n        /* \"#utility.yul\":16986:16992   */\n      dup5\n        /* \"#utility.yul\":16942:17013   */\n      tag_189\n      jump\t// in\n    tag_428:\n        /* \"#utility.yul\":16798:17020   */\n      swap3\n      swap2\n      pop\n      pop\n      jump\t// out\n        /* \"#utility.yul\":17026:17206   */\n    tag_233:\n        /* \"#utility.yul\":17166:17198   */\n      0x54686520726567697374726174696f6e207068617365206973206f7665720000\n        /* \"#utility.yul\":17162:17163   */\n      0x00\n        /* \"#utility.yul\":17154:17160   */\n      dup3\n        /* \"#utility.yul\":17150:17164   */\n      add\n        /* \"#utility.yul\":17143:17199   */\n      mstore\n        /* \"#utility.yul\":17026:17206   */\n      pop\n      jump\t// out\n        /* \"#utility.yul\":17212:17578   */\n    tag_234:\n        /* \"#utility.yul\":17354:17357   */\n      0x00\n        /* \"#utility.yul\":17375:17442   */\n      tag_431\n        /* \"#utility.yul\":17439:17441   */\n      0x1e\n        /* \"#utility.yul\":17434:17437   */\n      dup4\n        /* \"#utility.yul\":17375:17442   */\n      tag_185\n      jump\t// in\n    tag_431:\n        /* \"#utility.yul\":17368:17442   */\n      swap2\n      pop\n        /* \"#utility.yul\":17451:17544   */\n      tag_432\n        /* \"#utility.yul\":17540:17543   */\n      dup3\n        /* \"#utility.yul\":17451:17544   */\n      tag_233\n      jump\t// in\n    tag_432:\n        /* \"#utility.yul\":17569:17571   */\n      0x20\n        /* \"#utility.yul\":17564:17567   */\n      dup3\n        /* \"#utility.yul\":17560:17572   */\n      add\n        /* \"#utility.yul\":17553:17572   */\n      swap1\n      pop\n        /* \"#utility.yul\":17212:17578   */\n      swap2\n      swap1\n      pop\n      jump\t// out\n        /* \"#utility.yul\":17584:18003   */\n    tag_90:\n        /* \"#utility.yul\":17750:17754   */\n      0x00\n        /* \"#utility.yul\":17788:17790   */\n      0x20\n        /* \"#utility.yul\":17777:17786   */\n      dup3\n        /* \"#utility.yul\":17773:17791   */\n      add\n        /* \"#utility.yul\":17765:17791   */\n      swap1\n      pop\n        /* \"#utility.yul\":17837:17846   */\n      dup2\n        /* \"#utility.yul\":17831:17835   */\n      dup2\n        /* \"#utility.yul\":17827:17847   */\n      sub\n        /* \"#utility.yul\":17823:17824   */\n      0x00\n        /* \"#utility.yul\":17812:17821   */\n      dup4\n        /* \"#utility.yul\":17808:17825   */\n      add\n        /* \"#utility.yul\":17801:17848   */\n      mstore\n        /* \"#utility.yul\":17865:17996   */\n      tag_434\n        /* \"#utility.yul\":17991:17995   */\n      dup2\n        /* \"#utility.yul\":17865:17996   */\n      tag_234\n      jump\t// in\n    tag_434:\n        /* \"#utility.yul\":17857:17996   */\n      swap1\n      pop\n        /* \"#utility.yul\":17584:18003   */\n      swap2\n      swap1\n      pop\n      jump\t// out\n        /* \"#utility.yul\":18009:18186   */\n    tag_235:\n        /* \"#utility.yul\":18149:18178   */\n      0x566f74652073657373696f6e206973206e6f7420737461727465640000000000\n        /* \"#utility.yul\":18145:18146   */\n      0x00\n        /* \"#utility.yul\":18137:18143   */\n      dup3\n        /* \"#utility.yul\":18133:18147   */\n      add\n        /* \"#utility.yul\":18126:18179   */\n      mstore\n        /* \"#utility.yul\":18009:18186   */\n      pop\n      jump\t// out\n        /* \"#utility.yul\":18192:18558   */\n    tag_236:\n        /* \"#utility.yul\":18334:18337   */\n      0x00\n        /* \"#utility.yul\":18355:18422   */\n      tag_437\n        /* \"#utility.yul\":18419:18421   */\n      0x1b\n        /* \"#utility.yul\":18414:18417   */\n      dup4\n        /* \"#utility.yul\":18355:18422   */\n      tag_185\n      jump\t// in\n    tag_437:\n        /* \"#utility.yul\":18348:18422   */\n      swap2\n      pop\n        /* \"#utility.yul\":18431:18524   */\n      tag_438\n        /* \"#utility.yul\":18520:18523   */\n      dup3\n        /* \"#utility.yul\":18431:18524   */\n      tag_235\n      jump\t// in\n    tag_438:\n        /* \"#utility.yul\":18549:18551   */\n      0x20\n        /* \"#utility.yul\":18544:18547   */\n      dup3\n        /* \"#utility.yul\":18540:18552   */\n      add\n        /* \"#utility.yul\":18533:18552   */\n      swap1\n      pop\n        /* \"#utility.yul\":18192:18558   */\n      swap2\n      swap1\n      pop\n      jump\t// out\n        /* \"#utility.yul\":18564:18983   */\n    tag_104:\n        /* \"#utility.yul\":18730:18734   */\n      0x00\n        /* \"#utility.yul\":18768:18770   */\n      0x20\n        /* \"#utility.yul\":18757:18766   */\n      dup3\n        /* \"#utility.yul\":18753:18771   */\n      add\n        /* \"#utility.yul\":18745:18771   */\n      swap1\n      pop\n        /* \"#utility.yul\":18817:18826   */\n      dup2\n        /* \"#utility.yul\":18811:18815   */\n      dup2\n        /* \"#utility.yul\":18807:18827   */\n      sub\n        /* \"#utility.yul\":18803:18804   */\n      0x00\n        /* \"#utility.yul\":18792:18801   */\n      dup4\n        /* \"#utility.yul\":18788:18805   */\n      add\n        /* \"#utility.yul\":18781:18828   */\n      mstore\n        /* \"#utility.yul\":18845:18976   */\n      tag_440\n        /* \"#utility.yul\":18971:18975   */\n      dup2\n        /* \"#utility.yul\":18845:18976   */\n      tag_236\n      jump\t// in\n    tag_440:\n        /* \"#utility.yul\":18837:18976   */\n      swap1\n      pop\n        /* \"#utility.yul\":18564:18983   */\n      swap2\n      swap1\n      pop\n      jump\t// out\n        /* \"#utility.yul\":18989:19161   */\n    tag_237:\n        /* \"#utility.yul\":19129:19153   */\n      0x557365722068617320616c726561647920766f74656400000000000000000000\n        /* \"#utility.yul\":19125:19126   */\n      0x00\n        /* \"#utility.yul\":19117:19123   */\n      dup3\n        /* \"#utility.yul\":19113:19127   */\n      add\n        /* \"#utility.yul\":19106:19154   */\n      mstore\n        /* \"#utility.yul\":18989:19161   */\n      pop\n      jump\t// out\n        /* \"#utility.yul\":19167:19533   */\n    tag_238:\n        /* \"#utility.yul\":19309:19312   */\n      0x00\n        /* \"#utility.yul\":19330:19397   */\n      tag_443\n        /* \"#utility.yul\":19394:19396   */\n      0x16\n        /* \"#utility.yul\":19389:19392   */\n      dup4\n        /* \"#utility.yul\":19330:19397   */\n      tag_185\n      jump\t// in\n    tag_443:\n        /* \"#utility.yul\":19323:19397   */\n      swap2\n      pop\n        /* \"#utility.yul\":19406:19499   */\n      tag_444\n        /* \"#utility.yul\":19495:19498   */\n      dup3\n        /* \"#utility.yul\":19406:19499   */\n      tag_237\n      jump\t// in\n    tag_444:\n        /* \"#utility.yul\":19524:19526   */\n      0x20\n        /* \"#utility.yul\":19519:19522   */\n      dup3\n        /* \"#utility.yul\":19515:19527   */\n      add\n        /* \"#utility.yul\":19508:19527   */\n      swap1\n      pop\n        /* \"#utility.yul\":19167:19533   */\n      swap2\n      swap1\n      pop\n      jump\t// out\n        /* \"#utility.yul\":19539:19958   */\n    tag_107:\n        /* \"#utility.yul\":19705:19709   */\n      0x00\n        /* \"#utility.yul\":19743:19745   */\n      0x20\n        /* \"#utility.yul\":19732:19741   */\n      dup3\n        /* \"#utility.yul\":19728:19746   */\n      add\n        /* \"#utility.yul\":19720:19746   */\n      swap1\n      pop\n        /* \"#utility.yul\":19792:19801   */\n      dup2\n        /* \"#utility.yul\":19786:19790   */\n      dup2\n        /* \"#utility.yul\":19782:19802   */\n      sub\n        /* \"#utility.yul\":19778:19779   */\n      0x00\n        /* \"#utility.yul\":19767:19776   */\n      dup4\n        /* \"#utility.yul\":19763:19780   */\n      add\n        /* \"#utility.yul\":19756:19803   */\n      mstore\n        /* \"#utility.yul\":19820:19951   */\n      tag_446\n        /* \"#utility.yul\":19946:19950   */\n      dup2\n        /* \"#utility.yul\":19820:19951   */\n      tag_238\n      jump\t// in\n    tag_446:\n        /* \"#utility.yul\":19812:19951   */\n      swap1\n      pop\n        /* \"#utility.yul\":19539:19958   */\n      swap2\n      swap1\n      pop\n      jump\t// out\n        /* \"#utility.yul\":19964:20144   */\n    tag_239:\n        /* \"#utility.yul\":20104:20136   */\n      0x546869732070726f706f73616c20496420646f65736e27742065786973740000\n        /* \"#utility.yul\":20100:20101   */\n      0x00\n        /* \"#utility.yul\":20092:20098   */\n      dup3\n        /* \"#utility.yul\":20088:20102   */\n      add\n        /* \"#utility.yul\":20081:20137   */\n      mstore\n        /* \"#utility.yul\":19964:20144   */\n      pop\n      jump\t// out\n        /* \"#utility.yul\":20150:20516   */\n    tag_240:\n        /* \"#utility.yul\":20292:20295   */\n      0x00\n        /* \"#utility.yul\":20313:20380   */\n      tag_449\n        /* \"#utility.yul\":20377:20379   */\n      0x1e\n        /* \"#utility.yul\":20372:20375   */\n      dup4\n        /* \"#utility.yul\":20313:20380   */\n      tag_185\n      jump\t// in\n    tag_449:\n        /* \"#utility.yul\":20306:20380   */\n      swap2\n      pop\n        /* \"#utility.yul\":20389:20482   */\n      tag_450\n        /* \"#utility.yul\":20478:20481   */\n      dup3\n        /* \"#utility.yul\":20389:20482   */\n      tag_239\n      jump\t// in\n    tag_450:\n        /* \"#utility.yul\":20507:20509   */\n      0x20\n        /* \"#utility.yul\":20502:20505   */\n      dup3\n        /* \"#utility.yul\":20498:20510   */\n      add\n        /* \"#utility.yul\":20491:20510   */\n      swap1\n      pop\n        /* \"#utility.yul\":20150:20516   */\n      swap2\n      swap1\n      pop\n      jump\t// out\n        /* \"#utility.yul\":20522:20941   */\n    tag_110:\n        /* \"#utility.yul\":20688:20692   */\n      0x00\n        /* \"#utility.yul\":20726:20728   */\n      0x20\n        /* \"#utility.yul\":20715:20724   */\n      dup3\n        /* \"#utility.yul\":20711:20729   */\n      add\n        /* \"#utility.yul\":20703:20729   */\n      swap1\n      pop\n        /* \"#utility.yul\":20775:20784   */\n      dup2\n        /* \"#utility.yul\":20769:20773   */\n      dup2\n        /* \"#utility.yul\":20765:20785   */\n      sub\n        /* \"#utility.yul\":20761:20762   */\n      0x00\n        /* \"#utility.yul\":20750:20759   */\n      dup4\n        /* \"#utility.yul\":20746:20763   */\n      add\n        /* \"#utility.yul\":20739:20786   */\n      mstore\n        /* \"#utility.yul\":20803:20934   */\n      tag_452\n        /* \"#utility.yul\":20929:20933   */\n      dup2\n        /* \"#utility.yul\":20803:20934   */\n      tag_240\n      jump\t// in\n    tag_452:\n        /* \"#utility.yul\":20795:20934   */\n      swap1\n      pop\n        /* \"#utility.yul\":20522:20941   */\n      swap2\n      swap1\n      pop\n      jump\t// out\n        /* \"#utility.yul\":20947:21279   */\n    tag_112:\n        /* \"#utility.yul\":21068:21072   */\n      0x00\n        /* \"#utility.yul\":21106:21108   */\n      0x40\n        /* \"#utility.yul\":21095:21104   */\n      dup3\n        /* \"#utility.yul\":21091:21109   */\n      add\n        /* \"#utility.yul\":21083:21109   */\n      swap1\n      pop\n        /* \"#utility.yul\":21119:21190   */\n      tag_454\n        /* \"#utility.yul\":21187:21188   */\n      0x00\n        /* \"#utility.yul\":21176:21185   */\n      dup4\n        /* \"#utility.yul\":21172:21189   */\n      add\n        /* \"#utility.yul\":21163:21169   */\n      dup6\n        /* \"#utility.yul\":21119:21190   */\n      tag_203\n      jump\t// in\n    tag_454:\n        /* \"#utility.yul\":21200:21272   */\n      tag_455\n        /* \"#utility.yul\":21268:21270   */\n      0x20\n        /* \"#utility.yul\":21257:21266   */\n      dup4\n        /* \"#utility.yul\":21253:21271   */\n      add\n        /* \"#utility.yul\":21244:21250   */\n      dup5\n        /* \"#utility.yul\":21200:21272   */\n      tag_189\n      jump\t// in\n    tag_455:\n        /* \"#utility.yul\":20947:21279   */\n      swap4\n      swap3\n      pop\n      pop\n      pop\n      jump\t// out\n        /* \"#utility.yul\":21285:21465   */\n    tag_115:\n        /* \"#utility.yul\":21333:21410   */\n      0x4e487b7100000000000000000000000000000000000000000000000000000000\n        /* \"#utility.yul\":21330:21331   */\n      0x00\n        /* \"#utility.yul\":21323:21411   */\n      mstore\n        /* \"#utility.yul\":21430:21434   */\n      0x32\n        /* \"#utility.yul\":21427:21428   */\n      0x04\n        /* \"#utility.yul\":21420:21435   */\n      mstore\n        /* \"#utility.yul\":21454:21458   */\n      0x24\n        /* \"#utility.yul\":21451:21452   */\n      0x00\n        /* \"#utility.yul\":21444:21459   */\n      revert\n        /* \"#utility.yul\":21471:21704   */\n    tag_118:\n        /* \"#utility.yul\":21510:21513   */\n      0x00\n        /* \"#utility.yul\":21533:21557   */\n      tag_458\n        /* \"#utility.yul\":21551:21556   */\n      dup3\n        /* \"#utility.yul\":21533:21557   */\n      tag_181\n      jump\t// in\n    tag_458:\n        /* \"#utility.yul\":21524:21557   */\n      swap2\n      pop\n        /* \"#utility.yul\":21579:21645   */\n      0xffffffffffffffffffffffffffffffffffffffffffffffffffffffffffffffff\n        /* \"#utility.yul\":21572:21577   */\n      dup3\n        /* \"#utility.yul\":21569:21646   */\n      sub\n        /* \"#utility.yul\":21566:21669   */\n      tag_459\n      jumpi\n        /* \"#utility.yul\":21649:21667   */\n      tag_460\n      tag_232\n      jump\t// in\n    tag_460:\n        /* \"#utility.yul\":21566:21669   */\n    tag_459:\n        /* \"#utility.yul\":21696:21697   */\n      0x01\n        /* \"#utility.yul\":21689:21694   */\n      dup3\n        /* \"#utility.yul\":21685:21698   */\n      add\n        /* \"#utility.yul\":21678:21698   */\n      swap1\n      pop\n        /* \"#utility.yul\":21471:21704   */\n      swap2\n      swap1\n      pop\n      jump\t// out\n        /* \"#utility.yul\":21710:21947   */\n    tag_241:\n        /* \"#utility.yul\":21850:21884   */\n      0x5468652073746174757320697320616c726561647920746865206f6e6520796f\n        /* \"#utility.yul\":21846:21847   */\n      0x00\n        /* \"#utility.yul\":21838:21844   */\n      dup3\n        /* \"#utility.yul\":21834:21848   */\n      add\n        /* \"#utility.yul\":21827:21885   */\n      mstore\n        /* \"#utility.yul\":21919:21939   */\n      0x7527726520747279696e6720746f207365740000000000000000000000000000\n        /* \"#utility.yul\":21914:21916   */\n      0x20\n        /* \"#utility.yul\":21906:21912   */\n      dup3\n        /* \"#utility.yul\":21902:21917   */\n      add\n        /* \"#utility.yul\":21895:21940   */\n      mstore\n        /* \"#utility.yul\":21710:21947   */\n      pop\n      jump\t// out\n        /* \"#utility.yul\":21953:22319   */\n    tag_242:\n        /* \"#utility.yul\":22095:22098   */\n      0x00\n        /* \"#utility.yul\":22116:22183   */\n      tag_463\n        /* \"#utility.yul\":22180:22182   */\n      0x32\n        /* \"#utility.yul\":22175:22178   */\n      dup4\n        /* \"#utility.yul\":22116:22183   */\n      tag_185\n      jump\t// in\n    tag_463:\n        /* \"#utility.yul\":22109:22183   */\n      swap2\n      pop\n        /* \"#utility.yul\":22192:22285   */\n      tag_464\n        /* \"#utility.yul\":22281:22284   */\n      dup3\n        /* \"#utility.yul\":22192:22285   */\n      tag_241\n      jump\t// in\n    tag_464:\n        /* \"#utility.yul\":22310:22312   */\n      0x40\n        /* \"#utility.yul\":22305:22308   */\n      dup3\n        /* \"#utility.yul\":22301:22313   */\n      add\n        /* \"#utility.yul\":22294:22313   */\n      swap1\n      pop\n        /* \"#utility.yul\":21953:22319   */\n      swap2\n      swap1\n      pop\n      jump\t// out\n        /* \"#utility.yul\":22325:22744   */\n    tag_140:\n        /* \"#utility.yul\":22491:22495   */\n      0x00\n        /* \"#utility.yul\":22529:22531   */\n      0x20\n        /* \"#utility.yul\":22518:22527   */\n      dup3\n        /* \"#utility.yul\":22514:22532   */\n      add\n        /* \"#utility.yul\":22506:22532   */\n      swap1\n      pop\n        /* \"#utility.yul\":22578:22587   */\n      dup2\n        /* \"#utility.yul\":22572:22576   */\n      dup2\n        /* \"#utility.yul\":22568:22588   */\n      sub\n        /* \"#utility.yul\":22564:22565   */\n      0x00\n        /* \"#utility.yul\":22553:22562   */\n      dup4\n        /* \"#utility.yul\":22549:22566   */\n      add\n        /* \"#utility.yul\":22542:22589   */\n      mstore\n        /* \"#utility.yul\":22606:22737   */\n      tag_466\n        /* \"#utility.yul\":22732:22736   */\n      dup2\n        /* \"#utility.yul\":22606:22737   */\n      tag_242\n      jump\t// in\n    tag_466:\n        /* \"#utility.yul\":22598:22737   */\n      swap1\n      pop\n        /* \"#utility.yul\":22325:22744   */\n      swap2\n      swap1\n      pop\n      jump\t// out\n        /* \"#utility.yul\":22750:22873   */\n    tag_243:\n        /* \"#utility.yul\":22841:22842   */\n      0x06\n        /* \"#utility.yul\":22834:22839   */\n      dup2\n        /* \"#utility.yul\":22831:22843   */\n      lt\n        /* \"#utility.yul\":22821:22867   */\n      tag_468\n      jumpi\n        /* \"#utility.yul\":22847:22865   */\n      tag_469\n      tag_67\n      jump\t// in\n    tag_469:\n        /* \"#utility.yul\":22821:22867   */\n    tag_468:\n        /* \"#utility.yul\":22750:22873   */\n      pop\n      jump\t// out\n        /* \"#utility.yul\":22879:23026   */\n    tag_244:\n        /* \"#utility.yul\":22934:22941   */\n      0x00\n        /* \"#utility.yul\":22963:22968   */\n      dup2\n        /* \"#utility.yul\":22952:22968   */\n      swap1\n      pop\n        /* \"#utility.yul\":22969:23020   */\n      tag_471\n        /* \"#utility.yul\":23014:23019   */\n      dup3\n        /* \"#utility.yul\":22969:23020   */\n      tag_243\n      jump\t// in\n    tag_471:\n        /* \"#utility.yul\":22879:23026   */\n      swap2\n      swap1\n      pop\n      jump\t// out\n        /* \"#utility.yul\":23032:23179   */\n    tag_245:\n        /* \"#utility.yul\":23098:23107   */\n      0x00\n        /* \"#utility.yul\":23131:23173   */\n      tag_473\n        /* \"#utility.yul\":23167:23172   */\n      dup3\n        /* \"#utility.yul\":23131:23173   */\n      tag_244\n      jump\t// in\n    tag_473:\n        /* \"#utility.yul\":23118:23173   */\n      swap1\n      pop\n        /* \"#utility.yul\":23032:23179   */\n      swap2\n      swap1\n      pop\n      jump\t// out\n        /* \"#utility.yul\":23185:23348   */\n    tag_246:\n        /* \"#utility.yul\":23288:23341   */\n      tag_475\n        /* \"#utility.yul\":23335:23340   */\n      dup2\n        /* \"#utility.yul\":23288:23341   */\n      tag_245\n      jump\t// in\n    tag_475:\n        /* \"#utility.yul\":23283:23286   */\n      dup3\n        /* \"#utility.yul\":23276:23342   */\n      mstore\n        /* \"#utility.yul\":23185:23348   */\n      pop\n      pop\n      jump\t// out\n        /* \"#utility.yul\":23354:23750   */\n    tag_142:\n        /* \"#utility.yul\":23507:23511   */\n      0x00\n        /* \"#utility.yul\":23545:23547   */\n      0x40\n        /* \"#utility.yul\":23534:23543   */\n      dup3\n        /* \"#utility.yul\":23530:23548   */\n      add\n        /* \"#utility.yul\":23522:23548   */\n      swap1\n      pop\n        /* \"#utility.yul\":23558:23645   */\n      tag_477\n        /* \"#utility.yul\":23642:23643   */\n      0x00\n        /* \"#utility.yul\":23631:23640   */\n      dup4\n        /* \"#utility.yul\":23627:23644   */\n      add\n        /* \"#utility.yul\":23618:23624   */\n      dup6\n        /* \"#utility.yul\":23558:23645   */\n      tag_246\n      jump\t// in\n    tag_477:\n        /* \"#utility.yul\":23655:23743   */\n      tag_478\n        /* \"#utility.yul\":23739:23741   */\n      0x20\n        /* \"#utility.yul\":23728:23737   */\n      dup4\n        /* \"#utility.yul\":23724:23742   */\n      add\n        /* \"#utility.yul\":23715:23721   */\n      dup5\n        /* \"#utility.yul\":23655:23743   */\n      tag_246\n      jump\t// in\n    tag_478:\n        /* \"#utility.yul\":23354:23750   */\n      swap4\n      swap3\n      pop\n      pop\n      pop\n      jump\t// out\n\n    auxdata: 0xa26469706673582212208cbac381148dbbba964162865d50de8f12951d07d5f3cc48a8ec818d4b560b9264736f6c634300081c0033\n}\n",
				"bytecode": {
					"linkReferences": {},
					"object": "608060405234801561000f575f5ffd5b50335f73ffffffffffffffffffffffffffffffffffffffff168173ffffffffffffffffffffffffffffffffffffffff1603610081575f6040517f1e4fbdf700000000000000000000000000000000000000000000000000000000815260040161007891906101bf565b60405180910390fd5b610090816100bf60201b60201c565b505f5f60146101000a81548160ff021916908360058111156100b5576100b46101d8565b5b0217905550610205565b5f5f5f9054906101000a900473ffffffffffffffffffffffffffffffffffffffff169050815f5f6101000a81548173ffffffffffffffffffffffffffffffffffffffff021916908373ffffffffffffffffffffffffffffffffffffffff1602179055508173ffffffffffffffffffffffffffffffffffffffff168173ffffffffffffffffffffffffffffffffffffffff167f8be0079c531659141344cd1fd0a4f28419497f9722a3daafe3b4186f6b6457e060405160405180910390a35050565b5f73ffffffffffffffffffffffffffffffffffffffff82169050919050565b5f6101a982610180565b9050919050565b6101b98161019f565b82525050565b5f6020820190506101d25f8301846101b0565b92915050565b7f4e487b71000000000000000000000000000000000000000000000000000000005f52602160045260245ffd5b61191d806102125f395ff3fe608060405234801561000f575f5ffd5b506004361061009c575f3560e01c80638da5cb5b116100645780638da5cb5b1461012f5780638e7ea5b21461014d57806395bc95381461016b5780639b19251a14610187578063f2fde38b146101b95761009c565b8063013cf08b146100a05780632f95355b146100d157806338db6dd3146100ed578063715018a614610109578063807896d514610113575b5f5ffd5b6100ba60048036038101906100b59190610cdd565b6101d5565b6040516100c8929190610d87565b60405180910390f35b6100eb60048036038101906100e69190610ee1565b61028a565b005b61010760048036038101906101029190610f82565b610432565b005b61011161058e565b005b61012d60048036038101906101289190610cdd565b6105a1565b005b6101376107c4565b6040516101449190610fbc565b60405180910390f35b6101556107eb565b6040516101629190611066565b60405180910390f35b610185600480360381019061018091906110a9565b6108be565b005b6101a1600480360381019061019c9190610f82565b6109ef565b6040516101b0939291906110ee565b60405180910390f35b6101d360048036038101906101ce9190610f82565b610a2d565b005b600281815481106101e4575f80fd5b905f5260205f2090600202015f91509050805f01805461020390611150565b80601f016020809104026020016040519081016040528092919081815260200182805461022f90611150565b801561027a5780601f106102515761010080835404028352916020019161027a565b820191905f5260205f20905b81548152906001019060200180831161025d57829003601f168201915b5050505050908060010154905082565b60015f3373ffffffffffffffffffffffffffffffffffffffff1673ffffffffffffffffffffffffffffffffffffffff1681526020019081526020015f205f015f9054906101000a900460ff16610315576040517f08c379a000000000000000000000000000000000000000000000000000000000815260040161030c906111f0565b60405180910390fd5b600160058111156103295761032861120e565b5b5f60149054906101000a900460ff16600581111561034a5761034961120e565b5b1461038a576040517f08c379a0000000000000000000000000000000000000000000000000000000008152600401610381906112ab565b60405180910390fd5b600260405180604001604052808381526020015f815250908060018154018082558091505060019003905f5260205f2090600202015f909190919091505f820151815f0190816103da9190611469565b506020820151816001015550507f92e393e9b54e2f801d3ea4beb0c5e71a21cc34a5d34b77d0fb8a3aa1650dc18f600160028054905061041a9190611565565b6040516104279190611598565b60405180910390a150565b61043a610ab1565b5f600581111561044d5761044c61120e565b5b5f60149054906101000a900460ff16600581111561046e5761046d61120e565b5b146104ae576040517f08c379a00000000000000000000000000000000000000000000000000000000081526004016104a5906115fb565b60405180910390fd5b60405180606001604052806001151581526020015f151581526020015f81525060015f8373ffffffffffffffffffffffffffffffffffffffff1673ffffffffffffffffffffffffffffffffffffffff1681526020019081526020015f205f820151815f015f6101000a81548160ff0219169083151502179055506020820151815f0160016101000a81548160ff021916908315150217905550604082015181600101559050507fb6be2187d059cc2a55fe29e0e503b566e1e0f8c8780096e185429350acffd3dd816040516105839190610fbc565b60405180910390a150565b610596610ab1565b61059f5f610b38565b565b5f60015f3373ffffffffffffffffffffffffffffffffffffffff1673ffffffffffffffffffffffffffffffffffffffff1681526020019081526020015f209050600360058111156105f5576105f461120e565b5b5f60149054906101000a900460ff1660058111156106165761061561120e565b5b14610656576040517f08c379a000000000000000000000000000000000000000000000000000000000815260040161064d90611663565b60405180910390fd5b60015f3373ffffffffffffffffffffffffffffffffffffffff1673ffffffffffffffffffffffffffffffffffffffff1681526020019081526020015f205f0160019054906101000a900460ff16156106e3576040517f08c379a00000000000000000000000000000000000000000000000000000000081526004016106da906116cb565b60405180910390fd5b600280549050821061072a576040517f08c379a000000000000000000000000000000000000000000000000000000000815260040161072190611733565b60405180910390fd5b7f4d99b957a2bc29a30ebd96a7be8e68fe50a3c701db28a91436490b7d53870ca4338360405161075b929190611751565b60405180910390a16001815f0160016101000a81548160ff0219169083151502179055508181600101819055506002828154811061079c5761079b611778565b5b905f5260205f2090600202016001015f8154809291906107bb906117a5565b91905055505050565b5f5f5f9054906101000a900473ffffffffffffffffffffffffffffffffffffffff16905090565b6107f3610c80565b60026003548154811061080957610808611778565b5b905f5260205f2090600202016040518060400160405290815f8201805461082f90611150565b80601f016020809104026020016040519081016040528092919081815260200182805461085b90611150565b80156108a65780601f1061087d576101008083540402835291602001916108a6565b820191905f5260205f20905b81548152906001019060200180831161088957829003601f168201915b50505050508152602001600182015481525050905090565b6108c6610ab1565b8060058111156108d9576108d861120e565b5b5f60149054906101000a900460ff1660058111156108fa576108f961120e565b5b0361093a576040517f08c379a00000000000000000000000000000000000000000000000000000000081526004016109319061185c565b60405180910390fd5b7f0a97a4ee45751e2abf3e4fc8946939630b11b371ea8ae39ccdc3056e98f5cc3f5f60149054906101000a900460ff16826040516109799291906118c0565b60405180910390a1805f60146101000a81548160ff021916908360058111156109a5576109a461120e565b5b02179055506005808111156109bd576109bc61120e565b5b5f60149054906101000a900460ff1660058111156109de576109dd61120e565b5b036109ec576109eb610bf9565b5b50565b6001602052805f5260405f205f91509050805f015f9054906101000a900460ff1690805f0160019054906101000a900460ff16908060010154905083565b610a35610ab1565b5f73ffffffffffffffffffffffffffffffffffffffff168173ffffffffffffffffffffffffffffffffffffffff1603610aa5575f6040517f1e4fbdf7000000000000000000000000000000000000000000000000000000008152600401610a9c9190610fbc565b60405180910390fd5b610aae81610b38565b50565b610ab9610c79565b73ffffffffffffffffffffffffffffffffffffffff16610ad76107c4565b73ffffffffffffffffffffffffffffffffffffffff1614610b3657610afa610c79565b6040517f118cdaa7000000000000000000000000000000000000000000000000000000008152600401610b2d9190610fbc565b60405180910390fd5b565b5f5f5f9054906101000a900473ffffffffffffffffffffffffffffffffffffffff169050815f5f6101000a81548173ffffffffffffffffffffffffffffffffffffffff021916908373ffffffffffffffffffffffffffffffffffffffff1602179055508173ffffffffffffffffffffffffffffffffffffffff168173ffffffffffffffffffffffffffffffffffffffff167f8be0079c531659141344cd1fd0a4f28419497f9722a3daafe3b4186f6b6457e060405160405180910390a35050565b5f5f90505f5f90505b600280549050811015610c75578160028281548110610c2457610c23611778565b5b905f5260205f209060020201600101541115610c685760028181548110610c4e57610c4d611778565b5b905f5260205f209060020201600101549150806003819055505b8080600101915050610c02565b5050565b5f33905090565b6040518060400160405280606081526020015f81525090565b5f604051905090565b5f5ffd5b5f5ffd5b5f819050919050565b610cbc81610caa565b8114610cc6575f5ffd5b50565b5f81359050610cd781610cb3565b92915050565b5f60208284031215610cf257610cf1610ca2565b5b5f610cff84828501610cc9565b91505092915050565b5f81519050919050565b5f82825260208201905092915050565b8281835e5f83830152505050565b5f601f19601f8301169050919050565b5f610d4a82610d08565b610d548185610d12565b9350610d64818560208601610d22565b610d6d81610d30565b840191505092915050565b610d8181610caa565b82525050565b5f6040820190508181035f830152610d9f8185610d40565b9050610dae6020830184610d78565b9392505050565b5f5ffd5b5f5ffd5b7f4e487b71000000000000000000000000000000000000000000000000000000005f52604160045260245ffd5b610df382610d30565b810181811067ffffffffffffffff82111715610e1257610e11610dbd565b5b80604052505050565b5f610e24610c99565b9050610e308282610dea565b919050565b5f67ffffffffffffffff821115610e4f57610e4e610dbd565b5b610e5882610d30565b9050602081019050919050565b828183375f83830152505050565b5f610e85610e8084610e35565b610e1b565b905082815260208101848484011115610ea157610ea0610db9565b5b610eac848285610e65565b509392505050565b5f82601f830112610ec857610ec7610db5565b5b8135610ed8848260208601610e73565b91505092915050565b5f60208284031215610ef657610ef5610ca2565b5b5f82013567ffffffffffffffff811115610f1357610f12610ca6565b5b610f1f84828501610eb4565b91505092915050565b5f73ffffffffffffffffffffffffffffffffffffffff82169050919050565b5f610f5182610f28565b9050919050565b610f6181610f47565b8114610f6b575f5ffd5b50565b5f81359050610f7c81610f58565b92915050565b5f60208284031215610f9757610f96610ca2565b5b5f610fa484828501610f6e565b91505092915050565b610fb681610f47565b82525050565b5f602082019050610fcf5f830184610fad565b92915050565b5f82825260208201905092915050565b5f610fef82610d08565b610ff98185610fd5565b9350611009818560208601610d22565b61101281610d30565b840191505092915050565b61102681610caa565b82525050565b5f604083015f8301518482035f8601526110468282610fe5565b915050602083015161105b602086018261101d565b508091505092915050565b5f6020820190508181035f83015261107e818461102c565b905092915050565b60068110611092575f5ffd5b50565b5f813590506110a381611086565b92915050565b5f602082840312156110be576110bd610ca2565b5b5f6110cb84828501611095565b91505092915050565b5f8115159050919050565b6110e8816110d4565b82525050565b5f6060820190506111015f8301866110df565b61110e60208301856110df565b61111b6040830184610d78565b949350505050565b7f4e487b71000000000000000000000000000000000000000000000000000000005f52602260045260245ffd5b5f600282049050600182168061116757607f821691505b60208210810361117a57611179611123565b5b50919050565b7f596f7520617265206e6f742072656769737465726564206173206120566f74655f8201527f7200000000000000000000000000000000000000000000000000000000000000602082015250565b5f6111da602183610d12565b91506111e582611180565b604082019050919050565b5f6020820190508181035f830152611207816111ce565b9050919050565b7f4e487b71000000000000000000000000000000000000000000000000000000005f52602160045260245ffd5b7f50726f706f73616c20726567697374726174696f6e206973206e6f74206f70655f8201527f6e00000000000000000000000000000000000000000000000000000000000000602082015250565b5f611295602183610d12565b91506112a08261123b565b604082019050919050565b5f6020820190508181035f8301526112c281611289565b9050919050565b5f819050815f5260205f209050919050565b5f6020601f8301049050919050565b5f82821b905092915050565b5f600883026113257fffffffffffffffffffffffffffffffffffffffffffffffffffffffffffffffff826112ea565b61132f86836112ea565b95508019841693508086168417925050509392505050565b5f819050919050565b5f61136a61136561136084610caa565b611347565b610caa565b9050919050565b5f819050919050565b61138383611350565b61139761138f82611371565b8484546112f6565b825550505050565b5f5f905090565b6113ae61139f565b6113b981848461137a565b505050565b5b818110156113dc576113d15f826113a6565b6001810190506113bf565b5050565b601f821115611421576113f2816112c9565b6113fb846112db565b8101602085101561140a578190505b61141e611416856112db565b8301826113be565b50505b505050565b5f82821c905092915050565b5f6114415f1984600802611426565b1980831691505092915050565b5f6114598383611432565b9150826002028217905092915050565b61147282610d08565b67ffffffffffffffff81111561148b5761148a610dbd565b5b6114958254611150565b6114a08282856113e0565b5f60209050601f8311600181146114d1575f84156114bf578287015190505b6114c9858261144e565b865550611530565b601f1984166114df866112c9565b5f5b82811015611506578489015182556001820191506020850194506020810190506114e1565b86831015611523578489015161151f601f891682611432565b8355505b6001600288020188555050505b505050505050565b7f4e487b71000000000000000000000000000000000000000000000000000000005f52601160045260245ffd5b5f61156f82610caa565b915061157a83610caa565b925082820390508181111561159257611591611538565b5b92915050565b5f6020820190506115ab5f830184610d78565b92915050565b7f54686520726567697374726174696f6e207068617365206973206f76657200005f82015250565b5f6115e5601e83610d12565b91506115f0826115b1565b602082019050919050565b5f6020820190508181035f830152611612816115d9565b9050919050565b7f566f74652073657373696f6e206973206e6f74207374617274656400000000005f82015250565b5f61164d601b83610d12565b915061165882611619565b602082019050919050565b5f6020820190508181035f83015261167a81611641565b9050919050565b7f557365722068617320616c726561647920766f746564000000000000000000005f82015250565b5f6116b5601683610d12565b91506116c082611681565b602082019050919050565b5f6020820190508181035f8301526116e2816116a9565b9050919050565b7f546869732070726f706f73616c20496420646f65736e277420657869737400005f82015250565b5f61171d601e83610d12565b9150611728826116e9565b602082019050919050565b5f6020820190508181035f83015261174a81611711565b9050919050565b5f6040820190506117645f830185610fad565b6117716020830184610d78565b9392505050565b7f4e487b71000000000000000000000000000000000000000000000000000000005f52603260045260245ffd5b5f6117af82610caa565b91507fffffffffffffffffffffffffffffffffffffffffffffffffffffffffffffffff82036117e1576117e0611538565b5b600182019050919050565b7f5468652073746174757320697320616c726561647920746865206f6e6520796f5f8201527f7527726520747279696e6720746f207365740000000000000000000000000000602082015250565b5f611846603283610d12565b9150611851826117ec565b604082019050919050565b5f6020820190508181035f8301526118738161183a565b9050919050565b6006811061188b5761188a61120e565b5b50565b5f81905061189b8261187a565b919050565b5f6118aa8261188e565b9050919050565b6118ba816118a0565b82525050565b5f6040820190506118d35f8301856118b1565b6118e060208301846118b1565b939250505056fea26469706673582212208cbac381148dbbba964162865d50de8f12951d07d5f3cc48a8ec818d4b560b9264736f6c634300081c0033",
					"opcodes": "PUSH1 0x80 PUSH1 0x40 MSTORE CALLVALUE DUP1 ISZERO PUSH2 0xF JUMPI PUSH0 PUSH0 REVERT JUMPDEST POP CALLER PUSH0 PUSH20 0xFFFFFFFFFFFFFFFFFFFFFFFFFFFFFFFFFFFFFFFF AND DUP2 PUSH20 0xFFFFFFFFFFFFFFFFFFFFFFFFFFFFFFFFFFFFFFFF AND SUB PUSH2 0x81 JUMPI PUSH0 PUSH1 0x40 MLOAD PUSH32 0x1E4FBDF700000000000000000000000000000000000000000000000000000000 DUP2 MSTORE PUSH1 0x4 ADD PUSH2 0x78 SWAP2 SWAP1 PUSH2 0x1BF JUMP JUMPDEST PUSH1 0x40 MLOAD DUP1 SWAP2 SUB SWAP1 REVERT JUMPDEST PUSH2 0x90 DUP2 PUSH2 0xBF PUSH1 0x20 SHL PUSH1 0x20 SHR JUMP JUMPDEST POP PUSH0 PUSH0 PUSH1 0x14 PUSH2 0x100 EXP DUP2 SLOAD DUP2 PUSH1 0xFF MUL NOT AND SWAP1 DUP4 PUSH1 0x5 DUP2 GT ISZERO PUSH2 0xB5 JUMPI PUSH2 0xB4 PUSH2 0x1D8 JUMP JUMPDEST JUMPDEST MUL OR SWAP1 SSTORE POP PUSH2 0x205 JUMP JUMPDEST PUSH0 PUSH0 PUSH0 SWAP1 SLOAD SWAP1 PUSH2 0x100 EXP SWAP1 DIV PUSH20 0xFFFFFFFFFFFFFFFFFFFFFFFFFFFFFFFFFFFFFFFF AND SWAP1 POP DUP2 PUSH0 PUSH0 PUSH2 0x100 EXP DUP2 SLOAD DUP2 PUSH20 0xFFFFFFFFFFFFFFFFFFFFFFFFFFFFFFFFFFFFFFFF MUL NOT AND SWAP1 DUP4 PUSH20 0xFFFFFFFFFFFFFFFFFFFFFFFFFFFFFFFFFFFFFFFF AND MUL OR SWAP1 SSTORE POP DUP2 PUSH20 0xFFFFFFFFFFFFFFFFFFFFFFFFFFFFFFFFFFFFFFFF AND DUP2 PUSH20 0xFFFFFFFFFFFFFFFFFFFFFFFFFFFFFFFFFFFFFFFF AND PUSH32 0x8BE0079C531659141344CD1FD0A4F28419497F9722A3DAAFE3B4186F6B6457E0 PUSH1 0x40 MLOAD PUSH1 0x40 MLOAD DUP1 SWAP2 SUB SWAP1 LOG3 POP POP JUMP JUMPDEST PUSH0 PUSH20 0xFFFFFFFFFFFFFFFFFFFFFFFFFFFFFFFFFFFFFFFF DUP3 AND SWAP1 POP SWAP2 SWAP1 POP JUMP JUMPDEST PUSH0 PUSH2 0x1A9 DUP3 PUSH2 0x180 JUMP JUMPDEST SWAP1 POP SWAP2 SWAP1 POP JUMP JUMPDEST PUSH2 0x1B9 DUP2 PUSH2 0x19F JUMP JUMPDEST DUP3 MSTORE POP POP JUMP JUMPDEST PUSH0 PUSH1 0x20 DUP3 ADD SWAP1 POP PUSH2 0x1D2 PUSH0 DUP4 ADD DUP5 PUSH2 0x1B0 JUMP JUMPDEST SWAP3 SWAP2 POP POP JUMP JUMPDEST PUSH32 0x4E487B7100000000000000000000000000000000000000000000000000000000 PUSH0 MSTORE PUSH1 0x21 PUSH1 0x4 MSTORE PUSH1 0x24 PUSH0 REVERT JUMPDEST PUSH2 0x191D DUP1 PUSH2 0x212 PUSH0 CODECOPY PUSH0 RETURN INVALID PUSH1 0x80 PUSH1 0x40 MSTORE CALLVALUE DUP1 ISZERO PUSH2 0xF JUMPI PUSH0 PUSH0 REVERT JUMPDEST POP PUSH1 0x4 CALLDATASIZE LT PUSH2 0x9C JUMPI PUSH0 CALLDATALOAD PUSH1 0xE0 SHR DUP1 PUSH4 0x8DA5CB5B GT PUSH2 0x64 JUMPI DUP1 PUSH4 0x8DA5CB5B EQ PUSH2 0x12F JUMPI DUP1 PUSH4 0x8E7EA5B2 EQ PUSH2 0x14D JUMPI DUP1 PUSH4 0x95BC9538 EQ PUSH2 0x16B JUMPI DUP1 PUSH4 0x9B19251A EQ PUSH2 0x187 JUMPI DUP1 PUSH4 0xF2FDE38B EQ PUSH2 0x1B9 JUMPI PUSH2 0x9C JUMP JUMPDEST DUP1 PUSH4 0x13CF08B EQ PUSH2 0xA0 JUMPI DUP1 PUSH4 0x2F95355B EQ PUSH2 0xD1 JUMPI DUP1 PUSH4 0x38DB6DD3 EQ PUSH2 0xED JUMPI DUP1 PUSH4 0x715018A6 EQ PUSH2 0x109 JUMPI DUP1 PUSH4 0x807896D5 EQ PUSH2 0x113 JUMPI JUMPDEST PUSH0 PUSH0 REVERT JUMPDEST PUSH2 0xBA PUSH1 0x4 DUP1 CALLDATASIZE SUB DUP2 ADD SWAP1 PUSH2 0xB5 SWAP2 SWAP1 PUSH2 0xCDD JUMP JUMPDEST PUSH2 0x1D5 JUMP JUMPDEST PUSH1 0x40 MLOAD PUSH2 0xC8 SWAP3 SWAP2 SWAP1 PUSH2 0xD87 JUMP JUMPDEST PUSH1 0x40 MLOAD DUP1 SWAP2 SUB SWAP1 RETURN JUMPDEST PUSH2 0xEB PUSH1 0x4 DUP1 CALLDATASIZE SUB DUP2 ADD SWAP1 PUSH2 0xE6 SWAP2 SWAP1 PUSH2 0xEE1 JUMP JUMPDEST PUSH2 0x28A JUMP JUMPDEST STOP JUMPDEST PUSH2 0x107 PUSH1 0x4 DUP1 CALLDATASIZE SUB DUP2 ADD SWAP1 PUSH2 0x102 SWAP2 SWAP1 PUSH2 0xF82 JUMP JUMPDEST PUSH2 0x432 JUMP JUMPDEST STOP JUMPDEST PUSH2 0x111 PUSH2 0x58E JUMP JUMPDEST STOP JUMPDEST PUSH2 0x12D PUSH1 0x4 DUP1 CALLDATASIZE SUB DUP2 ADD SWAP1 PUSH2 0x128 SWAP2 SWAP1 PUSH2 0xCDD JUMP JUMPDEST PUSH2 0x5A1 JUMP JUMPDEST STOP JUMPDEST PUSH2 0x137 PUSH2 0x7C4 JUMP JUMPDEST PUSH1 0x40 MLOAD PUSH2 0x144 SWAP2 SWAP1 PUSH2 0xFBC JUMP JUMPDEST PUSH1 0x40 MLOAD DUP1 SWAP2 SUB SWAP1 RETURN JUMPDEST PUSH2 0x155 PUSH2 0x7EB JUMP JUMPDEST PUSH1 0x40 MLOAD PUSH2 0x162 SWAP2 SWAP1 PUSH2 0x1066 JUMP JUMPDEST PUSH1 0x40 MLOAD DUP1 SWAP2 SUB SWAP1 RETURN JUMPDEST PUSH2 0x185 PUSH1 0x4 DUP1 CALLDATASIZE SUB DUP2 ADD SWAP1 PUSH2 0x180 SWAP2 SWAP1 PUSH2 0x10A9 JUMP JUMPDEST PUSH2 0x8BE JUMP JUMPDEST STOP JUMPDEST PUSH2 0x1A1 PUSH1 0x4 DUP1 CALLDATASIZE SUB DUP2 ADD SWAP1 PUSH2 0x19C SWAP2 SWAP1 PUSH2 0xF82 JUMP JUMPDEST PUSH2 0x9EF JUMP JUMPDEST PUSH1 0x40 MLOAD PUSH2 0x1B0 SWAP4 SWAP3 SWAP2 SWAP1 PUSH2 0x10EE JUMP JUMPDEST PUSH1 0x40 MLOAD DUP1 SWAP2 SUB SWAP1 RETURN JUMPDEST PUSH2 0x1D3 PUSH1 0x4 DUP1 CALLDATASIZE SUB DUP2 ADD SWAP1 PUSH2 0x1CE SWAP2 SWAP1 PUSH2 0xF82 JUMP JUMPDEST PUSH2 0xA2D JUMP JUMPDEST STOP JUMPDEST PUSH1 0x2 DUP2 DUP2 SLOAD DUP2 LT PUSH2 0x1E4 JUMPI PUSH0 DUP1 REVERT JUMPDEST SWAP1 PUSH0 MSTORE PUSH1 0x20 PUSH0 KECCAK256 SWAP1 PUSH1 0x2 MUL ADD PUSH0 SWAP2 POP SWAP1 POP DUP1 PUSH0 ADD DUP1 SLOAD PUSH2 0x203 SWAP1 PUSH2 0x1150 JUMP JUMPDEST DUP1 PUSH1 0x1F ADD PUSH1 0x20 DUP1 SWAP2 DIV MUL PUSH1 0x20 ADD PUSH1 0x40 MLOAD SWAP1 DUP2 ADD PUSH1 0x40 MSTORE DUP1 SWAP3 SWAP2 SWAP1 DUP2 DUP2 MSTORE PUSH1 0x20 ADD DUP3 DUP1 SLOAD PUSH2 0x22F SWAP1 PUSH2 0x1150 JUMP JUMPDEST DUP1 ISZERO PUSH2 0x27A JUMPI DUP1 PUSH1 0x1F LT PUSH2 0x251 JUMPI PUSH2 0x100 DUP1 DUP4 SLOAD DIV MUL DUP4 MSTORE SWAP2 PUSH1 0x20 ADD SWAP2 PUSH2 0x27A JUMP JUMPDEST DUP3 ADD SWAP2 SWAP1 PUSH0 MSTORE PUSH1 0x20 PUSH0 KECCAK256 SWAP1 JUMPDEST DUP2 SLOAD DUP2 MSTORE SWAP1 PUSH1 0x1 ADD SWAP1 PUSH1 0x20 ADD DUP1 DUP4 GT PUSH2 0x25D JUMPI DUP3 SWAP1 SUB PUSH1 0x1F AND DUP3 ADD SWAP2 JUMPDEST POP POP POP POP POP SWAP1 DUP1 PUSH1 0x1 ADD SLOAD SWAP1 POP DUP3 JUMP JUMPDEST PUSH1 0x1 PUSH0 CALLER PUSH20 0xFFFFFFFFFFFFFFFFFFFFFFFFFFFFFFFFFFFFFFFF AND PUSH20 0xFFFFFFFFFFFFFFFFFFFFFFFFFFFFFFFFFFFFFFFF AND DUP2 MSTORE PUSH1 0x20 ADD SWAP1 DUP2 MSTORE PUSH1 0x20 ADD PUSH0 KECCAK256 PUSH0 ADD PUSH0 SWAP1 SLOAD SWAP1 PUSH2 0x100 EXP SWAP1 DIV PUSH1 0xFF AND PUSH2 0x315 JUMPI PUSH1 0x40 MLOAD PUSH32 0x8C379A000000000000000000000000000000000000000000000000000000000 DUP2 MSTORE PUSH1 0x4 ADD PUSH2 0x30C SWAP1 PUSH2 0x11F0 JUMP JUMPDEST PUSH1 0x40 MLOAD DUP1 SWAP2 SUB SWAP1 REVERT JUMPDEST PUSH1 0x1 PUSH1 0x5 DUP2 GT ISZERO PUSH2 0x329 JUMPI PUSH2 0x328 PUSH2 0x120E JUMP JUMPDEST JUMPDEST PUSH0 PUSH1 0x14 SWAP1 SLOAD SWAP1 PUSH2 0x100 EXP SWAP1 DIV PUSH1 0xFF AND PUSH1 0x5 DUP2 GT ISZERO PUSH2 0x34A JUMPI PUSH2 0x349 PUSH2 0x120E JUMP JUMPDEST JUMPDEST EQ PUSH2 0x38A JUMPI PUSH1 0x40 MLOAD PUSH32 0x8C379A000000000000000000000000000000000000000000000000000000000 DUP2 MSTORE PUSH1 0x4 ADD PUSH2 0x381 SWAP1 PUSH2 0x12AB JUMP JUMPDEST PUSH1 0x40 MLOAD DUP1 SWAP2 SUB SWAP1 REVERT JUMPDEST PUSH1 0x2 PUSH1 0x40 MLOAD DUP1 PUSH1 0x40 ADD PUSH1 0x40 MSTORE DUP1 DUP4 DUP2 MSTORE PUSH1 0x20 ADD PUSH0 DUP2 MSTORE POP SWAP1 DUP1 PUSH1 0x1 DUP2 SLOAD ADD DUP1 DUP3 SSTORE DUP1 SWAP2 POP POP PUSH1 0x1 SWAP1 SUB SWAP1 PUSH0 MSTORE PUSH1 0x20 PUSH0 KECCAK256 SWAP1 PUSH1 0x2 MUL ADD PUSH0 SWAP1 SWAP2 SWAP1 SWAP2 SWAP1 SWAP2 POP PUSH0 DUP3 ADD MLOAD DUP2 PUSH0 ADD SWAP1 DUP2 PUSH2 0x3DA SWAP2 SWAP1 PUSH2 0x1469 JUMP JUMPDEST POP PUSH1 0x20 DUP3 ADD MLOAD DUP2 PUSH1 0x1 ADD SSTORE POP POP PUSH32 0x92E393E9B54E2F801D3EA4BEB0C5E71A21CC34A5D34B77D0FB8A3AA1650DC18F PUSH1 0x1 PUSH1 0x2 DUP1 SLOAD SWAP1 POP PUSH2 0x41A SWAP2 SWAP1 PUSH2 0x1565 JUMP JUMPDEST PUSH1 0x40 MLOAD PUSH2 0x427 SWAP2 SWAP1 PUSH2 0x1598 JUMP JUMPDEST PUSH1 0x40 MLOAD DUP1 SWAP2 SUB SWAP1 LOG1 POP JUMP JUMPDEST PUSH2 0x43A PUSH2 0xAB1 JUMP JUMPDEST PUSH0 PUSH1 0x5 DUP2 GT ISZERO PUSH2 0x44D JUMPI PUSH2 0x44C PUSH2 0x120E JUMP JUMPDEST JUMPDEST PUSH0 PUSH1 0x14 SWAP1 SLOAD SWAP1 PUSH2 0x100 EXP SWAP1 DIV PUSH1 0xFF AND PUSH1 0x5 DUP2 GT ISZERO PUSH2 0x46E JUMPI PUSH2 0x46D PUSH2 0x120E JUMP JUMPDEST JUMPDEST EQ PUSH2 0x4AE JUMPI PUSH1 0x40 MLOAD PUSH32 0x8C379A000000000000000000000000000000000000000000000000000000000 DUP2 MSTORE PUSH1 0x4 ADD PUSH2 0x4A5 SWAP1 PUSH2 0x15FB JUMP JUMPDEST PUSH1 0x40 MLOAD DUP1 SWAP2 SUB SWAP1 REVERT JUMPDEST PUSH1 0x40 MLOAD DUP1 PUSH1 0x60 ADD PUSH1 0x40 MSTORE DUP1 PUSH1 0x1 ISZERO ISZERO DUP2 MSTORE PUSH1 0x20 ADD PUSH0 ISZERO ISZERO DUP2 MSTORE PUSH1 0x20 ADD PUSH0 DUP2 MSTORE POP PUSH1 0x1 PUSH0 DUP4 PUSH20 0xFFFFFFFFFFFFFFFFFFFFFFFFFFFFFFFFFFFFFFFF AND PUSH20 0xFFFFFFFFFFFFFFFFFFFFFFFFFFFFFFFFFFFFFFFF AND DUP2 MSTORE PUSH1 0x20 ADD SWAP1 DUP2 MSTORE PUSH1 0x20 ADD PUSH0 KECCAK256 PUSH0 DUP3 ADD MLOAD DUP2 PUSH0 ADD PUSH0 PUSH2 0x100 EXP DUP2 SLOAD DUP2 PUSH1 0xFF MUL NOT AND SWAP1 DUP4 ISZERO ISZERO MUL OR SWAP1 SSTORE POP PUSH1 0x20 DUP3 ADD MLOAD DUP2 PUSH0 ADD PUSH1 0x1 PUSH2 0x100 EXP DUP2 SLOAD DUP2 PUSH1 0xFF MUL NOT AND SWAP1 DUP4 ISZERO ISZERO MUL OR SWAP1 SSTORE POP PUSH1 0x40 DUP3 ADD MLOAD DUP2 PUSH1 0x1 ADD SSTORE SWAP1 POP POP PUSH32 0xB6BE2187D059CC2A55FE29E0E503B566E1E0F8C8780096E185429350ACFFD3DD DUP2 PUSH1 0x40 MLOAD PUSH2 0x583 SWAP2 SWAP1 PUSH2 0xFBC JUMP JUMPDEST PUSH1 0x40 MLOAD DUP1 SWAP2 SUB SWAP1 LOG1 POP JUMP JUMPDEST PUSH2 0x596 PUSH2 0xAB1 JUMP JUMPDEST PUSH2 0x59F PUSH0 PUSH2 0xB38 JUMP JUMPDEST JUMP JUMPDEST PUSH0 PUSH1 0x1 PUSH0 CALLER PUSH20 0xFFFFFFFFFFFFFFFFFFFFFFFFFFFFFFFFFFFFFFFF AND PUSH20 0xFFFFFFFFFFFFFFFFFFFFFFFFFFFFFFFFFFFFFFFF AND DUP2 MSTORE PUSH1 0x20 ADD SWAP1 DUP2 MSTORE PUSH1 0x20 ADD PUSH0 KECCAK256 SWAP1 POP PUSH1 0x3 PUSH1 0x5 DUP2 GT ISZERO PUSH2 0x5F5 JUMPI PUSH2 0x5F4 PUSH2 0x120E JUMP JUMPDEST JUMPDEST PUSH0 PUSH1 0x14 SWAP1 SLOAD SWAP1 PUSH2 0x100 EXP SWAP1 DIV PUSH1 0xFF AND PUSH1 0x5 DUP2 GT ISZERO PUSH2 0x616 JUMPI PUSH2 0x615 PUSH2 0x120E JUMP JUMPDEST JUMPDEST EQ PUSH2 0x656 JUMPI PUSH1 0x40 MLOAD PUSH32 0x8C379A000000000000000000000000000000000000000000000000000000000 DUP2 MSTORE PUSH1 0x4 ADD PUSH2 0x64D SWAP1 PUSH2 0x1663 JUMP JUMPDEST PUSH1 0x40 MLOAD DUP1 SWAP2 SUB SWAP1 REVERT JUMPDEST PUSH1 0x1 PUSH0 CALLER PUSH20 0xFFFFFFFFFFFFFFFFFFFFFFFFFFFFFFFFFFFFFFFF AND PUSH20 0xFFFFFFFFFFFFFFFFFFFFFFFFFFFFFFFFFFFFFFFF AND DUP2 MSTORE PUSH1 0x20 ADD SWAP1 DUP2 MSTORE PUSH1 0x20 ADD PUSH0 KECCAK256 PUSH0 ADD PUSH1 0x1 SWAP1 SLOAD SWAP1 PUSH2 0x100 EXP SWAP1 DIV PUSH1 0xFF AND ISZERO PUSH2 0x6E3 JUMPI PUSH1 0x40 MLOAD PUSH32 0x8C379A000000000000000000000000000000000000000000000000000000000 DUP2 MSTORE PUSH1 0x4 ADD PUSH2 0x6DA SWAP1 PUSH2 0x16CB JUMP JUMPDEST PUSH1 0x40 MLOAD DUP1 SWAP2 SUB SWAP1 REVERT JUMPDEST PUSH1 0x2 DUP1 SLOAD SWAP1 POP DUP3 LT PUSH2 0x72A JUMPI PUSH1 0x40 MLOAD PUSH32 0x8C379A000000000000000000000000000000000000000000000000000000000 DUP2 MSTORE PUSH1 0x4 ADD PUSH2 0x721 SWAP1 PUSH2 0x1733 JUMP JUMPDEST PUSH1 0x40 MLOAD DUP1 SWAP2 SUB SWAP1 REVERT JUMPDEST PUSH32 0x4D99B957A2BC29A30EBD96A7BE8E68FE50A3C701DB28A91436490B7D53870CA4 CALLER DUP4 PUSH1 0x40 MLOAD PUSH2 0x75B SWAP3 SWAP2 SWAP1 PUSH2 0x1751 JUMP JUMPDEST PUSH1 0x40 MLOAD DUP1 SWAP2 SUB SWAP1 LOG1 PUSH1 0x1 DUP2 PUSH0 ADD PUSH1 0x1 PUSH2 0x100 EXP DUP2 SLOAD DUP2 PUSH1 0xFF MUL NOT AND SWAP1 DUP4 ISZERO ISZERO MUL OR SWAP1 SSTORE POP DUP2 DUP2 PUSH1 0x1 ADD DUP2 SWAP1 SSTORE POP PUSH1 0x2 DUP3 DUP2 SLOAD DUP2 LT PUSH2 0x79C JUMPI PUSH2 0x79B PUSH2 0x1778 JUMP JUMPDEST JUMPDEST SWAP1 PUSH0 MSTORE PUSH1 0x20 PUSH0 KECCAK256 SWAP1 PUSH1 0x2 MUL ADD PUSH1 0x1 ADD PUSH0 DUP2 SLOAD DUP1 SWAP3 SWAP2 SWAP1 PUSH2 0x7BB SWAP1 PUSH2 0x17A5 JUMP JUMPDEST SWAP2 SWAP1 POP SSTORE POP POP POP JUMP JUMPDEST PUSH0 PUSH0 PUSH0 SWAP1 SLOAD SWAP1 PUSH2 0x100 EXP SWAP1 DIV PUSH20 0xFFFFFFFFFFFFFFFFFFFFFFFFFFFFFFFFFFFFFFFF AND SWAP1 POP SWAP1 JUMP JUMPDEST PUSH2 0x7F3 PUSH2 0xC80 JUMP JUMPDEST PUSH1 0x2 PUSH1 0x3 SLOAD DUP2 SLOAD DUP2 LT PUSH2 0x809 JUMPI PUSH2 0x808 PUSH2 0x1778 JUMP JUMPDEST JUMPDEST SWAP1 PUSH0 MSTORE PUSH1 0x20 PUSH0 KECCAK256 SWAP1 PUSH1 0x2 MUL ADD PUSH1 0x40 MLOAD DUP1 PUSH1 0x40 ADD PUSH1 0x40 MSTORE SWAP1 DUP2 PUSH0 DUP3 ADD DUP1 SLOAD PUSH2 0x82F SWAP1 PUSH2 0x1150 JUMP JUMPDEST DUP1 PUSH1 0x1F ADD PUSH1 0x20 DUP1 SWAP2 DIV MUL PUSH1 0x20 ADD PUSH1 0x40 MLOAD SWAP1 DUP2 ADD PUSH1 0x40 MSTORE DUP1 SWAP3 SWAP2 SWAP1 DUP2 DUP2 MSTORE PUSH1 0x20 ADD DUP3 DUP1 SLOAD PUSH2 0x85B SWAP1 PUSH2 0x1150 JUMP JUMPDEST DUP1 ISZERO PUSH2 0x8A6 JUMPI DUP1 PUSH1 0x1F LT PUSH2 0x87D JUMPI PUSH2 0x100 DUP1 DUP4 SLOAD DIV MUL DUP4 MSTORE SWAP2 PUSH1 0x20 ADD SWAP2 PUSH2 0x8A6 JUMP JUMPDEST DUP3 ADD SWAP2 SWAP1 PUSH0 MSTORE PUSH1 0x20 PUSH0 KECCAK256 SWAP1 JUMPDEST DUP2 SLOAD DUP2 MSTORE SWAP1 PUSH1 0x1 ADD SWAP1 PUSH1 0x20 ADD DUP1 DUP4 GT PUSH2 0x889 JUMPI DUP3 SWAP1 SUB PUSH1 0x1F AND DUP3 ADD SWAP2 JUMPDEST POP POP POP POP POP DUP2 MSTORE PUSH1 0x20 ADD PUSH1 0x1 DUP3 ADD SLOAD DUP2 MSTORE POP POP SWAP1 POP SWAP1 JUMP JUMPDEST PUSH2 0x8C6 PUSH2 0xAB1 JUMP JUMPDEST DUP1 PUSH1 0x5 DUP2 GT ISZERO PUSH2 0x8D9 JUMPI PUSH2 0x8D8 PUSH2 0x120E JUMP JUMPDEST JUMPDEST PUSH0 PUSH1 0x14 SWAP1 SLOAD SWAP1 PUSH2 0x100 EXP SWAP1 DIV PUSH1 0xFF AND PUSH1 0x5 DUP2 GT ISZERO PUSH2 0x8FA JUMPI PUSH2 0x8F9 PUSH2 0x120E JUMP JUMPDEST JUMPDEST SUB PUSH2 0x93A JUMPI PUSH1 0x40 MLOAD PUSH32 0x8C379A000000000000000000000000000000000000000000000000000000000 DUP2 MSTORE PUSH1 0x4 ADD PUSH2 0x931 SWAP1 PUSH2 0x185C JUMP JUMPDEST PUSH1 0x40 MLOAD DUP1 SWAP2 SUB SWAP1 REVERT JUMPDEST PUSH32 0xA97A4EE45751E2ABF3E4FC8946939630B11B371EA8AE39CCDC3056E98F5CC3F PUSH0 PUSH1 0x14 SWAP1 SLOAD SWAP1 PUSH2 0x100 EXP SWAP1 DIV PUSH1 0xFF AND DUP3 PUSH1 0x40 MLOAD PUSH2 0x979 SWAP3 SWAP2 SWAP1 PUSH2 0x18C0 JUMP JUMPDEST PUSH1 0x40 MLOAD DUP1 SWAP2 SUB SWAP1 LOG1 DUP1 PUSH0 PUSH1 0x14 PUSH2 0x100 EXP DUP2 SLOAD DUP2 PUSH1 0xFF MUL NOT AND SWAP1 DUP4 PUSH1 0x5 DUP2 GT ISZERO PUSH2 0x9A5 JUMPI PUSH2 0x9A4 PUSH2 0x120E JUMP JUMPDEST JUMPDEST MUL OR SWAP1 SSTORE POP PUSH1 0x5 DUP1 DUP2 GT ISZERO PUSH2 0x9BD JUMPI PUSH2 0x9BC PUSH2 0x120E JUMP JUMPDEST JUMPDEST PUSH0 PUSH1 0x14 SWAP1 SLOAD SWAP1 PUSH2 0x100 EXP SWAP1 DIV PUSH1 0xFF AND PUSH1 0x5 DUP2 GT ISZERO PUSH2 0x9DE JUMPI PUSH2 0x9DD PUSH2 0x120E JUMP JUMPDEST JUMPDEST SUB PUSH2 0x9EC JUMPI PUSH2 0x9EB PUSH2 0xBF9 JUMP JUMPDEST JUMPDEST POP JUMP JUMPDEST PUSH1 0x1 PUSH1 0x20 MSTORE DUP1 PUSH0 MSTORE PUSH1 0x40 PUSH0 KECCAK256 PUSH0 SWAP2 POP SWAP1 POP DUP1 PUSH0 ADD PUSH0 SWAP1 SLOAD SWAP1 PUSH2 0x100 EXP SWAP1 DIV PUSH1 0xFF AND SWAP1 DUP1 PUSH0 ADD PUSH1 0x1 SWAP1 SLOAD SWAP1 PUSH2 0x100 EXP SWAP1 DIV PUSH1 0xFF AND SWAP1 DUP1 PUSH1 0x1 ADD SLOAD SWAP1 POP DUP4 JUMP JUMPDEST PUSH2 0xA35 PUSH2 0xAB1 JUMP JUMPDEST PUSH0 PUSH20 0xFFFFFFFFFFFFFFFFFFFFFFFFFFFFFFFFFFFFFFFF AND DUP2 PUSH20 0xFFFFFFFFFFFFFFFFFFFFFFFFFFFFFFFFFFFFFFFF AND SUB PUSH2 0xAA5 JUMPI PUSH0 PUSH1 0x40 MLOAD PUSH32 0x1E4FBDF700000000000000000000000000000000000000000000000000000000 DUP2 MSTORE PUSH1 0x4 ADD PUSH2 0xA9C SWAP2 SWAP1 PUSH2 0xFBC JUMP JUMPDEST PUSH1 0x40 MLOAD DUP1 SWAP2 SUB SWAP1 REVERT JUMPDEST PUSH2 0xAAE DUP2 PUSH2 0xB38 JUMP JUMPDEST POP JUMP JUMPDEST PUSH2 0xAB9 PUSH2 0xC79 JUMP JUMPDEST PUSH20 0xFFFFFFFFFFFFFFFFFFFFFFFFFFFFFFFFFFFFFFFF AND PUSH2 0xAD7 PUSH2 0x7C4 JUMP JUMPDEST PUSH20 0xFFFFFFFFFFFFFFFFFFFFFFFFFFFFFFFFFFFFFFFF AND EQ PUSH2 0xB36 JUMPI PUSH2 0xAFA PUSH2 0xC79 JUMP JUMPDEST PUSH1 0x40 MLOAD PUSH32 0x118CDAA700000000000000000000000000000000000000000000000000000000 DUP2 MSTORE PUSH1 0x4 ADD PUSH2 0xB2D SWAP2 SWAP1 PUSH2 0xFBC JUMP JUMPDEST PUSH1 0x40 MLOAD DUP1 SWAP2 SUB SWAP1 REVERT JUMPDEST JUMP JUMPDEST PUSH0 PUSH0 PUSH0 SWAP1 SLOAD SWAP1 PUSH2 0x100 EXP SWAP1 DIV PUSH20 0xFFFFFFFFFFFFFFFFFFFFFFFFFFFFFFFFFFFFFFFF AND SWAP1 POP DUP2 PUSH0 PUSH0 PUSH2 0x100 EXP DUP2 SLOAD DUP2 PUSH20 0xFFFFFFFFFFFFFFFFFFFFFFFFFFFFFFFFFFFFFFFF MUL NOT AND SWAP1 DUP4 PUSH20 0xFFFFFFFFFFFFFFFFFFFFFFFFFFFFFFFFFFFFFFFF AND MUL OR SWAP1 SSTORE POP DUP2 PUSH20 0xFFFFFFFFFFFFFFFFFFFFFFFFFFFFFFFFFFFFFFFF AND DUP2 PUSH20 0xFFFFFFFFFFFFFFFFFFFFFFFFFFFFFFFFFFFFFFFF AND PUSH32 0x8BE0079C531659141344CD1FD0A4F28419497F9722A3DAAFE3B4186F6B6457E0 PUSH1 0x40 MLOAD PUSH1 0x40 MLOAD DUP1 SWAP2 SUB SWAP1 LOG3 POP POP JUMP JUMPDEST PUSH0 PUSH0 SWAP1 POP PUSH0 PUSH0 SWAP1 POP JUMPDEST PUSH1 0x2 DUP1 SLOAD SWAP1 POP DUP2 LT ISZERO PUSH2 0xC75 JUMPI DUP2 PUSH1 0x2 DUP3 DUP2 SLOAD DUP2 LT PUSH2 0xC24 JUMPI PUSH2 0xC23 PUSH2 0x1778 JUMP JUMPDEST JUMPDEST SWAP1 PUSH0 MSTORE PUSH1 0x20 PUSH0 KECCAK256 SWAP1 PUSH1 0x2 MUL ADD PUSH1 0x1 ADD SLOAD GT ISZERO PUSH2 0xC68 JUMPI PUSH1 0x2 DUP2 DUP2 SLOAD DUP2 LT PUSH2 0xC4E JUMPI PUSH2 0xC4D PUSH2 0x1778 JUMP JUMPDEST JUMPDEST SWAP1 PUSH0 MSTORE PUSH1 0x20 PUSH0 KECCAK256 SWAP1 PUSH1 0x2 MUL ADD PUSH1 0x1 ADD SLOAD SWAP2 POP DUP1 PUSH1 0x3 DUP2 SWAP1 SSTORE POP JUMPDEST DUP1 DUP1 PUSH1 0x1 ADD SWAP2 POP POP PUSH2 0xC02 JUMP JUMPDEST POP POP JUMP JUMPDEST PUSH0 CALLER SWAP1 POP SWAP1 JUMP JUMPDEST PUSH1 0x40 MLOAD DUP1 PUSH1 0x40 ADD PUSH1 0x40 MSTORE DUP1 PUSH1 0x60 DUP2 MSTORE PUSH1 0x20 ADD PUSH0 DUP2 MSTORE POP SWAP1 JUMP JUMPDEST PUSH0 PUSH1 0x40 MLOAD SWAP1 POP SWAP1 JUMP JUMPDEST PUSH0 PUSH0 REVERT JUMPDEST PUSH0 PUSH0 REVERT JUMPDEST PUSH0 DUP2 SWAP1 POP SWAP2 SWAP1 POP JUMP JUMPDEST PUSH2 0xCBC DUP2 PUSH2 0xCAA JUMP JUMPDEST DUP2 EQ PUSH2 0xCC6 JUMPI PUSH0 PUSH0 REVERT JUMPDEST POP JUMP JUMPDEST PUSH0 DUP2 CALLDATALOAD SWAP1 POP PUSH2 0xCD7 DUP2 PUSH2 0xCB3 JUMP JUMPDEST SWAP3 SWAP2 POP POP JUMP JUMPDEST PUSH0 PUSH1 0x20 DUP3 DUP5 SUB SLT ISZERO PUSH2 0xCF2 JUMPI PUSH2 0xCF1 PUSH2 0xCA2 JUMP JUMPDEST JUMPDEST PUSH0 PUSH2 0xCFF DUP5 DUP3 DUP6 ADD PUSH2 0xCC9 JUMP JUMPDEST SWAP2 POP POP SWAP3 SWAP2 POP POP JUMP JUMPDEST PUSH0 DUP2 MLOAD SWAP1 POP SWAP2 SWAP1 POP JUMP JUMPDEST PUSH0 DUP3 DUP3 MSTORE PUSH1 0x20 DUP3 ADD SWAP1 POP SWAP3 SWAP2 POP POP JUMP JUMPDEST DUP3 DUP2 DUP4 MCOPY PUSH0 DUP4 DUP4 ADD MSTORE POP POP POP JUMP JUMPDEST PUSH0 PUSH1 0x1F NOT PUSH1 0x1F DUP4 ADD AND SWAP1 POP SWAP2 SWAP1 POP JUMP JUMPDEST PUSH0 PUSH2 0xD4A DUP3 PUSH2 0xD08 JUMP JUMPDEST PUSH2 0xD54 DUP2 DUP6 PUSH2 0xD12 JUMP JUMPDEST SWAP4 POP PUSH2 0xD64 DUP2 DUP6 PUSH1 0x20 DUP7 ADD PUSH2 0xD22 JUMP JUMPDEST PUSH2 0xD6D DUP2 PUSH2 0xD30 JUMP JUMPDEST DUP5 ADD SWAP2 POP POP SWAP3 SWAP2 POP POP JUMP JUMPDEST PUSH2 0xD81 DUP2 PUSH2 0xCAA JUMP JUMPDEST DUP3 MSTORE POP POP JUMP JUMPDEST PUSH0 PUSH1 0x40 DUP3 ADD SWAP1 POP DUP2 DUP2 SUB PUSH0 DUP4 ADD MSTORE PUSH2 0xD9F DUP2 DUP6 PUSH2 0xD40 JUMP JUMPDEST SWAP1 POP PUSH2 0xDAE PUSH1 0x20 DUP4 ADD DUP5 PUSH2 0xD78 JUMP JUMPDEST SWAP4 SWAP3 POP POP POP JUMP JUMPDEST PUSH0 PUSH0 REVERT JUMPDEST PUSH0 PUSH0 REVERT JUMPDEST PUSH32 0x4E487B7100000000000000000000000000000000000000000000000000000000 PUSH0 MSTORE PUSH1 0x41 PUSH1 0x4 MSTORE PUSH1 0x24 PUSH0 REVERT JUMPDEST PUSH2 0xDF3 DUP3 PUSH2 0xD30 JUMP JUMPDEST DUP2 ADD DUP2 DUP2 LT PUSH8 0xFFFFFFFFFFFFFFFF DUP3 GT OR ISZERO PUSH2 0xE12 JUMPI PUSH2 0xE11 PUSH2 0xDBD JUMP JUMPDEST JUMPDEST DUP1 PUSH1 0x40 MSTORE POP POP POP JUMP JUMPDEST PUSH0 PUSH2 0xE24 PUSH2 0xC99 JUMP JUMPDEST SWAP1 POP PUSH2 0xE30 DUP3 DUP3 PUSH2 0xDEA JUMP JUMPDEST SWAP2 SWAP1 POP JUMP JUMPDEST PUSH0 PUSH8 0xFFFFFFFFFFFFFFFF DUP3 GT ISZERO PUSH2 0xE4F JUMPI PUSH2 0xE4E PUSH2 0xDBD JUMP JUMPDEST JUMPDEST PUSH2 0xE58 DUP3 PUSH2 0xD30 JUMP JUMPDEST SWAP1 POP PUSH1 0x20 DUP2 ADD SWAP1 POP SWAP2 SWAP1 POP JUMP JUMPDEST DUP3 DUP2 DUP4 CALLDATACOPY PUSH0 DUP4 DUP4 ADD MSTORE POP POP POP JUMP JUMPDEST PUSH0 PUSH2 0xE85 PUSH2 0xE80 DUP5 PUSH2 0xE35 JUMP JUMPDEST PUSH2 0xE1B JUMP JUMPDEST SWAP1 POP DUP3 DUP2 MSTORE PUSH1 0x20 DUP2 ADD DUP5 DUP5 DUP5 ADD GT ISZERO PUSH2 0xEA1 JUMPI PUSH2 0xEA0 PUSH2 0xDB9 JUMP JUMPDEST JUMPDEST PUSH2 0xEAC DUP5 DUP3 DUP6 PUSH2 0xE65 JUMP JUMPDEST POP SWAP4 SWAP3 POP POP POP JUMP JUMPDEST PUSH0 DUP3 PUSH1 0x1F DUP4 ADD SLT PUSH2 0xEC8 JUMPI PUSH2 0xEC7 PUSH2 0xDB5 JUMP JUMPDEST JUMPDEST DUP2 CALLDATALOAD PUSH2 0xED8 DUP5 DUP3 PUSH1 0x20 DUP7 ADD PUSH2 0xE73 JUMP JUMPDEST SWAP2 POP POP SWAP3 SWAP2 POP POP JUMP JUMPDEST PUSH0 PUSH1 0x20 DUP3 DUP5 SUB SLT ISZERO PUSH2 0xEF6 JUMPI PUSH2 0xEF5 PUSH2 0xCA2 JUMP JUMPDEST JUMPDEST PUSH0 DUP3 ADD CALLDATALOAD PUSH8 0xFFFFFFFFFFFFFFFF DUP2 GT ISZERO PUSH2 0xF13 JUMPI PUSH2 0xF12 PUSH2 0xCA6 JUMP JUMPDEST JUMPDEST PUSH2 0xF1F DUP5 DUP3 DUP6 ADD PUSH2 0xEB4 JUMP JUMPDEST SWAP2 POP POP SWAP3 SWAP2 POP POP JUMP JUMPDEST PUSH0 PUSH20 0xFFFFFFFFFFFFFFFFFFFFFFFFFFFFFFFFFFFFFFFF DUP3 AND SWAP1 POP SWAP2 SWAP1 POP JUMP JUMPDEST PUSH0 PUSH2 0xF51 DUP3 PUSH2 0xF28 JUMP JUMPDEST SWAP1 POP SWAP2 SWAP1 POP JUMP JUMPDEST PUSH2 0xF61 DUP2 PUSH2 0xF47 JUMP JUMPDEST DUP2 EQ PUSH2 0xF6B JUMPI PUSH0 PUSH0 REVERT JUMPDEST POP JUMP JUMPDEST PUSH0 DUP2 CALLDATALOAD SWAP1 POP PUSH2 0xF7C DUP2 PUSH2 0xF58 JUMP JUMPDEST SWAP3 SWAP2 POP POP JUMP JUMPDEST PUSH0 PUSH1 0x20 DUP3 DUP5 SUB SLT ISZERO PUSH2 0xF97 JUMPI PUSH2 0xF96 PUSH2 0xCA2 JUMP JUMPDEST JUMPDEST PUSH0 PUSH2 0xFA4 DUP5 DUP3 DUP6 ADD PUSH2 0xF6E JUMP JUMPDEST SWAP2 POP POP SWAP3 SWAP2 POP POP JUMP JUMPDEST PUSH2 0xFB6 DUP2 PUSH2 0xF47 JUMP JUMPDEST DUP3 MSTORE POP POP JUMP JUMPDEST PUSH0 PUSH1 0x20 DUP3 ADD SWAP1 POP PUSH2 0xFCF PUSH0 DUP4 ADD DUP5 PUSH2 0xFAD JUMP JUMPDEST SWAP3 SWAP2 POP POP JUMP JUMPDEST PUSH0 DUP3 DUP3 MSTORE PUSH1 0x20 DUP3 ADD SWAP1 POP SWAP3 SWAP2 POP POP JUMP JUMPDEST PUSH0 PUSH2 0xFEF DUP3 PUSH2 0xD08 JUMP JUMPDEST PUSH2 0xFF9 DUP2 DUP6 PUSH2 0xFD5 JUMP JUMPDEST SWAP4 POP PUSH2 0x1009 DUP2 DUP6 PUSH1 0x20 DUP7 ADD PUSH2 0xD22 JUMP JUMPDEST PUSH2 0x1012 DUP2 PUSH2 0xD30 JUMP JUMPDEST DUP5 ADD SWAP2 POP POP SWAP3 SWAP2 POP POP JUMP JUMPDEST PUSH2 0x1026 DUP2 PUSH2 0xCAA JUMP JUMPDEST DUP3 MSTORE POP POP JUMP JUMPDEST PUSH0 PUSH1 0x40 DUP4 ADD PUSH0 DUP4 ADD MLOAD DUP5 DUP3 SUB PUSH0 DUP7 ADD MSTORE PUSH2 0x1046 DUP3 DUP3 PUSH2 0xFE5 JUMP JUMPDEST SWAP2 POP POP PUSH1 0x20 DUP4 ADD MLOAD PUSH2 0x105B PUSH1 0x20 DUP7 ADD DUP3 PUSH2 0x101D JUMP JUMPDEST POP DUP1 SWAP2 POP POP SWAP3 SWAP2 POP POP JUMP JUMPDEST PUSH0 PUSH1 0x20 DUP3 ADD SWAP1 POP DUP2 DUP2 SUB PUSH0 DUP4 ADD MSTORE PUSH2 0x107E DUP2 DUP5 PUSH2 0x102C JUMP JUMPDEST SWAP1 POP SWAP3 SWAP2 POP POP JUMP JUMPDEST PUSH1 0x6 DUP2 LT PUSH2 0x1092 JUMPI PUSH0 PUSH0 REVERT JUMPDEST POP JUMP JUMPDEST PUSH0 DUP2 CALLDATALOAD SWAP1 POP PUSH2 0x10A3 DUP2 PUSH2 0x1086 JUMP JUMPDEST SWAP3 SWAP2 POP POP JUMP JUMPDEST PUSH0 PUSH1 0x20 DUP3 DUP5 SUB SLT ISZERO PUSH2 0x10BE JUMPI PUSH2 0x10BD PUSH2 0xCA2 JUMP JUMPDEST JUMPDEST PUSH0 PUSH2 0x10CB DUP5 DUP3 DUP6 ADD PUSH2 0x1095 JUMP JUMPDEST SWAP2 POP POP SWAP3 SWAP2 POP POP JUMP JUMPDEST PUSH0 DUP2 ISZERO ISZERO SWAP1 POP SWAP2 SWAP1 POP JUMP JUMPDEST PUSH2 0x10E8 DUP2 PUSH2 0x10D4 JUMP JUMPDEST DUP3 MSTORE POP POP JUMP JUMPDEST PUSH0 PUSH1 0x60 DUP3 ADD SWAP1 POP PUSH2 0x1101 PUSH0 DUP4 ADD DUP7 PUSH2 0x10DF JUMP JUMPDEST PUSH2 0x110E PUSH1 0x20 DUP4 ADD DUP6 PUSH2 0x10DF JUMP JUMPDEST PUSH2 0x111B PUSH1 0x40 DUP4 ADD DUP5 PUSH2 0xD78 JUMP JUMPDEST SWAP5 SWAP4 POP POP POP POP JUMP JUMPDEST PUSH32 0x4E487B7100000000000000000000000000000000000000000000000000000000 PUSH0 MSTORE PUSH1 0x22 PUSH1 0x4 MSTORE PUSH1 0x24 PUSH0 REVERT JUMPDEST PUSH0 PUSH1 0x2 DUP3 DIV SWAP1 POP PUSH1 0x1 DUP3 AND DUP1 PUSH2 0x1167 JUMPI PUSH1 0x7F DUP3 AND SWAP2 POP JUMPDEST PUSH1 0x20 DUP3 LT DUP2 SUB PUSH2 0x117A JUMPI PUSH2 0x1179 PUSH2 0x1123 JUMP JUMPDEST JUMPDEST POP SWAP2 SWAP1 POP JUMP JUMPDEST PUSH32 0x596F7520617265206E6F742072656769737465726564206173206120566F7465 PUSH0 DUP3 ADD MSTORE PUSH32 0x7200000000000000000000000000000000000000000000000000000000000000 PUSH1 0x20 DUP3 ADD MSTORE POP JUMP JUMPDEST PUSH0 PUSH2 0x11DA PUSH1 0x21 DUP4 PUSH2 0xD12 JUMP JUMPDEST SWAP2 POP PUSH2 0x11E5 DUP3 PUSH2 0x1180 JUMP JUMPDEST PUSH1 0x40 DUP3 ADD SWAP1 POP SWAP2 SWAP1 POP JUMP JUMPDEST PUSH0 PUSH1 0x20 DUP3 ADD SWAP1 POP DUP2 DUP2 SUB PUSH0 DUP4 ADD MSTORE PUSH2 0x1207 DUP2 PUSH2 0x11CE JUMP JUMPDEST SWAP1 POP SWAP2 SWAP1 POP JUMP JUMPDEST PUSH32 0x4E487B7100000000000000000000000000000000000000000000000000000000 PUSH0 MSTORE PUSH1 0x21 PUSH1 0x4 MSTORE PUSH1 0x24 PUSH0 REVERT JUMPDEST PUSH32 0x50726F706F73616C20726567697374726174696F6E206973206E6F74206F7065 PUSH0 DUP3 ADD MSTORE PUSH32 0x6E00000000000000000000000000000000000000000000000000000000000000 PUSH1 0x20 DUP3 ADD MSTORE POP JUMP JUMPDEST PUSH0 PUSH2 0x1295 PUSH1 0x21 DUP4 PUSH2 0xD12 JUMP JUMPDEST SWAP2 POP PUSH2 0x12A0 DUP3 PUSH2 0x123B JUMP JUMPDEST PUSH1 0x40 DUP3 ADD SWAP1 POP SWAP2 SWAP1 POP JUMP JUMPDEST PUSH0 PUSH1 0x20 DUP3 ADD SWAP1 POP DUP2 DUP2 SUB PUSH0 DUP4 ADD MSTORE PUSH2 0x12C2 DUP2 PUSH2 0x1289 JUMP JUMPDEST SWAP1 POP SWAP2 SWAP1 POP JUMP JUMPDEST PUSH0 DUP2 SWAP1 POP DUP2 PUSH0 MSTORE PUSH1 0x20 PUSH0 KECCAK256 SWAP1 POP SWAP2 SWAP1 POP JUMP JUMPDEST PUSH0 PUSH1 0x20 PUSH1 0x1F DUP4 ADD DIV SWAP1 POP SWAP2 SWAP1 POP JUMP JUMPDEST PUSH0 DUP3 DUP3 SHL SWAP1 POP SWAP3 SWAP2 POP POP JUMP JUMPDEST PUSH0 PUSH1 0x8 DUP4 MUL PUSH2 0x1325 PUSH32 0xFFFFFFFFFFFFFFFFFFFFFFFFFFFFFFFFFFFFFFFFFFFFFFFFFFFFFFFFFFFFFFFF DUP3 PUSH2 0x12EA JUMP JUMPDEST PUSH2 0x132F DUP7 DUP4 PUSH2 0x12EA JUMP JUMPDEST SWAP6 POP DUP1 NOT DUP5 AND SWAP4 POP DUP1 DUP7 AND DUP5 OR SWAP3 POP POP POP SWAP4 SWAP3 POP POP POP JUMP JUMPDEST PUSH0 DUP2 SWAP1 POP SWAP2 SWAP1 POP JUMP JUMPDEST PUSH0 PUSH2 0x136A PUSH2 0x1365 PUSH2 0x1360 DUP5 PUSH2 0xCAA JUMP JUMPDEST PUSH2 0x1347 JUMP JUMPDEST PUSH2 0xCAA JUMP JUMPDEST SWAP1 POP SWAP2 SWAP1 POP JUMP JUMPDEST PUSH0 DUP2 SWAP1 POP SWAP2 SWAP1 POP JUMP JUMPDEST PUSH2 0x1383 DUP4 PUSH2 0x1350 JUMP JUMPDEST PUSH2 0x1397 PUSH2 0x138F DUP3 PUSH2 0x1371 JUMP JUMPDEST DUP5 DUP5 SLOAD PUSH2 0x12F6 JUMP JUMPDEST DUP3 SSTORE POP POP POP POP JUMP JUMPDEST PUSH0 PUSH0 SWAP1 POP SWAP1 JUMP JUMPDEST PUSH2 0x13AE PUSH2 0x139F JUMP JUMPDEST PUSH2 0x13B9 DUP2 DUP5 DUP5 PUSH2 0x137A JUMP JUMPDEST POP POP POP JUMP JUMPDEST JUMPDEST DUP2 DUP2 LT ISZERO PUSH2 0x13DC JUMPI PUSH2 0x13D1 PUSH0 DUP3 PUSH2 0x13A6 JUMP JUMPDEST PUSH1 0x1 DUP2 ADD SWAP1 POP PUSH2 0x13BF JUMP JUMPDEST POP POP JUMP JUMPDEST PUSH1 0x1F DUP3 GT ISZERO PUSH2 0x1421 JUMPI PUSH2 0x13F2 DUP2 PUSH2 0x12C9 JUMP JUMPDEST PUSH2 0x13FB DUP5 PUSH2 0x12DB JUMP JUMPDEST DUP2 ADD PUSH1 0x20 DUP6 LT ISZERO PUSH2 0x140A JUMPI DUP2 SWAP1 POP JUMPDEST PUSH2 0x141E PUSH2 0x1416 DUP6 PUSH2 0x12DB JUMP JUMPDEST DUP4 ADD DUP3 PUSH2 0x13BE JUMP JUMPDEST POP POP JUMPDEST POP POP POP JUMP JUMPDEST PUSH0 DUP3 DUP3 SHR SWAP1 POP SWAP3 SWAP2 POP POP JUMP JUMPDEST PUSH0 PUSH2 0x1441 PUSH0 NOT DUP5 PUSH1 0x8 MUL PUSH2 0x1426 JUMP JUMPDEST NOT DUP1 DUP4 AND SWAP2 POP POP SWAP3 SWAP2 POP POP JUMP JUMPDEST PUSH0 PUSH2 0x1459 DUP4 DUP4 PUSH2 0x1432 JUMP JUMPDEST SWAP2 POP DUP3 PUSH1 0x2 MUL DUP3 OR SWAP1 POP SWAP3 SWAP2 POP POP JUMP JUMPDEST PUSH2 0x1472 DUP3 PUSH2 0xD08 JUMP JUMPDEST PUSH8 0xFFFFFFFFFFFFFFFF DUP2 GT ISZERO PUSH2 0x148B JUMPI PUSH2 0x148A PUSH2 0xDBD JUMP JUMPDEST JUMPDEST PUSH2 0x1495 DUP3 SLOAD PUSH2 0x1150 JUMP JUMPDEST PUSH2 0x14A0 DUP3 DUP3 DUP6 PUSH2 0x13E0 JUMP JUMPDEST PUSH0 PUSH1 0x20 SWAP1 POP PUSH1 0x1F DUP4 GT PUSH1 0x1 DUP2 EQ PUSH2 0x14D1 JUMPI PUSH0 DUP5 ISZERO PUSH2 0x14BF JUMPI DUP3 DUP8 ADD MLOAD SWAP1 POP JUMPDEST PUSH2 0x14C9 DUP6 DUP3 PUSH2 0x144E JUMP JUMPDEST DUP7 SSTORE POP PUSH2 0x1530 JUMP JUMPDEST PUSH1 0x1F NOT DUP5 AND PUSH2 0x14DF DUP7 PUSH2 0x12C9 JUMP JUMPDEST PUSH0 JUMPDEST DUP3 DUP2 LT ISZERO PUSH2 0x1506 JUMPI DUP5 DUP10 ADD MLOAD DUP3 SSTORE PUSH1 0x1 DUP3 ADD SWAP2 POP PUSH1 0x20 DUP6 ADD SWAP5 POP PUSH1 0x20 DUP2 ADD SWAP1 POP PUSH2 0x14E1 JUMP JUMPDEST DUP7 DUP4 LT ISZERO PUSH2 0x1523 JUMPI DUP5 DUP10 ADD MLOAD PUSH2 0x151F PUSH1 0x1F DUP10 AND DUP3 PUSH2 0x1432 JUMP JUMPDEST DUP4 SSTORE POP JUMPDEST PUSH1 0x1 PUSH1 0x2 DUP9 MUL ADD DUP9 SSTORE POP POP POP JUMPDEST POP POP POP POP POP POP JUMP JUMPDEST PUSH32 0x4E487B7100000000000000000000000000000000000000000000000000000000 PUSH0 MSTORE PUSH1 0x11 PUSH1 0x4 MSTORE PUSH1 0x24 PUSH0 REVERT JUMPDEST PUSH0 PUSH2 0x156F DUP3 PUSH2 0xCAA JUMP JUMPDEST SWAP2 POP PUSH2 0x157A DUP4 PUSH2 0xCAA JUMP JUMPDEST SWAP3 POP DUP3 DUP3 SUB SWAP1 POP DUP2 DUP2 GT ISZERO PUSH2 0x1592 JUMPI PUSH2 0x1591 PUSH2 0x1538 JUMP JUMPDEST JUMPDEST SWAP3 SWAP2 POP POP JUMP JUMPDEST PUSH0 PUSH1 0x20 DUP3 ADD SWAP1 POP PUSH2 0x15AB PUSH0 DUP4 ADD DUP5 PUSH2 0xD78 JUMP JUMPDEST SWAP3 SWAP2 POP POP JUMP JUMPDEST PUSH32 0x54686520726567697374726174696F6E207068617365206973206F7665720000 PUSH0 DUP3 ADD MSTORE POP JUMP JUMPDEST PUSH0 PUSH2 0x15E5 PUSH1 0x1E DUP4 PUSH2 0xD12 JUMP JUMPDEST SWAP2 POP PUSH2 0x15F0 DUP3 PUSH2 0x15B1 JUMP JUMPDEST PUSH1 0x20 DUP3 ADD SWAP1 POP SWAP2 SWAP1 POP JUMP JUMPDEST PUSH0 PUSH1 0x20 DUP3 ADD SWAP1 POP DUP2 DUP2 SUB PUSH0 DUP4 ADD MSTORE PUSH2 0x1612 DUP2 PUSH2 0x15D9 JUMP JUMPDEST SWAP1 POP SWAP2 SWAP1 POP JUMP JUMPDEST PUSH32 0x566F74652073657373696F6E206973206E6F7420737461727465640000000000 PUSH0 DUP3 ADD MSTORE POP JUMP JUMPDEST PUSH0 PUSH2 0x164D PUSH1 0x1B DUP4 PUSH2 0xD12 JUMP JUMPDEST SWAP2 POP PUSH2 0x1658 DUP3 PUSH2 0x1619 JUMP JUMPDEST PUSH1 0x20 DUP3 ADD SWAP1 POP SWAP2 SWAP1 POP JUMP JUMPDEST PUSH0 PUSH1 0x20 DUP3 ADD SWAP1 POP DUP2 DUP2 SUB PUSH0 DUP4 ADD MSTORE PUSH2 0x167A DUP2 PUSH2 0x1641 JUMP JUMPDEST SWAP1 POP SWAP2 SWAP1 POP JUMP JUMPDEST PUSH32 0x557365722068617320616C726561647920766F74656400000000000000000000 PUSH0 DUP3 ADD MSTORE POP JUMP JUMPDEST PUSH0 PUSH2 0x16B5 PUSH1 0x16 DUP4 PUSH2 0xD12 JUMP JUMPDEST SWAP2 POP PUSH2 0x16C0 DUP3 PUSH2 0x1681 JUMP JUMPDEST PUSH1 0x20 DUP3 ADD SWAP1 POP SWAP2 SWAP1 POP JUMP JUMPDEST PUSH0 PUSH1 0x20 DUP3 ADD SWAP1 POP DUP2 DUP2 SUB PUSH0 DUP4 ADD MSTORE PUSH2 0x16E2 DUP2 PUSH2 0x16A9 JUMP JUMPDEST SWAP1 POP SWAP2 SWAP1 POP JUMP JUMPDEST PUSH32 0x546869732070726F706F73616C20496420646F65736E27742065786973740000 PUSH0 DUP3 ADD MSTORE POP JUMP JUMPDEST PUSH0 PUSH2 0x171D PUSH1 0x1E DUP4 PUSH2 0xD12 JUMP JUMPDEST SWAP2 POP PUSH2 0x1728 DUP3 PUSH2 0x16E9 JUMP JUMPDEST PUSH1 0x20 DUP3 ADD SWAP1 POP SWAP2 SWAP1 POP JUMP JUMPDEST PUSH0 PUSH1 0x20 DUP3 ADD SWAP1 POP DUP2 DUP2 SUB PUSH0 DUP4 ADD MSTORE PUSH2 0x174A DUP2 PUSH2 0x1711 JUMP JUMPDEST SWAP1 POP SWAP2 SWAP1 POP JUMP JUMPDEST PUSH0 PUSH1 0x40 DUP3 ADD SWAP1 POP PUSH2 0x1764 PUSH0 DUP4 ADD DUP6 PUSH2 0xFAD JUMP JUMPDEST PUSH2 0x1771 PUSH1 0x20 DUP4 ADD DUP5 PUSH2 0xD78 JUMP JUMPDEST SWAP4 SWAP3 POP POP POP JUMP JUMPDEST PUSH32 0x4E487B7100000000000000000000000000000000000000000000000000000000 PUSH0 MSTORE PUSH1 0x32 PUSH1 0x4 MSTORE PUSH1 0x24 PUSH0 REVERT JUMPDEST PUSH0 PUSH2 0x17AF DUP3 PUSH2 0xCAA JUMP JUMPDEST SWAP2 POP PUSH32 0xFFFFFFFFFFFFFFFFFFFFFFFFFFFFFFFFFFFFFFFFFFFFFFFFFFFFFFFFFFFFFFFF DUP3 SUB PUSH2 0x17E1 JUMPI PUSH2 0x17E0 PUSH2 0x1538 JUMP JUMPDEST JUMPDEST PUSH1 0x1 DUP3 ADD SWAP1 POP SWAP2 SWAP1 POP JUMP JUMPDEST PUSH32 0x5468652073746174757320697320616C726561647920746865206F6E6520796F PUSH0 DUP3 ADD MSTORE PUSH32 0x7527726520747279696E6720746F207365740000000000000000000000000000 PUSH1 0x20 DUP3 ADD MSTORE POP JUMP JUMPDEST PUSH0 PUSH2 0x1846 PUSH1 0x32 DUP4 PUSH2 0xD12 JUMP JUMPDEST SWAP2 POP PUSH2 0x1851 DUP3 PUSH2 0x17EC JUMP JUMPDEST PUSH1 0x40 DUP3 ADD SWAP1 POP SWAP2 SWAP1 POP JUMP JUMPDEST PUSH0 PUSH1 0x20 DUP3 ADD SWAP1 POP DUP2 DUP2 SUB PUSH0 DUP4 ADD MSTORE PUSH2 0x1873 DUP2 PUSH2 0x183A JUMP JUMPDEST SWAP1 POP SWAP2 SWAP1 POP JUMP JUMPDEST PUSH1 0x6 DUP2 LT PUSH2 0x188B JUMPI PUSH2 0x188A PUSH2 0x120E JUMP JUMPDEST JUMPDEST POP JUMP JUMPDEST PUSH0 DUP2 SWAP1 POP PUSH2 0x189B DUP3 PUSH2 0x187A JUMP JUMPDEST SWAP2 SWAP1 POP JUMP JUMPDEST PUSH0 PUSH2 0x18AA DUP3 PUSH2 0x188E JUMP JUMPDEST SWAP1 POP SWAP2 SWAP1 POP JUMP JUMPDEST PUSH2 0x18BA DUP2 PUSH2 0x18A0 JUMP JUMPDEST DUP3 MSTORE POP POP JUMP JUMPDEST PUSH0 PUSH1 0x40 DUP3 ADD SWAP1 POP PUSH2 0x18D3 PUSH0 DUP4 ADD DUP6 PUSH2 0x18B1 JUMP JUMPDEST PUSH2 0x18E0 PUSH1 0x20 DUP4 ADD DUP5 PUSH2 0x18B1 JUMP JUMPDEST SWAP4 SWAP3 POP POP POP JUMP INVALID LOG2 PUSH5 0x6970667358 0x22 SLT KECCAK256 DUP13 0xBA 0xC3 DUP2 EQ DUP14 0xBB 0xBA SWAP7 COINBASE PUSH3 0x865D50 0xDE DUP16 SLT SWAP6 SAR SMOD 0xD5 RETURN 0xCC BASEFEE 0xA8 0xEC DUP2 DUP14 0x4B JUMP SIGNEXTEND SWAP3 PUSH5 0x736F6C6343 STOP ADDMOD SHR STOP CALLER "
				},
				"gasEstimates": {
					"creation": {
						"codeDepositCost": "1285800",
						"executionCost": "infinite",
						"totalCost": "infinite"
					},
					"external": {
						"changeStatus(uint8)": "infinite",
						"getWinner()": "infinite",
						"owner()": "2514",
						"proposals(uint256)": "infinite",
						"registerProposal(string)": "infinite",
						"registerVoter(address)": "infinite",
						"renounceOwnership()": "infinite",
						"transferOwnership(address)": "infinite",
						"voteProposal(uint256)": "infinite",
						"whitelist(address)": "infinite"
					},
					"internal": {
						"calculateResult()": "infinite"
					}
				},
				"methodIdentifiers": {
					"changeStatus(uint8)": "95bc9538",
					"getWinner()": "8e7ea5b2",
					"owner()": "8da5cb5b",
					"proposals(uint256)": "013cf08b",
					"registerProposal(string)": "2f95355b",
					"registerVoter(address)": "38db6dd3",
					"renounceOwnership()": "715018a6",
					"transferOwnership(address)": "f2fde38b",
					"voteProposal(uint256)": "807896d5",
					"whitelist(address)": "9b19251a"
				}
			},
			"storageLayout": {
				"storage": [
					{
						"astId": 8,
						"contract": "contracts/Voting.sol:Voting",
						"label": "_owner",
						"offset": 0,
						"slot": "0",
						"type": "t_address"
					},
					{
						"astId": 217,
						"contract": "contracts/Voting.sol:Voting",
						"label": "currentVoteStatus",
						"offset": 20,
						"slot": "0",
						"type": "t_enum(WorkflowStatus)214"
					},
					{
						"astId": 222,
						"contract": "contracts/Voting.sol:Voting",
						"label": "whitelist",
						"offset": 0,
						"slot": "1",
						"type": "t_mapping(t_address,t_struct(Voter)202_storage)"
					},
					{
						"astId": 226,
						"contract": "contracts/Voting.sol:Voting",
						"label": "proposals",
						"offset": 0,
						"slot": "2",
						"type": "t_array(t_struct(Proposal)207_storage)dyn_storage"
					},
					{
						"astId": 228,
						"contract": "contracts/Voting.sol:Voting",
						"label": "winningProposalId",
						"offset": 0,
						"slot": "3",
						"type": "t_uint256"
					}
				],
				"types": {
					"t_address": {
						"encoding": "inplace",
						"label": "address",
						"numberOfBytes": "20"
					},
					"t_array(t_struct(Proposal)207_storage)dyn_storage": {
						"base": "t_struct(Proposal)207_storage",
						"encoding": "dynamic_array",
						"label": "struct Voting.Proposal[]",
						"numberOfBytes": "32"
					},
					"t_bool": {
						"encoding": "inplace",
						"label": "bool",
						"numberOfBytes": "1"
					},
					"t_enum(WorkflowStatus)214": {
						"encoding": "inplace",
						"label": "enum Voting.WorkflowStatus",
						"numberOfBytes": "1"
					},
					"t_mapping(t_address,t_struct(Voter)202_storage)": {
						"encoding": "mapping",
						"key": "t_address",
						"label": "mapping(address => struct Voting.Voter)",
						"numberOfBytes": "32",
						"value": "t_struct(Voter)202_storage"
					},
					"t_string_storage": {
						"encoding": "bytes",
						"label": "string",
						"numberOfBytes": "32"
					},
					"t_struct(Proposal)207_storage": {
						"encoding": "inplace",
						"label": "struct Voting.Proposal",
						"members": [
							{
								"astId": 204,
								"contract": "contracts/Voting.sol:Voting",
								"label": "description",
								"offset": 0,
								"slot": "0",
								"type": "t_string_storage"
							},
							{
								"astId": 206,
								"contract": "contracts/Voting.sol:Voting",
								"label": "voteCount",
								"offset": 0,
								"slot": "1",
								"type": "t_uint256"
							}
						],
						"numberOfBytes": "64"
					},
					"t_struct(Voter)202_storage": {
						"encoding": "inplace",
						"label": "struct Voting.Voter",
						"members": [
							{
								"astId": 197,
								"contract": "contracts/Voting.sol:Voting",
								"label": "isRegistered",
								"offset": 0,
								"slot": "0",
								"type": "t_bool"
							},
							{
								"astId": 199,
								"contract": "contracts/Voting.sol:Voting",
								"label": "hasVoted",
								"offset": 1,
								"slot": "0",
								"type": "t_bool"
							},
							{
								"astId": 201,
								"contract": "contracts/Voting.sol:Voting",
								"label": "votedProposalId",
								"offset": 0,
								"slot": "1",
								"type": "t_uint256"
							}
						],
						"numberOfBytes": "64"
					},
					"t_uint256": {
						"encoding": "inplace",
						"label": "uint256",
						"numberOfBytes": "32"
					}
				}
			},
			"userdoc": {
				"kind": "user",
				"methods": {},
				"version": 1
			}
		}
	}
}